:020000022000DC
:1070000000000420BD720200E5720200E772020077
:10701000E9720200EB720200ED7202000000000053
:10702000000000000000000000000000EF720200FD
:10703000F172020000000000F3720200F57202001B
:1070400039A10200F772020085AA0200F77202005D
:10705000F7720200F772020075A50200F7720200D3
:10706000F7720200F7720200F7720200F772020074
:10707000F7720200F7720200F7720200F772020064
:10708000F7720200C58D0200F7720200F77202006B
:10709000F7720200F7720200A9D50200F77202002F
:1070A000F7720200F7720200F7720200F772020034
:1070B000F7720200F77202000000000000000000FA
:1070C000F7720200F7720200F7720200F772020014
:1070D000F7720200F7720200F7720200F772020004
:1070E000F7720200F7720200F7720200000000005F
:1070F00000000000F772020000000000F7720200BA
:10710000000000000000000000000000000000007F
:10711000000000000000000000000000000000006F
:10712000000000000000000000000000000000005F
:10713000000000000000000000000000000000004F
:10714000000000000000000000000000000000003F
:10715000000000000000000000000000000000002F
:10716000000000000000000000000000000000001F
:10717000000000000000000000000000000000000F
:1071800000000000000000000000000000000000FF
:1071900000000000000000000000000000000000EF
:1071A00000000000000000000000000000000000DF
:1071B00000000000000000000000000000000000CF
:1071C00000000000000000000000000000000000BF
:1071D00000000000000000000000000000000000AF
:1071E000000000000000000000000000000000009F
:1071F000000000000000000000000000000000008F
:1072000010B5054C237833B9044B13B10448AFF3E0
:1072100000800123237010BD282C002000000000F6
:107220002CFB020008B5034B1BB103490348AFF325
:10723000008008BD000000002C2C00202CFB020068
:10724000A3F5803A704700BF174B002B08BF134BC4
:107250009D46FFF7F5FF00218B460F461348144A61
:10726000121A06F091FB0E4B002B00D098470D4BE5
:10727000002B00D098470020002104000D000D488D
:10728000002802D00C48AFF3008006F04BFB200032
:10729000290004F0E1FA06F031FB00BF000008000D
:1072A000000000000000000000000420282C002046
:1072B000F43C002000000000000000000649074ADE
:1072C000074B9B1A03DD043BC858D050FBDC02F08F
:1072D00037FCFFF7B9FF00003CFC0200E82A002061
:1072E000282C0020FEE7FEE7FEE7FEE7FEE7FEE7CC
:1072F000FEE7FEE7FEE7FEE7704700BF00B583B09C
:10730000044B0093044A402300F036F803B05DF8C4
:1073100004FB00BF1D730200482C002002B32DE9BE
:10732000F843114B114E88461446032743F00109D8
:107330000025224608EB0501002004F0A5FB0346CA
:10734000E41A4FF47A401D4423B9337833B1C84767
:10735000013F06D001233370002CEAD1BDE8F88349
:1073600070473770BDE8F88300ED0200442C002020
:10737000704700BF04F05EBCF0B595B0084600242D
:107380000E4617461D4602F073FA1A9A0D922346CE
:10739000082205A93046CDE9095408978DF82C40FC
:1073A0000C9402F0C9FADDE906219DF814308DF83D
:1073B0001140CDE9021203F00302012A28D0022A6B
:1073C00004D0304602F058FA15B0F0BDBDF81650A2
:1073D000C3F3C203C5F389158DF810300827082DB3
:1073E0002C4628BF08243B4622460EA9304602F010
:1073F000A3FA2D1B08AB02AA21460EA8274400F0D1
:1074000049FD002DEBD1304602F036FA15B0F0BD43
:10741000BDF814100598C1F38312C3F3C203C0F37F
:107420009525C1F383148DF810300EA930469200D3
:10743000082302F081FA08AB0093224602AB0EA9A2
:10744000284600F0B1FC304602F016FA15B0F0BD47
:1074500008B5FFF78FFF0448042100F021FC034B1F
:1074600001225A7108BD00BF24FC0200E82A002056
:10747000064B074810B500221A7002F0ADF9044619
:1074800010B9044802F0CEFA204610BD582D002055
:1074900090FB02003CED020030B499B10D490E4D55
:1074A000491BC90813D00D4C002302E00133994257
:1074B0000AD034F823208242F8D1184655F830001B
:1074C00030BC7047044DF9E7002030BC70470846D7
:1074D000F6E700BF24FC0200A4FB0200282C0020D9
:1074E000094B013903EBC00003290BD8DFE801F099
:1074F0000402080604207047022070474079704754
:107500000079704700207047A4FB0200704700BF5D
:107510002DE9F043904CD4E901239A4285B060D024
:107520000023C4F81834BFF34F8FA568EAB2D31C08
:1075300004EB830114F82330580718D566680B78DC
:1075400003F00303012B42D0022B03D14B880235F9
:1075500005EB9315EAB2D4F81804D31C04EB8301AD
:1075600028B9AE4239D914F823305B07E7D404EBCD
:1075700082026B1CDBB2D26804EB830302F00301CE
:10758000DB680229CDE9012305F102062DD001298E
:1075900000F09280D4F810543DB12B6828469B68C7
:1075A0009847EB681D68002DF7D16C486C4B6D490E
:1075B000C01AC008000440F0020000F09BFAD4E9B1
:1075C0000130C01A18BF012005B0BDE8F0830B8858
:1075D0000235C3F383131D44BCE7A66005B0BDE8C4
:1075E000F083002005B0BDE8F083BDF806305E48AA
:1075F000C3F389184546502D28BF502505F10801D1
:1076000065F38F13C1F30901ADF8063002F0E6F817
:1076100007460028BED002F02BF90023082201A95A
:10762000384602F055F9F343DBB20133B5EB830F73
:107630004FEA83027ED9F1B25FFA82F9033104EB9B
:10764000810138460823A5EB090502F041F9EDB2A6
:1076500009F10803454903F0FC032A46384602F0C5
:1076600037F908F1030806EB9806D4F81834002B14
:107670006ED1D4F8105465B1EB685A792846394672
:10768000002A61D02B681B689847EB681D68002DA5
:10769000F2D1384602F0F0F800230DF103008DF826
:1076A000033001F0F3F9D4F8183403B9A6609DF85B
:1076B000030001F011FA82E7BDF804202A48C2F362
:1076C0008313062B28BF062363F38912023303F0CA
:1076D0000F018900ADF8042002F080F80746002869
:1076E0003FF458AF02F0C4F80023082201A938463D
:1076F00002F0EEF8BDF8043013F4707FB5D06FF0EF
:1077000001094FF00808A9EB0509F1B2033143461E
:10771000042204EB8101384602F0DAF8BDF80430A7
:107720000136C3F3831309EB0602934208F1040800
:10773000EBD89AE7F1B203312A4604EB8101082322
:10774000384602F0C5F88CE71D68002D94D1A0E7FB
:10775000384602F091F832E7582D0020CCFB0200A9
:10776000A4FB020024ED020090FB0200642D002027
:107770002DE9F04FDFF8BCB189B0002406460DF1C9
:1077800013000393CDE901128DF8134001F07EF947
:10779000DBF80830DBF8047003F58073DB1B032B88
:1077A00000F281800BF21C450BF583680BF2144448
:1077B0001AE0BDF81630C3F3891303334FEA1149B9
:1077C0000AEB930A204601F00BFC494600283AD008
:1077D0002846CBF808A001F0DFFBDBE9012303F525
:1077E00080739B1A032B5FD80121284601F0D4FB3C
:1077F000404601F0E9FB204601F0E6FBDBF80830EB
:10780000DAB2D11C0BEB810C1BF8211001F0040043
:10781000490728D40BEB82015A1CC9680591D2B2E2
:1078200001F003000BEB82020128D16803F1020A88
:1078300031D00228BDD0204601F0D2FB4FF0000924
:1078400049460028C4D12846C5E7BCF802300EEBF3
:107850009313DAB2D11C0BEB810C1BF8210000F062
:1078600004000028D6D09CF8001001F00301012983
:107870000AD0022903F1020E02F10301E5D00BEB5D
:10788000810C0028EFD1C5E7BCF800200233C2F319
:1078900083121344DDE7BDF81430C3F383134FEABA
:1078A00011499A448EE73A46D3B203330432852114
:1078B0009DF813004BF82310CBF8042001F00CF9CD
:1078C000BB1CDBB20BEB8303029ADA60FB1CDBB25E
:1078D0000BEB8303039ADA600021154801F03AFBB1
:1078E00080F31001F300019A03F0380343F08103A1
:1078F000781C43EA8223C0B2FAB209040BEB800081
:10790000033241EA1641C1604BF822309BF8003047
:1079100023B9FFF7FBFD09B0BDE8F08FFFF7F8FDD5
:107920000028F6D0FFF7F4FD0028F7D1F1E700BFFB
:1079300074310020582D00202DE9F04FDFF8B0B150
:1079400087B0002306460DF10B008DF80B30CDE912
:10795000001201F09BF8DBE9018303F58073A3EBD0
:107960000803022B00F281800BF21C450BF58367A4
:107970000BF214441AE0BDF80E20C2F38912033250
:107980004FEA114A09EB9209204601F029FB5146C2
:1079900000283AD02846CBF8089001F0FDFADBE940
:1079A000012303F580739B1A022B5FD8012128461F
:1079B00001F0F2FA384601F007FB204601F004FB23
:1079C000DBF80830DAB2D11C0BEB810C1BF821106C
:1079D00001F00400490728D40BEB82015A1CC96846
:1079E0000391D2B201F003000BEB82020128D168AF
:1079F00003F1020931D00228BDD0204601F0F0FA8F
:107A00004FF0000A51460028C4D12846C5E7BCF80B
:107A100002300EEB9313DAB2D11C0BEB810C1BF886
:107A2000211001F004000028D6D09CF8001001F0CD
:107A3000030101290AD0022903F1020E02F1030118
:107A4000E5D00BEB810C0028EFD1C5E7BCF8002096
:107A50000233C2F383121344DDE7BDF80C20C2F3F6
:107A600083124FEA114A91448EE74246D3B2033360
:107A7000033245219DF80B004BF82310CBF804206E
:107A800001F02AF808F10203DBB20BEB8303019A41
:107A9000DA600021154801F05DFA80F31001F3006F
:107AA000009A03F0380343F0410308F1010043EA70
:107AB0008223C0B25FFA88F209040BEB8000033224
:107AC00041EA1641C1604BF822309BF8003023B9DF
:107AD000FFF71CFD07B0BDE8F08FFFF719FD002888
:107AE000F6D0FFF715FD0028F7D1F1E7743100203B
:107AF000582D00202DE9F04FDFF8A0A187B000231A
:107B000006460DF10B008DF80B30019100F0BEFF21
:107B1000DAE9018303F58073A3EB0803012B00F27C
:107B200081800AF21C450AF583670AF214441AE0C0
:107B3000BDF80E30C3F3891303334FEA11490BEB41
:107B4000930B204601F04CFA494600283AD02846CB
:107B5000CAF808B001F020FADAE9012303F58073CE
:107B60009B1A012B5FD80121284601F015FA3846EF
:107B700001F02AFA204601F027FADAF80830DAB2E2
:107B8000D11C0AEB810C1AF8211001F004004907FE
:107B900028D40AEB82015A1CC9680391D2B201F0C1
:107BA00003000AEB82020128D16803F1020B31D0F5
:107BB0000228BDD0204601F013FA4FF000094946D3
:107BC0000028C4D12846C5E7BCF802300EEB931359
:107BD000DAB2D11C0AEB810C1AF8211001F0040072
:107BE0000028D6D09CF8001001F0030101290AD02A
:107BF000022903F1020E02F10301E5D00AEB810C28
:107C00000028EFD1C5E7BCF800200233C2F383128D
:107C10001344DDE7BDF80C30C3F383134FEA114979
:107C20009B448EE74246D3B20333023205219DF8CE
:107C30000B004AF82310CAF8042000F04DFF002181
:107C4000154801F087F980F31001F300019A03F061
:107C5000380343F0010308F1010043EA8223C0B274
:107C60005FFA88F209040AEB8000033241EA164108
:107C7000C1604AF822309AF8003023B9FFF746FC79
:107C800007B0BDE8F08FFFF743FC0028F6D0FFF700
:107C90003FFC0028F7D1F1E774310020582D002077
:107CA00030B4154DD5F810140446002071B10B46C0
:107CB00001E01B6853B1DB681A798242F9D10130C7
:107CC0000A28F3D14FF0FF3030BC7047E3681871D9
:107CD000D5F810344BB1DA68E36812681A60D5F849
:107CE0001034DB681C6030BC7047C5F81044E26893
:107CF000136030BC704700BF582D002038B5084BCA
:107D0000D3F8104401251D704CB1E3685D71236800
:107D100020465B689847E3681C68002CF5D138BDA5
:107D2000582D002030B5C38885B004460D4623BBCE
:107D3000237A052B1FD0627A82B9144AA08852F8A0
:107D4000232003920021FFF7A7FB039A1049034663
:107D5000284605B0BDE8304001F0BCB91946A088FE
:107D6000FFF7BEFB0B4B0C4953F82020284601F0CF
:107D7000B1F9237AE1E705B030BD08490091084A1E
:107D80000849284601F0A6F9D2E700BF14EE020028
:107D900074ED0200F0ED020070ED020068ED0200EB
:107DA00048ED020050ED02002DE9F04385B01D467C
:107DB0000C9C002394F80C90237380460E461746C3
:107DC00021462846FFF7AEFF062F09D8DFE807F067
:107DD000042E343B444F1F004146204601F07AF9FF
:107DE0002B7A052B05D06B7A5BB92749204601F029
:107DF00071F9204601F062F984F80C9005B0BDE8F5
:107E0000F083224A2249204601F064F9EDE77369C4
:107E1000039333690293F3680193B3680093D6E93F
:107E200000234146204601F055F9D9E73268414622
:107E3000204601F04FF9D3E7D6E90023414620461A
:107E400001F048F9CCE7B3680093D6E90023414636
:107E5000204601F03FF9C3E7F3680193B36800934C
:107E6000D6E900234146204601F034F9B8E73369EA
:107E70000293F3680193B3680093D6E90023414667
:107E8000204601F027F9ABE780ED020068ED020023
:107E900070ED0200082900D970472DE9F04F1D460A
:107EA00083B000241B7B2C730E46074629461046E0
:107EB00090460193DFF8D0B0DFF8D0A0FFF732FF93
:107EC00005E03A5D013401F005F9082C09D0A6421D
:107ED00051462846F5D85946013401F0FBF8082CE4
:107EE000F5D12449DFF8A8B0234CDFF8A8A0284634
:107EF00001F0F0F84FF0000917E017F80910481CDE
:107F00007E294FF02E02C0B206D810F80A2012F0D7
:107F1000970F14BF0A462E222146284609F101096F
:107F200001F0D8F8B9F1080F0AD04E45E5D8594606
:107F3000284609F1010901F0CDF8B9F1080FF4D193
:107F400098F80830052B02D098F809305BB90B4936
:107F5000284601F0BFF8284601F0B0F8019B2B73CA
:107F600003B0BDE8F08F064A0649284601F0B2F892
:107F7000EDE700BF90ED020094ED020080ED0200FD
:107F800068ED020070ED02008CED020084ED02004D
:107F90007CED020090F9020038B5174B1D783DB317
:107FA000164A1168C0B200230C4604E00133AB420C
:107FB00004F108041CD011F833209042F6D102F0ED
:107FC000C9FA6378A3F10103B3FA83F35B0983422F
:107FD00000D038BD0A4BD3E900231343F9D1094B34
:107FE000094819680022BDE83840490800F04CBC37
:107FF00000231B78FFDE00BF10320020403200203B
:108000001832002014320020F02A00202DE9F04F11
:10801000DFF8788298F8003083B0002B00F02B81D5
:10802000DFF86C92954F964E00254FF0010AD7F875
:1080300000B01BF8350002F08DFA1BF835400BEB51
:10804000C50361085B7816F801C014F0010EA3F1B6
:108050000103B3FA83F314BF4FEA1C120CF00F02B2
:108060005B09042A00F2EA80DFE802F0725F332045
:108070000300834240F09F80BEF1000F0CBFF0234D
:108080000F230CEA030C0CBF0323302343EA0C0339
:10809000735498F8002001359542C8DBD9E90023D4
:1080A000134340F0DE8003B0BDE8F08F834200F060
:1080B000C580BEF1000F0CBFF0230F230CEA030CA8
:1080C0000CBF0423402343EA0C03735498F80020A8
:1080D000E1E7834240F0B580BEF1000F0CBFF02312
:1080E0000F230CEA030C98F800200CBF0323302365
:1080F00043EA0C037354002AD0D0D7F800C0002301
:10810000614603E0934201F10801C4D01CF833003A
:10811000A04203F10103F5D14B68002BBBD02046F0
:108120000121984798F80020B5E7834219BF002342
:108130001A4620230222BEF1000F16BF1A46F02372
:108140000F230CEA03031A43725498F80020A2E7A5
:10815000834273D14FF00003BEF1000F8DF807305A
:1081600014BF0F23F0230CEA030C14BF10230123C8
:1081700043EA0C030DF10700735400F087FCA4F1EF
:108180002003C4F120022AFA02F20AFA03F313438D
:10819000D9F800209DF807000AFA04F42243C9F830
:1081A0000020D9F804201343C9F8043000F094FCEF
:1081B00098F800206FE7BEF1000F14BF0F23F023E3
:1081C0000CEA030398F800C07354BCF1000F12D0FE
:1081D00038680023024603E0634502F108020AD032
:1081E00010F83310A14203F10103F5D1536813B124
:1081F0000021204698474FF000030DF107008DF84D
:10820000073000F043FCA4F12003C4F120022AFA55
:1082100002F20AFA03F31343D9F800209DF807008D
:108220000AFA04F422EA0402C9F80020D9F804206A
:1082300022EA0303C9F8043000F04EFC98F800204D
:1082400029E7BEF1000F0CBFF0230F230CEA030C4B
:108250000CBF0123102343EA0C03735498F8002049
:1082600019E7084B084819680022490803B0BDE81F
:10827000F04F00F009BBDFF818900FE74032002004
:108280002032002014320020F02A0020103200207A
:1082900018320020092A3FD9F0B583B014460546AC
:1082A0000E4601F0DBFF88B3204B214A1E70214BA4
:1082B0001560002120481C60202205F065FB1F4B43
:1082C00000200021741EC3E90001E4B236B31C4F44
:1082D00005EBC404032602E0A5421FD01C469DF80E
:1082E000063094F802C020788DF8046023F007036C
:1082F0003A4601A98DF806308DF805C001F0B8FFA7
:10830000A4F108030028E7D003B0F0BD01F04CFF52
:108310000028C9D003B0F0BD07207047094A0A48B9
:10832000002103B0BDE8F04000F096BA1032002002
:108330004032002014320020203200201832002069
:10834000997F02000D80020034EE020070B5084DE6
:108350002B785BB1074E00243368012113F83400F9
:1083600002F088F82B780134A342F5D8002070BDC4
:10837000103200204032002000B585B003460021B5
:1083800001AA44F20100CDE90111039300F004F8C1
:1083900005B05DF804FB00BF10B572B6FFF7AEFC88
:1083A000FFF7B6F80028FBD1104B114C1149E41A25
:1083B000E408240444F00100FFF79CFB0E4BD3F8C3
:1083C000F030DB0700D500BE0C4944F00200FFF797
:1083D00091FBBFF34F8F0849094BCA6802F4E06272
:1083E0001343CB60BFF34F8F00BFFDE7A4FB020038
:1083F000CCFB020038EE020000ED00E044EE02008B
:108400000400FA0510B48468C26803468088121B11
:10841000904203D204205DF8044B7047DC681A6870
:1084200020401154DA680132DA6000205DF8044B14
:10843000704700BF03468068DA6890420DD010B4E0
:108440009C689A8818682240825C0A709A68013297
:108450009A6000205DF8044B70470520704700BF0C
:1084600030B48D688468C368CA68A54272EB0303A0
:108470002CBF0120002030BC704700BF10B504465F
:1084800082B000230DF107008DF8073000F0FEFAEE
:1084900023692BB94FF0FF324FF0FF33C4E90223B9
:1084A0009DF8070000F018FBD4E905309847002339
:1084B0000DF107008DF8073000F0E8FA2369BBB131
:1084C000D4E90212B2F1FF3F08BFB1F1FF3F0FD074
:1084D0005B1842F10002C4E902329DF8070000F087
:1084E000FBFA0748214601F0C1FA012002B010BD95
:1084F0009DF8070000F0F0FA002002B010BD00BFA8
:1085000064EE02002DE9F04F2DED028B83B008EEF2
:10851000100A00F015FC40B1AC4AD2E9003113F169
:10852000807341F10001C2E9003118EE100A002108
:1085300000F022FCA64D60B32B6853B3A54B2C680A
:108540001B7823B31CB3A44800F026FC9F4BA34A1E
:1085500019685B684018D2E9001243F100038842B1
:1085600073EB020203D210F1807043F10003D4E9EF
:1085700002128842934180F02581B2F1FF3F08BF8B
:10858000B1F1FF3F03D09648214601F06FFA002376
:108590002B6018EE100A012100F0EEFB002840F0DD
:1085A000F180904801A900F071FC00283AD08D4C70
:1085B0004FF0FF384FF0FF3909E033B301A92046EF
:1085C00000F096FC01A9204600F060FC50B303784F
:1085D000012B11D0022BF0D1814E304601F05AFA16
:1085E00030B1C0E90289304601F054FA0028F8D1D0
:1085F000784B01221A70E1E72B684168994200F03C
:10860000B580774801F050FAD8E74168D1E90223F4
:10861000B3F1FF3F08BFB2F1FF3FCFD0704801F088
:1086200025FACBE76E4FDFF8B081DFF8A09138462E
:1086300001F036FA002852D0D0E90223B3F1FF3F0F
:1086400008BFB2F1FF3F00F08D80296891B1296821
:10865000D1E9020182428B4144D22B68D3E9022343
:10866000B3F1FF3F08BFB2F1FF3F03D0296838469E
:1086700001F0FCF9384601F00DFA04464046574E29
:10868000D4E902BA00F088FBD9E900133268401837
:1086900043F100039042726873EB020203D210F1BF
:1086A000807043F10003BBEB00006AEB0303012879
:1086B00073F1000324DBB0F5350F4DD25A464FF469
:1086C00096030021404600F0B5FA80B10D281BD07A
:1086D000002338462B6001F0E3F90028ACD12B6869
:1086E000002B66D003B0BDEC028BBDE8F08F2B6889
:1086F000002B3ED02C6003B0BDEC028BBDE8F08FA8
:108700000021404600F02CFB324B1B78002BDFD0C1
:10871000404600F041FBD9F80030D6E90012C018FD
:10872000D9F8043043F10003884273EB020203D20C
:1087300010F1807043F10003D4E9021288429341A2
:108740001CD2B2F1FF3F08BFB1F1FF3FC0D02146BC
:10875000384601F08BF9BBE7404600F01DFB224A8A
:108760000244ACE7384601F095F960E700232B603E
:1087700024E718EE100A00F02BFABBE72046FFF7BB
:108780007DFEA5E71448154E00F006FB0F4B1A6856
:108790005B688018D6E9001243F10003884273EB4E
:1087A000020203D210F1807043F10003C6E9000316
:1087B000F7E618EE100A03B0BDEC028BBDE8F04FEF
:1087C00000F00ABA2046FFF759FEE0E648320020E2
:1087D000C832002050320020102B0020C032002070
:1087E00064EE0200AC320020FFFFB40010B5134B62
:1087F00013491C68134882B008235822019400F0E2
:10880000EBFA044610B1204602B010BD0E4A0F48E4
:1088100001A900F079F904460028F4D10B480121A0
:1088200000F084FA01231946094A084800F0D8F9F3
:10883000084B012220461A7002B010BD60EE020003
:1088400054320020AC32002005850200102B00209D
:10885000FFFF7F00503200206AB19FED097BA1F13C
:1088600001010368B1FA81F1490983ED027BC3E993
:108870000412002070470720704700BFAFF300804C
:10888000FFFFFFFFFFFFFFFFF0B583B004460025A9
:1088900001A817460E468DF8045000F0F7F8D4E909
:1088A0000223B3F1FF3F08BFB2F1FF3F06D09DF8AE
:1088B000040000F011F9284603B0F0BD1C4800F098
:1088C0006BFA1C4B1C4A19685B684018D2E900120D
:1088D00043F10003884273EB020224D3301843F1C2
:1088E0000003A060E3609DF8040000F0F5F8236940
:1088F000A76103B12661114801A900F085FA03467A
:1089000070B100250D481D705C6001A900F0AEFA41
:108910000028D1D0064800F043FA284603B0F0BD45
:10892000042003B0F0BD10F1807043F10003D5E7DF
:10893000102B002048320020C0320020AC32002032
:1089400030B583B00446002501A88DF8045000F02E
:108950009DF8D4E90223B3F1FF3F08BFB2F1FF3F16
:108960001CD04FF0FF334FF0FF32C4E902239DF8D3
:10897000040000F0B1F8104801A900F045FA0346E0
:1089800048B10122027001A90B485C6000F06EFA48
:1089900058B903B030BD042003B030BD9DF80400C9
:1089A00000F09AF8284603B030BD044800F0F8F90A
:1089B000284603B030BD00BFAC320020102B002091
:1089C00070B5104D014610482E78FFF733FD044670
:1089D0000EB9204670BD0D480D490378CB5C0D499A
:1089E00000222A70012243B1043002F0DDF9002890
:1089F000EFD0FFF7C1FC204670BD0C3002F0C0F88C
:108A0000F5E700BFDC320020CC320020182B00201C
:108A100034330020F032002070B501461548FFF7CE
:108A2000F1FC044608B1204670BD134D134E2B785F
:108A3000F35CA3B1281D02F0A9F90028F3D1104975
:108A40000C48FFF7F7FC0028EDD12B780C49F35CBC
:108A500053B1BDE870400B48012202F03FB905F167
:108A60000C0002F081F8E8E7BDE8704006480122FA
:108A700002F00EB8E0320020182B00203433002022
:108A8000F43200201C2B0020242B002070B4EFF3C4
:108A9000108472B60D4B9A68AAB9012199600C49ED
:108AA0000C4ED1F8805035401D60C1F88060D1F87F
:108AB00084505D604FF0FF33C1F88430027004B918
:108AC00062B670BC704701230370F8E7F8320020EB
:108AD00000E100E0FC06FFBD094B9A687AB170B96D
:108AE00010B4EFF3108172B6064A1C6814605C681B
:108AF0005460986001B962B65DF8044B70477047E6
:108B0000F832002000E100E010B5294C437944F828
:108B10002320284C04EBC3031B79002B3BD10368B3
:108B20000A88C3F8082590F904308A78002B2ADBDC
:108B300003F16043520103F56143D2B283F800238D
:108B400090F90430002B09DB1B494FEA531C01222A
:108B500003F01F0302FA03F341F82C304279174B5C
:108B600044F832001648181A04EBC201C0084FF04E
:108B7000010C000481F804C040F003001149FEF725
:108B8000B9FF002010BD104903F00F035201194432
:108B9000D2B20A76D4E70A4B08480C49C01AC0087A
:108BA000000440F00200FEF7A5FF082010BD00BF42
:108BB0000C3300200433002000E100E0DCFB020065
:108BC000A4FB020094EE0200FCEC00E070EE020058
:108BD000036801221A607047036801225A607047D7
:108BE00070B405684FF480348C40C5F808430568BC
:108BF00001F1500CC5F848434FEA8C0C05681FFA88
:108C00008CFC002645F80C6083B055F80C5001959B
:108C1000019D056801F5A87122F07F4245F82120E9
:108C20000268C2F8444313B10368C3F8044303B0B5
:108C300070BC70472DE9F0474FF4803622F07F4733
:108C400002688E40C2F848630268C2F8086302688E
:108C500002EB810C044601F15005D2F80405DCF862
:108C60004025CCF84005AD00ADB2121A20684FF097
:108C7000000840F8058082B04059009022F07F4201
:108C8000012A00988A46994641D02268D2F80455B4
:108C9000C2F844637A1B22F07F42012A0AF5A871C8
:108CA00025D0236843F821702068D0F804557B1B39
:108CB000C9F1FF12013B02F57F4223F07F439A4244
:108CC00011D343B1C0F8446323680020C3F80463A0
:108CD00002B0BDE8F087013740F821702068D0F875
:108CE00004359D42EED00D2002B0BDE8F087236828
:108CF000013743F821700C4B4FF4806043F00103BF
:108D000098472068D0F804359D42DBD0EBE7064A4F
:108D10004FF4806042F001029047226842F80580DB
:108D200052590192019AB0E7B0EE020002680223A4
:108D3000C2F8443311B10268C2F80433704700BF6F
:108D40000368D3F8040100B97047002282B0C3F869
:108D50000421D3F804310193019B012002B0704734
:108D600002684FF4803303FA01F1C2F84813036834
:108D7000C3F80813704700BF50318900036889B2F7
:108D8000585800B9704700225A5082B05B5801937E
:108D9000019B012002B070470368D3F804057047B7
:108DA00090F90430002B09DB5A09054803F01F0332
:108DB0000121403201FA03F340F82230704700BF2E
:108DC00000E100E0024A034B10681B68184700BF2F
:108DD000043300200C33002099B110B4B2FBF3F43B
:108DE00003FB1424A4B244B9C0E900148460828156
:108DF000C38120465DF8044B704709205DF8044BA1
:108E000070470E20704700BF10B483B050E8013F98
:108E10001FFA83FCC489A4448489A44528BFACEB11
:108E2000040C0489A44502BFBFF32F8F002207E082
:108E3000CCEA030C40E801C4002CE7D14FF001025A
:108E40008DF803200193019C9DF803200C6032B142
:108E5000006810FA84F003B05DF8044B704702F02C
:108E6000FF03184603B05DF8044B70470A884B882F
:108E70009A4201D00020704750E8012FC2EA024216
:108E800040E80123002BF7D10120704710B483B0D4
:108E900050E8023F1FFAA3FCC488A44502BFBFF3F9
:108EA0002F8F00220EE0C489A4448489A44528BFE2
:108EB000ACEB040CC3EA0C4C40E802C4002CE7D134
:108EC0004FF001028DF803200193019C9DF80320CF
:108ED0000C6032B1006800EB144003B05DF8044B45
:108EE000704702F0FF03184603B05DF8044B70476B
:108EF0000A884B889A4201D00020704750E8022F20
:108F0000C2EA224240E80223002BF7D10120704739
:108F10004B0901F01F024FF0010C0CFA02F100EBBB
:108F2000830000F021B800BF01F01F02012303FA03
:108F300002F24B0900EB8300D14300F021B800BFDF
:108F40004B0901F01F0150F82300C84000F0010058
:108F5000704700BF034653E8000F0A4643E8002C61
:108F60009CF0000FF7D17047034653E8002F42EA08
:108F7000010043E8000C9CF0000FF6D1704700BFE1
:108F8000034653E8002F02EA010043E8000C9CF07E
:108F9000000FF6D1704700BF034653E8002F02EBE5
:108FA000010043E8000C9CF0000FF6D1704700BFB1
:108FB000034653E8002FA2EB010043E8000C9CF0AD
:108FC000000FF6D1704700BF0346012253E8001F8F
:108FD00041EA020043E8000C9CF0000FF6D1704714
:108FE0000346002253E8000F00EA020143E8001C98
:108FF0009CF0000FF6D17047D0B110B4D0E9011247
:10900000521A0468D2B2531E2160DBB252B1016819
:109010000A6803F1FF3C541C0C6013705FFA8CF378
:10902000FF2BF4D10368002018715DF8044B7047E2
:109030000E20704730B583B0044600250DF10700BF
:109040008DF80750FFF722FDD4E900311A688A42F3
:1090500010D9511E19602168A3680D6812F8012CFF
:10906000208A5B1BE56800FB02550A79DBB29A4255
:1090700038BF0B719DF80700FFF72EFD284603B09F
:1090800030BD00BF30B5054683B00DF107000023A9
:109090000C468DF80730FFF7F9FC2A681368591C55
:1090A0001160E9682A8A641AB4FBF2F41C709DF816
:1090B0000700FFF711FD03B030BD00BF826842B169
:1090C00010B5044643690168006998470023A3600E
:1090D00010BD70470EB400B582B0039921B104AB46
:1090E00001AA019300F0B6F802B05DF804EB03B0FA
:1090F000704700BF2DE9F04F154683B0A942DDF857
:1091000030900D9A0F4606469A46C0F09E800B4658
:109110004FF00108B3FBF5F39D4208F10108F9D9BE
:10912000D04538BFD04612F00103019302D1B9F106
:10913000000F67D1B268BAF1010F4FF0010406D9F0
:109140000AF1FF3ABAF1010F05FB04F4F8D8B7FBB6
:10915000F4F39D4205D805FB04F4B7FBF4F39D42FC
:10916000F9D9DFF8ECA007E0AC42B4FBF5F31AD371
:10917000B2681C46B7FBF3F31AF803B0BBF10A0F51
:1091800004FB137728D03368511CB16003F802B098
:10919000D6E901329A42E7D33046FFF78FFFB4FB9E
:1091A000F5F3AC42E4D2019B9BB1B9F1000F10D0B2
:1091B0002024C84509F1FF390BD2B3683268591C25
:1091C000B160D454D6E901329A4214D2B9F1000FF9
:1091D000EFD103B0BDE8F08F511C3368B1604FF0A0
:1091E0000D019954D6E901329A42CCD33046FFF7AB
:1091F00065FFB268C7E73046FFF760FFB9F1000FBF
:10920000D7D1E6E793071AD42024B268C84502F103
:10921000010190D23368B1609C54D6E901329A4280
:1092200009F1FF3903D2B9F1000FEFD183E73046DE
:10923000FFF744FFB268B9F1000FE7D17BE7BAF15D
:10924000000F0CBF30242024DFE74FF0010867E750
:10925000B8EE0200002900F05C822DE9F04FDFF843
:1092600070950D7885B0064690460C464FF00D0A75
:109270000FE00A2DB36800F08E803268591CB1608F
:10928000D554D6E901329A4280F081802578002DAC
:1092900069D00134002D66D0252DEAD10027234660
:1092A00014F8012B2D2A6CD0302A6DD02B2A61D0D6
:1092B0002A2A7FD0A2F1300109294FF000050BD8EE
:1092C00005EB850502EB450513F8012FA2F13001EE
:1092D0000929A5F13005F3D92E2A1C4675D00023A3
:1092E00001E014F8012F02F0FB016829F9D0252ACA
:1092F00000F08681583AD1B2202930D8202A2ED8C1
:10930000DFE812F021002D002D002D002D002D0092
:109310002D002D002D002D002D00FE0079002D00C8
:109320002D002D002D0079002D002D002D002D0089
:109330002D002D00BD002D002D001A012D0016015D
:109340002D002D002100D8F800101022081DC8F8AB
:10935000000009683046CDE90057FFF7CBFE013425
:109360002578002D95D1337B002B40F0438105B04B
:10937000BDE8F08F234614F8012B2D2A47F004078F
:1093800092D147F001078AE747F0020787E73046A6
:10939000FFF794FE7AE73268591CB16002F803A027
:1093A000D6E901239342FFF468AF3046FFF786FE0B
:1093B000B36862E7D8F80020111DC8F800101568DE
:1093C0005A782E2A03F1010489D16278A2F1300380
:1093D000092B04F101044FF0000384D803EB83034D
:1093E00002EB430314F8012FA2F130010929A3F184
:1093F0003003F3D977E7D8F80020111DC8F8001022
:10940000D2F800B08BEAEB72A2EBEB72092A40F3C0
:10941000DB81DFF8C0C3012011466329ACFB02E207
:1094200000F101004FEAD202F6DC9842024638BF52
:109430001A460292002D00F01E81BBF1000FC0F20F
:109440002E817A0700F12B81B80740F12A81002B89
:1094500040F02781BBF1000FC0F27D817A0700F157
:109460008D8107F00302022A00F05D81CDE90057EB
:1094700059460A223046FFF73DFE013470E7D8F81E
:1094800000301A1DC8F800201F68B3683268581CE5
:109490003021B060D154D6E90123934280F0FA80A4
:1094A000591C3268B1607821D154D6E901329A4210
:1094B00080F0EB800F2F03D93B461B090F2BFCD804
:1094C0004FF0805506E00F2D4FEA15137FF647AF9A
:1094D000B2681D46B7FBF5F319F803B0BBF10A0FEC
:1094E00005FB137777D03368511CB16003F802B0E5
:1094F000D6E901329A42E6D33046FFF7DFFDE2E7D4
:10950000D8F800301A1DC8F800201D78B3680A2D5D
:1095100000F03A813268591CB160D554D6E9013265
:109520009A42FFF41CAF3046FFF7C8FD013417E73D
:10953000D8F800100A2209E7D8F800301A1DC8F838
:10954000002017F00107D3F800B064D1BBF1000F81
:1095500003D0584604F040FA0746BD4215D92022F0
:1095600001E0BD4211D0B1683368481CB0605A5464
:10957000D6E90130984205F1FF35F2D33046FFF7C6
:109580009DFDBD424FF02002EDD19BF80050002D13
:109590003FF4E5AE0A2DB0680FD03368421CB260CC
:1095A0001D54D6E90130984280F0B4801BF8015F69
:1095B000002D3FF4D4AE0A2DEFD13368421CB260C7
:1095C00003F800A0D6E901309842E6D33046FFF711
:1095D00075FDB068E1E73368511CB16003F802A083
:1095E000D6E901329A42FFF47EAF3046FFF766FDBE
:1095F000B26878E7304605B0BDE8F04FFFF75EBDD2
:10960000B3683168581CB060CA54D6E901329A4236
:1096100089D20134A4E69BF80030002B00F0D680FC
:10962000B0685F46CBF101020A2B02EB070B5ED05C
:10963000411CB16031680B54D6E90130984248D2E0
:1096400017F8013F002BEFD15D457FF688AE20274C
:1096500002E05D453FF483AEB2683368511CB160EF
:109660009F54D6E901329A4205F1FF35F1D33046D5
:10967000FFF724FDEDE7B80705D5002B3FF4EAAE70
:10968000F9073FF5E7AE0025E4E63046FFF716FDA3
:10969000B2680FE73046FFF711FDB36800E7013D00
:1096A000D2E6F9073FF5D6AE002DECD02022029984
:1096B000A942BFF4CFAEB168481CB06030684254D4
:1096C000D6E90101814205F1FF356CD2002DEED1C2
:1096D000D9E730460292FFF7F1FC17F8013F002B63
:1096E000B2D0029AB0680A2B02EB070BA0D1411C42
:1096F000B160316801F800A0D6E90110884297D323
:109700003046CDE90232FFF7D9FCDDE90232B0681C
:109710008EE770473046FFF7D1FC1BF8015F002D44
:109720007FF438AF1BE6002B7FF4A0AE8DB1302262
:1097300002998D427FF69AAEB168481CB0603068DD
:109740004254D6E90101814205F1FF3535D2002DA1
:10975000EED100258AE6B1683268481CB060CBF1D2
:10976000000B2D205054D6E901219142FFF479AE2F
:1097700030460393FFF7A2FC039B72E6B1683268A0
:10978000481CB0602B20EDE73268591CB16002F82C
:1097900003A0D6E901239342FFF4BCAE3046FFF7A5
:1097A0008DFCB368B6E630460393FFF787FC039B56
:1097B0002022002D7FF47BAF65E730460393FFF74F
:1097C0007DFC039B3022C2E701202EE69B463BE74F
:1097D000B8EE0200CDCCCCCCFFF70EBC2DE9F041A9
:1097E000058A0331043D4E198046B6FBF5F6FFF7B6
:1097F00021FCA0B3F6B24FF48073013E044683808F
:10980000C580C0F800802BD00346002508E06279AF
:10981000AE4202F1010262713860C0F800801FD0D0
:1098200040461F46FFF706FC013503460028EED1EF
:109830006779791E17D02246013399421268FBD10D
:10984000D2F800805FB12668002501E03446366812
:10985000214640460135FFF715FCAF42F6D80024FB
:109860002046BDE8F08120682146FFF70BFCF6E7B3
:1098700001210430FFF790BB2DE9F041012104469E
:109880000430FFF795FB10F0FF0301D0BDE8F08135
:109890006779791E16D02246013399421268FBD1AE
:1098A000D2F80080002FF1D02668002501E0344670
:1098B0003668214640460135FFF7E4FBAF42F6D853
:1098C000BDE8F08120682146BDE8F041FFF7DABB32
:1098D0002DE9F8438846C788417907FB01F104392F
:1098E00002EB030C1E1D6145154638BFCD1AB74269
:1098F0000446B6FBF7F207FB126002D8013A24686F
:10990000FCD13E1AAE4228BF2E469DB14FF0000951
:109910000430AD1B324608EB0901204404F026F860
:10992000AF42B14424683E464FF0000028BF2E46A7
:10993000002DEDD1BDE8F8832DE9F8430446C78832
:10994000407907FB00F0043802EB030C1E1D604554
:10995000154638BFC51AB7428846B6FBF7F107FB74
:10996000116202D801392468FCD1BE1AAE4228BF68
:109970002E469DB14FF00009111DAD1B324621440A
:1099800008EB090003F0F2FFAF42B14424683E4601
:109990004FF0000228BF2E46002DEDD1BDE8F88320
:1099A00041DF7047064A074B10B5002414701C6055
:1099B000BFF35F8F0449054800F042F8204610BD10
:1099C000183300201C330020D4EE02001033002096
:1099D00000B583B000230DF107008DF80730FFF7C5
:1099E00055F8F1EE103A23F09F03E1EE103ABFF381
:1099F0005F8F0B4B4022C3F884219DF80700FFF7CF
:109A00006BF803F0CBFD28B920BF40BF20BF03B0E7
:109A10005DF804FB03B05DF804EBFFF7C1BF00BFC6
:109A200000E100E08268002393608268136182682D
:109A300053618268D36082685360826813607047A4
:109A400001600B6843604A68934204BF002343608F
:109A5000704700BF436843B1026891680B4443609C
:109A60005268934204BF00234360704770B5446856
:109A7000064620680D4618B908E02468206828B119
:109A8000B368294698470028F7D1206828602560E8
:109A900070BD00BF4368186808B102681A6070475B
:109AA00043681868704700BF4368186818B908E031
:109AB0000346006828B18142FAD10A681A60012081
:109AC000704770471049A1F5947205E052F83330A1
:109AD000984238BF61460CD2A1EB020C4FEADC730E
:109AE00003EBEC035B10914202EBC30CEED807488A
:109AF000704702D90CF10802EEE7DCF80400034BD2
:109B0000002808BF1846704714F40200D8F202007B
:109B100070B5161E07DD0C468D1914F8010BFEF703
:109B20007BFFA542F9D1304670BD00BF10B50C4691
:109B30002046FEF745FF0528FAD0012010BD00BFE2
:109B400010B44FF08053D3F83021082A23D0844A30
:109B5000D2F8883043F47003C2F88830BFF34F8FD7
:109B6000BFF36F8F4FF08053D3F83021082A00F0F5
:109B7000B3804FF01023D3F80022002AC0F2BF8038
:109B8000D3F80432002BC0F2BA80764B764A1A60C2
:109B90005DF8044B70474FF080410020C1F80C0184
:109BA000724AC1F81001C1F83805D3F80414C2F89C
:109BB0002015D3F80814C2F82415D3F80C14C2F8F1
:109BC0002815D3F81014C2F82C15D3F81414C2F8C1
:109BD0003015D3F81814C2F83415D3F81C14C2F891
:109BE0004015D3F82014C2F84415D3F82414C2F851
:109BF0004815D3F82814C2F84C15D3F82C14C2F821
:109C00005015D3F83014C2F85415D3F83414C2F8F0
:109C10006015D3F83814C2F86415D3F83C14C2F8B0
:109C20006815D3F84014C2F86C15D3F83411D3F882
:109C30004434C2F87035052942D84D4B5B5C1BB1EA
:109C40004C4B4D4AC3F88C264C4B5B5C73B14FF0C8
:109C500080534B49D3F83021FB20C1F81805082A5E
:109C6000D3F834117FF473AF052929D8454B5B5CD9
:109C7000BBB14FF080524FF08040D2F85832D0F84C
:109C8000E41ED2F8304121F00F0103F00F030B4323
:109C9000C0F8E43E082CD2F834117FF458AF0529FF
:109CA0000ED8394B5B5C5BB14FF08053374AD3F829
:109CB00030314FF40071082BC2F840167FF447AFE3
:109CC0004FF08043D3F80024D2077FF540AF6FF008
:109CD0000102C3F800243AE7D3F83431052B08D940
:109CE0004FF010224FF08043D2F80822C3F85825D5
:109CF0003FE7274AD35C002B3FF43BAFF0E7254A10
:109D00000123C2F80435D2F80034002BFBD04FF009
:109D1000102312211F4AC3F80012D2F80034002B7E
:109D2000FBD04FF0102312211A4AC3F80412D2F8C4
:109D30000034002BFBD000231649C2F80435D1F8BB
:109D40000034002BFBD0BFF34F8F0549124BCA687C
:109D500002F4E0621343CB60BFF34F8F00BFFDE717
:109D600000ED00E02C2B00200090D00300C000404C
:109D70001CF4020000500040488103001CF4020063
:109D800000F000401CF402001CF4020000900240AD
:109D900014F4020000E001400400FA05074B1B5CCC
:109DA0001F2B8ABF064A4FF0A04203F01F03D2F8D0
:109DB0000405D840C04300F00100704724F40200BD
:109DC00000030050064B1A5C1F2A86BF054902F0AB
:109DD0001F024FF0A04101239340C1F80C3570479A
:109DE00024F4020000030050064B1A5C1F2A86BFB1
:109DF000054902F01F024FF0A04101239340C1F832
:109E00000835704724F40200000300504FF0A043CF
:109E100010B44FF4807240240749C3F808454FF44A
:109E20000070C3F808254FF48052C1F80805C3F844
:109E300008255DF8044B7047000300504FF0A04325
:109E400010B44FF4807240240749C3F80C454FF416
:109E50000070C3F80C254FF48052C1F80C05C3F80C
:109E60000C255DF8044B7047000300500A4B185C4A
:109E70001F288ABF09494FF0A04100F01F00D1F808
:109E800004350122824022EA03001340C1F808058C
:109E9000C1F80C35704700BF24F4020000030050E5
:109EA000034BD3F810056FEA901000F001007047E3
:109EB00000030050263818BF4FF0FF30704700BF36
:109EC00026207047C30706D4830742BF2F4B0C22BE
:109ED000C3F81827704710B44FF08043D3F84036CA
:109EE000DA0723D44FF0A043284903224024C3F8C3
:109EF0001827C3F82027C1F82427C3F83027C3F850
:109F000008454FF400724FF48074C3F80845C1F857
:109F100008254FF480528107C3F8082503D51B4B51
:109F20000C22C3F818275DF8044B70474FF010233C
:109F3000D3F8043303F00703072BD3D1144A0123CA
:109F4000C2F80435D2F80034002BFBD04FF01021BA
:109F50000020D1F804330E4C23F0070343F0040330
:109F6000C1F80433C2F80405D4F80034002BFBD048
:109F7000BFF34F8F0749084BCA6802F4E0621343EE
:109F8000CB60BFF34F8F00BFFDE700BF0003005061
:109F900000E0014000ED00E00400FA0510B568B9EA
:109FA0000E4CA368012262703BB1D3E9002300206C
:109FB000A2609847A368002BF7D110BD0128FCD1FF
:109FC000064C2369A070002BF7D0D3E900230120B1
:109FD000226198472369002BF7D110BD2033002060
:109FE00070B910B5074CA368012262703BB1D3E988
:109FF00000230020A2609847A368002BF7D110BD72
:10A00000704700BF2033002030B5012883B004D052
:10A01000032821D0B0B103B030BD294C00230DF18D
:10A0200007008DF80730FEF731FD23786BB3E36846
:10A030009DF8070001221344E360A270FEF74CFD77
:10A0400003B030BD1F4B0122C3F88020BFF34F8FF8
:10A05000BFF36F8F03B030BD194C00F045F80023FB
:10A060000DF107008DF80730FEF710FDE368013BA6
:10A07000E360E3681BB9144BD3F80054C5B19DF8F5
:10A080000700FEF729FD03B030BD10486360A360F0
:10A090002361E36000F01CF803F080FA60B10A4A23
:10A0A00001232370D2F80024002AC0D0A370BEE799
:10A0B00000F02CF8A570E2E700F016F8EFE700BF1B
:10A0C0002033002000E100E0000001409D9F0200DD
:10A0D000044A137923B90121106091801846704712
:10A0E0008520704738330020074B1A68D20704D404
:10A0F000C02283F8002301221A604FF0804301221E
:10A10000C3F81825704700BF00E100E04FF080421F
:10A1100002210023C2F8081382B0C2F80431D2F839
:10A120000431019301230199D360D2F81834DB0381
:10A13000FBD402B0704700BF10B54FF0804382B02F
:10A14000D3F8002162B10021164AC3F80011D3F8F8
:10A150000011507900910121009CC3F80813A8B1A7
:10A160004FF08043D3F80421CAB10022C3F8042180
:10A17000D3F80421019202210A4A0198C3F8081376
:10A180001368012002B0BDE81040184713685171F0
:10A1900098474FF08043D3F80421002AE5D102B05C
:10A1A00010BD00BF3833002030B5284C94F86A3019
:10A1B00083B0002B46D14FF6FF704FF0FF0C5A09C9
:10A1C000012A18BF4FF0FF3103F01F0208BF0146FC
:10A1D00021FA02F2D20748BFE21803F1010348BF97
:10A1E00082F830C0302BEAD14FF0FF304FF0FF3112
:10A1F0004FF0FF33C4E90001062200211448236612
:10A20000C4E90233C4E90433C4E90633C4E90833BA
:10A21000C4E90A3303F0B8FB0E4BC02283F80623CF
:10A2200040221A600C4B0020C3F87C01D3F87C213B
:10A23000019201214FF00042019D84F86A10C3F899
:10A24000042300E0082003B030BD00BF40330020ED
:10A25000A433002000E100E000600040034B93F8CD
:10A260006A00003818BF0120704700BF403300204B
:10A2700070B57D4B03EB000E9EF930C0BCF1000FB2
:10A2800001DB082070BD91F802C01CF0020FCCF376
:10A2900040055DD11C6A013400F0DF805C6A013446
:10A2A00000F0D1804FF00C0E4FF00A0C53F82C4008
:10A2B000013459D00CF10104744547D253F824609D
:10A2C000013600F0B8800CF1020474453ED253F818
:10A2D0002460013600F0AF800CF10306764535D2DC
:10A2E00053F8264001343ED00CF1040676452DD2B9
:10A2F00053F82640013436D00CF10506764525D2B8
:10A3000053F8264001342ED00CF1060676451DD2B6
:10A3100053F82640013426D00CF10706764515D2B5
:10A3200053F8264001341ED00CF1080676450DD2B4
:10A3300053F82640013416D00CF1090CF44505D22F
:10A34000DC6A013408BF4FF00B0C0DD0042070BD47
:10A350001C68013471D05C6801347BD04FF0080E6A
:10A360004FF0020CA2E7B44643F82C201A184FFA1B
:10A370008CFE82F830E015B99C448CF858008A783D
:10A3800054071CD4D50747D51F2887BF374A00F08C
:10A390001F0404464FF0A04202EB8402D2F80047AB
:10A3A00024F00204C2F80047314DC40800F0070C45
:10A3B0002E5D012202FA0CF232432A558A7812F0FD
:10A3C00002021CD04FEA8E0303F1804303F5C04321
:10A3D0000978D3F8104524F44F3424F44074C3F8BA
:10A3E000104502020904D3F8100501F4403102F4CB
:10A3F0007C520A430243C3F81025002070BDAEF121
:10A40000080E43FA8EF30C7893F86010104641EA78
:10A41000841283F8602070BD1F284C7887BF134DCD
:10A4200000F01F0202464FF0A04502F5E072A400C2
:10A4300045F82240B8E7A44696E71A6000228EF855
:10A44000302096469BE74FF0090C8EF830C05A62D8
:10A45000E64691E74FF0010C86E74FF0080C8EF8C6
:10A4600030C01A62E64687E7403300200003005000
:10A47000A433002030B4344C04EB000C82B09CF9BF
:10A480003030072B24DD083B44FA83F393F8603027
:10A490009B09032B47D0012B0CBF4FF400324FF424
:10A4A00040321F288ABF294B4FF0A04300F01F0005
:10A4B00003EB8000D0F8003723F44033C0F80037B6
:10A4C000D0F800371A43C0F8002702B030BC7047FC
:10A4D000DAB2072AF9D8980000F1804003F140026F
:10A4E00000F5C04052B29200D0F8105592B202F17D
:10A4F000804202F5C04245F00105C0F81055002029
:10A50000106012680192019A0029DED09CF9302077
:10A5100054F82220002AD8D00D49012202FA03F370
:10A52000C1F80433D1E71F288ABF084A4FF0A04280
:10A5300000F01F03D2F8102598BF0346DA4002F05E
:10A54000010202321204ACE7403300200003005045
:10A55000006000401F288ABF054B4FF0A04300F069
:10A560001F00D3F8103523FA00F000F00100704707
:10A57000000300502DE9F047002384B0CDE90233F9
:10A580001C4AD2F80011012900F030821E46194BF6
:10A59000D3F80421012A00F01A82164BD3F80821BF
:10A5A000012A00F00582134BD3F80C21012A00F098
:10A5B000F081104BD3F81021012A00F0DB810D4B04
:10A5C000D3F81421012A00F0C1810A4BD3F81821D5
:10A5D000012A00F0AC81074BD3F81C21012A0BD0D3
:10A5E000044BD3F87C21012A00F0218256BB04B031
:10A5F000BDE8F08700600040D3F804231206EFD5D1
:10A600000022C3F81C21D3F81C110091D3F87C114F
:10A610000098012946F0800614D1C3F87C21D3F8B4
:10A620007C3101934FF0A042019BD2F82015CF4B13
:10A630000291C2F82015D3F820250392C3F82025F3
:10A6400046F00046CA4F00240125A30003F18043D1
:10A65000354203F5C0434FEA45050BD0D3F810054A
:10A6600057F82420D3F81015C0F30520C1F3014199
:10A6700002B190470134082CE7D1002EB7DABC4C68
:10A68000BA4E01254FF0A04794F96000431C48D012
:10A69000C0F3C20202F110030DEB030200F0070346
:10A6A00012F8082C05FA03F31A42C1B200F03F0079
:10A6B00037D01F2800F22B8102464FF0A04909EB4A
:10A6C000820305FA02F2D3F800C7D3F800E72EF4AC
:10A6D000403EC3F800E704EB000ECCF3014C9EF9BA
:10A6E00030E0D3F800A754F82E80BCF1020F0CBF65
:10A6F0004FF4403E4FF4003E4EEA0A0EC3F800E726
:10A70000C9F82025B8F1000F0BD08909032900F002
:10A710008281BCF1020F00F07B81BCF1030F00F0DD
:10A72000A68194F96100411C48D0C0F3C20202F135
:10A7300010030DEB030200F0070312F8082C05FAD2
:10A7400003F31A42C1B200F03F0037D01F2800F2D5
:10A75000E28002464FF0A04909EB820305FA02F2BB
:10A76000D3F800C7D3F800E72EF4403EC3F800E763
:10A7700004EB000ECCF3014C9EF930E0D3F800A7B7
:10A7800054F82E80BCF1020F0CBF4FF4403E4FF442
:10A79000003E4EEA0A0EC3F800E7C9F82025B8F1DA
:10A7A000000F0BD08909032900F03A81BCF1020F98
:10A7B00000F03381BCF1030F00F05D8194F9620079
:10A7C000421C48D0C0F3C20202F110030DEB030299
:10A7D00000F0070312F8082C05FA03F31A42C1B27D
:10A7E00000F03F0037D01F2800F2998002464FF05A
:10A7F000A04909EB820305FA02F2D3F800C7D3F8A7
:10A8000000E72EF4403EC3F800E704EB000ECCF363
:10A81000014C9EF930E0D3F800A754F82E80BCF12B
:10A82000020F0CBF4FF4403E4FF4003E4EEA0A0EBA
:10A83000C3F800E7C9F82025B8F1000F0BD089094B
:10A84000032900F0F280BCF1020F00F0EB80BCF1B4
:10A85000030F00F0088194F96300431C47D0C0F354
:10A86000C20202F110030DEB030200F0070312F81D
:10A87000082C05FA03F31A42C1B200F03F0036D0AB
:10A880001F2850D802464FF0A04909EB820305FA71
:10A8900002F2D3F800C7D3F800E72EF4403EC3F825
:10A8A00000E704EB000ECCF3014C9EF930E0D3F846
:10A8B00000A754F82E80BCF1020F0CBF4FF4403EAD
:10A8C0004FF4003E4EEA0A0EC3F800E7C9F820250F
:10A8D000B8F1000F0BD08909032900F09780BCF173
:10A8E000020F00F09080BCF1030F00F0B880D7F8A1
:10A8F00020250292C7F82025D6F820350393C6F804
:10A90000203513437FF4C0AE04B0BDE8F08701F0FA
:10A910001F02B146D3E601F01F02B1461CE701F069
:10A920001F02B14665E701F01F02B146ADE7D3F85B
:10A93000042351067FF54FAE0022C3F81821D3F847
:10A9400018310093009B46F0400644E6D3F80423F8
:10A9500090067FF53AAE0022C3F81421D3F81431E3
:10A960000093009B46F020062FE600BF0003005036
:10A9700040330020D3F80423D4067FF520AE002214
:10A98000C3F81021D3F810310093009B46F0100655
:10A9900015E6D3F8042315077FF50BAE0022C3F8A4
:10A9A0000C21D3F80C310093009B46F0080600E61A
:10A9B000D3F8042357077FF5F6AD0022C3F808212A
:10A9C000D3F808310093009B46F00406EBE5D3F87A
:10A9D000042392077FF5E1AD0022C3F80421D3F8E8
:10A9E00004310093009B46F00206D6E5D2F80463DA
:10A9F00016F001063FF4CBADC2F80031D2F80031B9
:10AA00000093009BC3E501297FF471AFC0476EE757
:10AA100001297FF486AEC04783E601297FF4CEAEDC
:10AA2000C047CBE601297FF416AFC04713E70022E9
:10AA3000C3F87C21D3F87C3101934FF0A042019BF5
:10AA4000D2F820150E4B0291C2F82015D3F820251C
:10AA50000392C3F82025002E3FF411AEF0E5022941
:10AA60007FF445AFD2E702297FF4F5AEDDE7022996
:10AA70007FF457AECFE702297FF4A0AED0E700BF46
:10AA800000030050014B1B68184700BFAC33002087
:10AA90002DE9F041334C90F804E02C2303FB0E43E6
:10AAA0008446586984B000284ED15A619960186272
:10AAB00083F82800DCF80020C2F81C01D2F81C2121
:10AAC0000292029ADCF8002001219160DCF800205B
:10AAD0009D68C2F81C01D2F81C1101910199196AF4
:10AAE0006E5C196A01311962C2F81C655A6812B1AC
:10AAF00004B0BDE8F0815E691A6ADCF80010964285
:10AB00001BD9074602E093F828200ABBD1F81C2184
:10AB1000002AF8D0C1F81C71D1F81C210392039AC5
:10AB20001A6A15F802801A6A01321A62C1F81C8585
:10AB30001A6A9642EAD8DCF80010D1F81C31002BD2
:10AB4000FBD00123CB6004E0112004B0BDE8F0810C
:10AB50000F202C2303FB0E440023636104B0BDE8E7
:10AB6000F08100BFB83300200279044B2C2101FB97
:10AB700002335869003818BF01207047B8330020ED
:10AB800030B5554D90F804E02C2303FB0E5387B0ED
:10AB90005C68844624B103684FF40170C3F808036D
:10ABA0002C2303FB0E53986998B1D869002840F014
:10ABB00083801961DA612C2202FB0E52536853B371
:10ABC000DCF800304FF40172C3F80423002007B012
:10ABD00030BD9A61D9605862D86193F82930002B52
:10ABE000E9D1DCF80020C2F82431D2F82421019206
:10ABF000DCF800200199C2F80831D2F8083102933C
:10AC0000DCF80030029901221A602C2202FB0E525D
:10AC10005368002BD4D1DCF80010C1F84431D1F8CE
:10AC200044310393039BDCF80030D3F82411D3F8AC
:10AC30000841D3F8440154B9002834D10029F4D094
:10AC40002C2303FB0E550023AB610320BFE7002933
:10AC5000F6D150BB9169C3F8080181B1D3F808114E
:10AC600004910499D468516AD3F818356354536A2F
:10AC7000916901335362536A9942D4D806E0D3F8FC
:10AC8000081105910599D3F81835536A2C2303FB55
:10AC90000E55002295F82930AA61B3B1DCF80030D6
:10ACA00001221A6093E70029CAD12C2303FB0E5519
:10ACB0000023AB610F208AE764B1DCF800304FF469
:10ACC0000172C3F80423112081E7DCF8003001226F
:10ACD0005A607CE711207AE7B833002001F0604C1D
:10ACE000BCF1005F30D170B590F804E0264C0EEB5B
:10ACF000CE0C04EB8C0C0346DCF8140082B04FEA57
:10AD0000CE0500283BD1CCF81420CCF808101A68E6
:10AD1000C2F82001D2F820210192019A1A68C2F8E3
:10AD20005801D2F858210092009A1A68DCF8146091
:10AD3000C2F84415C2F848651A6801219160DCF830
:10AD400004201AB102B070BD102070471A6800E0EC
:10AD5000C0B9D2F82011D2F858010029F8D088B92A
:10AD60000121D1601B68D3F85821002AFBD005EBE4
:10AD70000E0304EB830300225A6102B070BD112060
:10AD800002B070BD0F20F2E7E83300200379054AD6
:10AD900003EBC30302EB83035869003818BF01209B
:10ADA000704700BFE833002001F06043B3F1005F5B
:10ADB00062D1F0B490F804C0484C0CEBCC0304EB27
:10ADC000830382B05E684FEACC0326B105684FF476
:10ADD0000477C5F80873634404EB83039D695DBB86
:10ADE0009A61DD61D9600368C3F81051D3F810315E
:10ADF0000193019B0368C3F84451D3F84431009395
:10AE00000368009DC3F83415C3F838250368012290
:10AE10001A6090F804C00CEBCC0304EB83034FEAF8
:10AE2000CC055B6853B303684FF40472C3F8042382
:10AE3000002002B0F0BC7047DD69002D37D11961E8
:10AE4000DA610368C3F81051D3F810310193019B04
:10AE50000368C3F84451D3F8443100930368009D5C
:10AE6000C3F83415C3F838250268D2F8003243F02D
:10AE70002003C2F80032CCE710207047036801E0DD
:10AE8000E9B910BBD3F81021D3F84411D3F8240149
:10AE9000002AF5D0654400284FF0000304EB850438
:10AEA00018BF03209942A36118BF0F20C1E796B1D4
:10AEB00003684FF40472C3F804231120B9E7654412
:10AEC00004EB85040F20A261B3E7654404EB85041D
:10AED0000320A161ADE71120ABE700BFE8330020FC
:10AEE0000220FEF7C3BF00BF2DE9F04105460C4626
:10AEF000FEF7E0FF20B9012C1AD0022C15D00CB1BE
:10AF0000BDE8F0811448FDF71BFD144A144B9478FA
:10AF10001B78A342F4D1002CF2D0124B1B68002BFB
:10AF2000EED02046BDE8F04118470C4B5C78F2E7C4
:10AF30000A4E737834781BB9094BB2781A70EAE775
:10AF4000094F05483A464FF48041FDF79DFC002823
:10AF5000F2D13D70F0E700BF502B002010340020EC
:10AF6000243400201C3400200C34002010B500785C
:10AF7000FEF7A0FF40B9054B587828B1044B1B6879
:10AF800013B1BDE81040184710BD00BF10340020B9
:10AF90001C34002038B5BA4D2B7804466BB1B94B40
:10AFA0001B7800202870002B4DD0FEF71DFF0120DC
:10AFB000FEF71AFF0320FEF717FF172C00F25E8141
:10AFC000DFE814F0EB00630063009F00AC00B90001
:10AFD000CB00970050004400500044007A00180055
:10AFE0001800180018001800D9001801810000018D
:10AFF0005C005C00A448FDF7A3FCD4F111040546F5
:10B0000000F02681002840F02381012C14D0C823B1
:10B0100003FB04F429464FF400434FF47A70C4FB59
:10B0200003014FF4FA62002303F0D6FC2A460146DE
:10B030009548FDF729FC05460220FEF7C3FE914B1B
:10B0400001221A701FE0FEF7E1FEB6E7012028702A
:10B05000FEF70CFFBDE838408C4800224FF4005149
:10B06000FDF712BC01202870FEF700FFBDE8384054
:10B070008648002240F26661FDF706BCFEF7DEFE60
:10B08000834B00251C70284638BD0020FEF786FE45
:10B09000002840F0C380FEF795FE40F6CD4141F612
:10B0A0009A13022C18BF1946794B1C70BDE8384022
:10B0B00076480022FDF7E8BBFEF7C0FE744B0C2279
:10B0C0001A700025DFE76F4B1B78002B00F0D38050
:10B0D0000020FEF789FE0120FEF786FE0320FEF722
:10B0E00083FE0120FEF76EFE694B14221A700025C4
:10B0F000C9E70020FEF766FE654B07221A7000259F
:10B10000C1E70020FEF74AFE002840F09B80FEF7D2
:10B1100059FE40F6CD415E4B0324C6E70020FEF702
:10B120003DFE002840F08880FEF74CFE41F69A1163
:10B13000574B0424B9E70020FEF730FE002877D1F2
:10B14000FEF740FE524B514805241C70BDE83840C4
:10B15000002240F6CD41FDF797BB0020FEF786FEAA
:10B160004B4B4A4806241C70BDE83840002240F290
:10B170006661FDF789BB434B1B78002B78D000201C
:10B18000FEF732FE0120FEF72FFE0320FEF72CFE15
:10B190003F4B12221A70002575E73A4B1B78002BA3
:10B1A00060D00020FEF720FE0120FEF71DFE0320E8
:10B1B000FEF71AFE3548FDF7C3FB354B0022054666
:10B1C0001A7060E72F4B1B78002B48D00020FEF749
:10B1D0000BFE0120FEF708FE0320FEF705FE00200F
:10B1E000FEF7F0FD0120FEF7EDFD294B15221A7048
:10B1F000002548E7234B1B78BBB30020FEF7F4FD86
:10B200000120FEF7F1FD0320FEF7EEFD0020FEF722
:10B21000D9FD1F4B13221A70002534E70020FEF7DA
:10B22000E3FD022C47F2333118BF4FF480313BE786
:10B230000020FEF7D9FD85E70020FEF7D5FD4FF48D
:10B24000803175E70020FEF7CFFD43F2333162E72E
:10B250000220FEF7C9FD0B4B00221A7013E7FEF720
:10B26000D5FDBCE7FEF7D2FDA4E7FEF7CFFDCDE7A5
:10B27000FEF7CCFD8CE7FEF7C9FD32E7002502E7BB
:10B28000183400200D340020302B0020702B0020BB
:10B2900020340020044B1B68DB0700D47047034BAD
:10B2A0001878FFF777BE00BF143400202034002048
:10B2B00008B100207047FEF7F3BD00BF044B1B68C8
:10B2C00013F0010301D118467047FFF763BE00BFBA
:10B2D0001434002038B5214B214A196081070446F7
:10B2E000106004D410F0010534D1284638BD1D4B40
:10B2F0001D480E21197040F233320121FCF7CAFFBC
:10B30000054630B1E207F0D50120FEF7DBFD284607
:10B3100038BDFDF71BF805460028F3D10146134A56
:10B320001348FDF799FAE3070546DED50120FEF73D
:10B33000C9FD002DD9D10F4A0F480021FDF78CFA25
:10B3400005460028D1D1BDE838400C4A0C480121FF
:10B35000FDF782BA0120FEF7B5FDECE71C340020B2
:10B36000143400201034002054F402006DAF0200A9
:10B3700060F4020095B2020064F40200E1AE020043
:10B380005CF4020030B9012A06D0012912D002294A
:10B3900007D051B10720704701290AD0022902467F
:10B3A000F7D1064B00205A707047044B08469A703C
:10B3B00070470E22014B00201A7070471034002095
:10B3C00008B10620704708B5FEF77AFD1F2886BF32
:10B3D0000A4B00F01F004FF0A04303EB8003002056
:10B3E000D3F8002722F44032C3F80027D3F800270F
:10B3F00042F44032C3F8002708BD00BF00030050EC
:10B4000010B50388102B07D0112B04D1254B1868D9
:10B410000138186030B110BD224C216811B30131E0
:10B42000216010BD01220221FFF7ACFF40B10728C7
:10B4300006D01D4B1B68002BEDD0BDE8104018470F
:10B44000072202210120FFF79DFF08B10728F0D154
:10B4500000210A220846FFF795FF0028DBD00728C5
:10B46000E7D1D8E701220846FFF78CFF38B107285B
:10B4700005D00D4B1B6803B198472168CFE7072221
:10B4800002210120FFF77EFF08B10728F1D1042235
:10B4900002210020FFF776FF0028EED00728E8D130
:10B4A000EBE700BF2C3400202834002008B5002032
:10B4B000FFF786FF10B1062800D008BD0120FFF776
:10B4C0007FFF0028F9D0062808BF002008BD00BF74
:10B4D000184B10B5186031B101200C46FFF7E8FE9B
:10B4E000F8B102232370144B186808B1002010BD76
:10B4F00001220221FFF746FF08B10728F7D10722F2
:10B5000002210120FFF73EFF08B10728EFD10021FB
:10B510000A220846FFF736FF0028E7D00728E5D0C3
:10B5200010BDFFF7C5FE10B10B232370DBE72070C1
:10B53000D9E700BF283400202C34002076DF704784
:10B540007ADF70477CDF70477FDF70478FDF70479F
:10B55000B1DF704733DF7047FCF70EBF10B50388CB
:10B56000212B82B0044613D80F2B0FD9103B112B7F
:10B570000CD8DFE803F028400B500B0B0B0B0B0B28
:10B580000B0B0B0B0B0B0B1C3B2B05D002B010BD98
:10B59000522B4AD0562BF7D1A0881321FFF7CEFFAC
:10B5A0000028F3D002B0BDE81040FCF7E5BE002350
:10B5B0008088ADF8043001A9FFF7C8FF0028E5D066
:10B5C000FCF7DAFEE2E71F4B1F482049C01AC0080B
:10B5D000000440F00300FCF78DFA0720FFF76EFE31
:10B5E00000282CD11A4BA1881A48198001F078FD47
:10B5F0000028CBD0D6E7134B13481749C01AC00810
:10B60000000440F00300FCF775FA114B4FF6FF728F
:10B610001A8002B010BD0E4A0023108885211A46F8
:10B62000FFF792FF0028B1D0BCE7094A0023108839
:10B6300019461A46FFF78CFF0028A7D0B2E7FCF79F
:10B640009BFECFE7A4FB0200CCFB020068F40200E3
:10B65000962B00207039002074F4020008B503789E
:10B6600003B108BD054B3B211888FFF767FF002891
:10B67000F7D0BDE80840FCF77FBE00BF962B002046
:10B68000072808B51CD00A280ED0042800D008BD11
:10B69000154B13211888FFF751FF30F00803F6D03F
:10B6A000BDE80840FCF768BE0020FFF707FEB8B908
:10B6B000FFF7FCFE88B9FFF74DFF0028F0D108BD69
:10B6C000094A12884FF6FF739A42E0D1074800F00A
:10B6D000C9FF30F00803E3D108BDFCF74DFEEAE7EF
:10B6E000FCF74AFEE4E700BF962B0020243500203B
:10B6F000F0B5047883B00CB103B0F0BD06461E4827
:10B700001E4D02F049F931691D4802F045F9B78A2A
:10B7100031693A46284602F029F92F44194B07F8B7
:10B72000014C1988A81E234606E00D2A08D099422C
:10B7300006D00133F52BDFD010F8012F0A2AF4D1FF
:10B74000012BD9DD104F0D4E104D9CB23B88ADF84A
:10B7500006400DF106023146284601F059FE082840
:10B76000CAD01328F2D00528C6D00028C4D0FCF7D0
:10B7700003FE03B0F0BD00BF84F4020030340020AB
:10B78000B8F40200942B0020962B0020982B002068
:10B790000D4B4A881B889A4200D070470A8840F6B1
:10B7A00077239A42F9D1094A09488B880949801AB6
:10B7B000033B094AC0089BB20004138040F0030019
:10B7C0001A46FBF7D5BF00BF962B0020A4FB020052
:10B7D000CCFB0200C0F40200942B0020FCF7CCBD8F
:10B7E00008B530B1032803D10220FFF767FD50B937
:10B7F00008BDFFF763FD50B9FFF758FE68B9FFF7C2
:10B80000A9FE0028F4D0BDE80840FCF7B5BDFCF760
:10B81000B3FDFFF74BFE0028F1D0FCF7ADFDEEE7DE
:10B8200008B50B490B4801F02FFB28B90948F7214F
:10B8300001F042FB40B908BDFCF79EFD0548F72129
:10B8400001F03AFB0028F6D0BDE80840FCF794BDB3
:10B8500091B702005839002000B54FF48041AFB0D5
:10B860000020FBF705FE002840F0C080FBF7F0FD4C
:10B87000FCF7BCFF002840F0E38073490320FFF78A
:10B8800029FD002840F0D98002A90020FFF720FE02
:10B89000002840F0CF80FEF785F8002840F0C780F0
:10B8A00001F0EEFD002840F0BF80002302A9012036
:10B8B000029301F0CBFE002840F0B38002A801F013
:10B8C000A3FF002840F0AA80112360488DF80430BF
:10B8D00002F082F85D4982B201A8FFF733FE00282A
:10B8E00040F0998008220DEB0200002102F04CF894
:10B8F000574A4FF0C87302A8CDE90223FFF720FE94
:10B90000002840F08580FFF78BFF524B524802938E
:10B9100002A901F0D3FB002877D1042200210DEB0E
:10B92000020002F031F84D4B4D48019301A901F09E
:10B93000FDFC002866D1AC22002102A802F024F808
:10B940000123484A48492B92ADF854308DF8843091
:10B95000402244F25063CDE924234FF0020C1691AB
:10B960004FF4A06341488DF808C002A9ADF80A3031
:10B9700000F0AAFD002842D13C48012100F0A0FDC2
:10B980001C22002102A801F0FFFF4FF4A034002385
:10B990003749384AADF81630CDE902344FF0030C80
:10B9A0004FF4F02402A8CDE9071204948DF814C0D6
:10B9B0008DF8183000F0B4FFF0B92F4801F0ECFF1B
:10B9C0002E4B2F482F49C01AC008000440F0030036
:10B9D000FCF790F82548032100F0F8FD48B9FBF783
:10B9E00097FD0028FBD1FDF7F3FFF8E7FCF7C4FC57
:10B9F0003CE7FCF7C1FCF2E7FCF7BEFCDDE7FCF737
:10BA0000BBFCB9E7FCF7B8FC95E7FCF7B5FC84E7AD
:10BA1000FCF7B2FC77E7FCF7AFFC63E7FCF7ACFCA4
:10BA200052E7FCF7A9FC49E7FCF7A6FC3DE7FCF769
:10BA3000A3FC35E7FCF7A0FC2DE7FCF79DFC23E712
:10BA4000FCF79AFC19E700BF81B60200DCF40200A3
:10BA500010003C0059B5020070390020F1B6020018
:10BA6000982B0020E1B70200902B00202435002005
:10BA70005DB60200DDB70200E8F40200A4FB02009C
:10BA8000CCFB0200FCF402002DE9F04FDFF8A0919E
:10BA900000EB400609EBC60683B0F76A012F80462B
:10BAA0008B4692464FEA400407D0022F49D03FB35D
:10BAB0000027384603B0BDE8F08FB76A756AAF4219
:10BAC0007AD9013F7F1B366A574528BF5746721BFC
:10BAD00097427BD208F1010303EB430309EBC30355
:10BAE000594658683A46284401F040FF444409EB5F
:10BAF000C4093D443846C9F8245003B0BDE8F08F6E
:10BB0000B36A756AAB429CBF326A9B18013B5B1BF0
:10BB10009A45CED8044409EBC40400F10108266A12
:10BB2000771B08EB4808BA4509EBC8096ED2D9F86B
:10BB3000040052462844554401F018FF57466562F8
:10BB4000B7E700F1010808EB4808756A4FEAC80832
:10BB50000027B26AAA4202F1FF3422D9621B346A7A
:10BB6000524509EB0801A4EB050428BF5246944254
:10BB7000486828BF144628445946224601F0F6FE7C
:10BB8000336A25449D42AAEB040A2744A3440DD0FE
:10BB90007562BAF1000F8CD0B26AAA4202F1FF348A
:10BBA000DCD8346A2244013A521BD9E70025756279
:10BBB000BAF1000FCDD17CE7366A3744013F7F1BD5
:10BBC000574528BF5746721B974283D308F1010A95
:10BBD0000AEB4A0A09EBCA0A5946DAF8040001924C
:10BBE000284401F0C3FEBE1B019ADAF80400354474
:10BBF0000BEB02012A4601F0B9FE444409EBC409EB
:10BC00003846C9F8245003B0BDE8F08FD9F80400D5
:10BC1000284455443A46AD1B01F0A8FE0BEB070142
:10BC2000D9F804002A4601F0A1FE5746656240E7B4
:10BC30007C39002010B5114C114A12490220C4E988
:10BC400004001148C4E906204FF4007020620F4838
:10BC50000023C4E912201022E01DA3626362E362A4
:10BC6000A3656365E365226501F0AEFE08492046E1
:10BC700001F0AAFE2023A37110BD00BF7C39002073
:10BC800028F5020034F50200043A0020F4390020BF
:10BC900038F502006DDF704779DF70477DDF704750
:10BCA00064DF70472DE9F04F85B099460E9E0388FA
:10BCB000BDF83CA00091174632880192002B53D06A
:10BCC0004FF00008C3464546804605E0B8F800201E
:10BCD0000BF1010B5A4529DDD8F8041051F82B005F
:10BCE000039000220DF10B0103A8FFF7D9FF0446D2
:10BCF00030BB9DF80B20BA42E8D12DB33288D11960
:10BD0000514536DC4A440DF10B0103A80125FFF72C
:10BD1000C7FF002832D131889DF80B200A443280B9
:10BD2000B8F800200BF1010B5A45D5DCE5B133889A
:10BD3000019A013B9B1A9BB2FF2B1AD809F80230DB
:10BD4000204605B0BDE8F08F3288511C3A440232DB
:10BD5000524589B20DDC009B318009F801303288F0
:10BD6000013292B23280CDE70024204605B0BDE812
:10BD7000F08F0C24204605B0BDE8F08F0446204625
:10BD800005B0BDE8F08F00BF2DE9F047002317880C
:10BD9000138090F82D3086B0144606460D46002BD1
:10BDA00040F0FE80B278002A40F0F380F178A1B133
:10BDB000DA1CBA4200F2F0800222EA5423880122FF
:10BDC00013449BB22380EA54238813449BB22380FC
:10BDD000E954238813449BB223807268AAB1D91C0A
:10BDE000B94200F2D980022192F90020E954238857
:10BDF00001339BB20A212380E954238801339BB28B
:10BE00002380EA542388013323803389002B40F0B8
:10BE1000F180338A002B40F02581338B002B40F0DA
:10BE20003B81336A002B42D02088821DBA4200F247
:10BE3000B3801A88052A40F28A816FF4486802EBC1
:10BE4000080189B24FF27D3C614540F280815988FA
:10BE5000052940F27C816FF4486E8E441FFA8EFEF5
:10BE6000E64540F274814FF6FF7C624502D08A427B
:10BE700000F26D8105222A542288013292B21221E9
:10BE80002280A9542288013292B222801988A954B2
:10BE90002A44090A51702288023292B222805B88B9
:10BEA000AB542A441B0A5370238802332380736ADD
:10BEB000002B2FD09988B4F800C0881C0CF1020226
:10BEC0000244BA4268D8FE2866D8033105F80C103F
:10BED0002288013292B2FF212280A95422880132A5
:10BEE00092B222801988A9542A44090A51702088E4
:10BEF000023080B220809A8862B199680393002949
:10BF000000F02581284401F031FD039B9A882388A5
:10BF10001344238096F82C30002B40F0D6803078E4
:10BF200000283AD03388012B00F0118123889A1C15
:10BF3000BA4231D8012804D17178023119448F42B4
:10BF40002AD3023FFF1ABFB2A81804A9ADF8107097
:10BF5000FFF7A4FE08BB3378022B00F00081717854
:10BF6000BDF810209142C0F0F6809742C0F0F380F7
:10BF700017460922FE2F0FD82388791CE9542388FD
:10BF800001339BB22380EA54238801331F44278066
:10BF900003E00433BB4248D90C2006B0BDE8F0876B
:10BFA000082FF9D904A8FFF775FE0028F5D12388DA
:10BFB0000822EA54238801339BB21B222380EA54CF
:10BFC0002088013080B22080062228440DF1110122
:10BFD00001F0CCFC23889DF8102006339BB212F0B0
:10BFE000FE0218BF01222380EA54238801339BB24A
:10BFF0002380D7E606F108080222CDE900472B4648
:10C0000011464046FFF74EFE0028C6D1CDE9004755
:10C0100040462B4610220621FFF744FE0028BCD1E3
:10C02000338A002B3FF4F9AE1CE004A8FFF734FE7E
:10C030000028B2D123880322EA54238801339BB21B
:10C0400019222380EA542388BDF8102001339BB2C3
:10C050002380EA542B44120A5A70238802339BB27D
:10C060002380A3E606F11008CDE900472B46022203
:10C0700003214046FFF716FE00288ED1CDE9004788
:10C0800040462B4610220721FFF70CFE002884D1E2
:10C09000338B002B3FF4C5AE06F11808CDE90047FD
:10C0A0002B46022214214046FFF7FCFD00287FF4B6
:10C0B00074AFCDE9004740462B4610221521FFF70B
:10C0C000F1FD00283FF4ADAE67E7B16A00293ED02C
:10C0D0004FF000094B464FF0160A2BE02388E85436
:10C0E000238801339BB2238005F803A02388013302
:10C0F0009BB2238031F82220EA542B44120A5A7052
:10C100002088023080B22080B8F8042028444AB148
:10C11000D8F80810D9B101F029FCB8F80420238818
:10C120001344238096F82C205FFA89F39A427FF615
:10C13000F6AEB16A03EB430201EB820809F1010993
:10C14000B8F80430D81C0233FE2BC7D924E70720E7
:10C1500006B0BDE8F087012B08D008220AE7BDF839
:10C1600010309F42F9D31F46092203E78F42F4D3D0
:10C170000F460822FEE600BF00B301294FF000037E
:10C180000FDD00EB030C9CF801C0944509D010F8BA
:10C1900003C00CF1010C63449BB203F1010C614537
:10C1A000EFDC8B4209D2C25C3AB1013A92B222B1C1
:10C1B00002339BB21A44914201DA002070471844BE
:10C1C000704700BF72DF704773DF704774DF7047DE
:10C1D00070B5044600F2264681700D460722002104
:10C1E000304601F0D1FBE38813B1A378012B75D061
:10C1F000E379002B6FD194F82734002B7BD194F88E
:10C200002834002B77D194F82934002B73D194F87B
:10C210002A34002B6FD194F82B34002B6BD194F877
:10C220002C341A1E18BF01226B1E032B00F245810D
:10C23000DFE803F00206090CA379002B40F09E8092
:10C24000E379002B59D1237A002B6CD1657A002D2C
:10C2500057D1A570002384F82F3404F13C0518222F
:10C260000021284601F090FBE26A0123511E994209
:10C2700084F83C301DD9042A1BD094F8242084F87B
:10C280005130EAB1A36A5A1E012A31D9042B2FD0AA
:10C29000012384F85230A378002284F85020042B24
:10C2A00000F2FA80DFE813F041004B00AF00E50038
:10C2B000DC00D3B294F8242084F85130002AE1D174
:10C2C000A37884F85020042B00F2E680DFE803F026
:10C2D0002D378BA05F00A378022B8CD1636B002BD2
:10C2E00000F0E380012284F82D240820984782E79B
:10C2F00084F85230CFE7012296E7002AA3D0022526
:10C30000A7E70422636BA270002BA3D06279002AF6
:10C31000A0D094F82E24002A9CD10122A4F82F2426
:10C320000720984799E70322ECE7002384F831308F
:10C33000636B13B194F831009847002070BD00235F
:10C340000122C4E9106384F83120C4F820340222A9
:10C35000802384F83C20A4F8483000212A4604F1C8
:10C360005400FFF72FFF0028E8D194F8301094F81C
:10C370005400FFF729FF0028DAD070BD94F824306C
:10C38000002B7FF45DAF002A3FF45DAF61E7D4E995
:10C3900007126164A4F848206279002A7FD094F8DB
:10C3A0002E24002A7BD194F83024002A77D002234F
:10C3B000B4F81414D4F8100484F850300122FFF7B4
:10C3C000DBFE08B10423037004F582662A46314679
:10C3D00004F15400FFF7F6FE002869D10622A37885
:10C3E00084F8312053E0022384F83130032223699A
:10C3F000A4F84830E36884F83C200022C4E91063C4
:10C40000C4F82024A9E7022384F831300722EEE79C
:10C41000D4E905126164A4F84820627992B394F8D3
:10C420002E247ABB94F8302462B30223B4F8141497
:10C43000D4F8100484F850300122FFF79DFE08B1B3
:10C440000423037004F582662A46314604F1540041
:10C45000FFF7B8FE60BB0522A37884F8312016E010
:10C46000D4E90712A4F848200622616484F83C202D
:10C4700092E7D4E90512A4F848200622616484F802
:10C480003C20CAE7032284F8312004F58266C4F810
:10C490002064002B3FF44CAFD4F820145EE7042254
:10C4A00084F8312004F58266F1E784F82D34A2E6A1
:10C4B000A378002B3FF43CAFEEE70023A370C9E65E
:10C4C00080F83010704700BF00297AD02DE9F04184
:10C4D0000446002877D091F87A300D462BB191F8B8
:10C4E000983013B10720BDE8F0810027A77005F14F
:10C4F000780EBEE80F0004F1040CACE80F00BEE8B3
:10C500000F00ACE80F009EE807008CE8070084F8F5
:10C510003070D5F8A4306363D5F8A830A3634FF624
:10C52000FF7804F5826639460722C4F82064A4F82F
:10C53000248404F2264001F027FA23780BB984F80A
:10C54000548094F82430002B14BFEE231F2304F1F1
:10C550005501C4F81014A4F8143404F21442284607
:10C56000FFF712FC0028BED194F82430002B14BF32
:10C57000EE231F2304F23121C4F81814A4F81C344C
:10C5800004F21C4205F13C00FFF7FEFB0028AAD193
:10C59000D4E905230125A4F848304FF48073C4E999
:10C5A0001002014684F83C5004F13C0204F15400AE
:10C5B000A4F85030FFF706FE002894D12570BDE89E
:10C5C000F0810E2070470E208DE700BF03780BB17D
:10C5D000FFF7FEBD0820704710B50388112B0C46ED
:10C5E0000BD0262B22D0102B00D010BDC37B012BEB
:10C5F000FBD18388A1F8243410BD002381F82E34A8
:10C600008288B1F824349A42EFD10B79002BECD117
:10C610000B7813B301212046FFF7DAFD0028E4D0A0
:10C62000A36B002BE1D0BDE810401847037A013B13
:10C63000012BDAD80B7883B18978094B0131A3FB40
:10C64000012303F4FE7202EB9303C91AC9B2204618
:10C65000FFF7BEFD0028E3D110BD0820E0E700BFD2
:10C66000CDCCCCCC38B5044690F85400FFF7AEFDE5
:10C6700000230122B4F81414D4F8100484F82E24F2
:10C6800084F8303484F85030FFF776FD08B1062383
:10C69000037004F13C0204F5826104F15400FFF7D9
:10C6A00091FD054648B923784BB1A1782046FFF7A4
:10C6B0008FFD10B1A36B03B19847284638BD082001
:10C6C000F8E700BF75DF704776DF70477ADF7047A5
:10C6D0007BDF704770B51D4D2B8884B2A34282B0BA
:10C6E00011D11B4E297A327B91420ED3337C00222A
:10C6F0002A72F3B9736933B100228DF80420ADF8C2
:10C70000064001A8984702B070BD05F10A0118461D
:10C71000FFF7D8FF40B11128F5D0B369002BF2D054
:10C7200002B0BDE8704018472B7A01332B7202B07B
:10C7300070BD3B212046FFF7C7FF30F00803D9D07A
:10C74000B369002BD6D09847D4E700BF203C002027
:10C75000043C002070B50288122A82B003466DD0D6
:10C7600015D8102A30D0112A0FD16A4C828823881C
:10C770009A420AD16068FCF7E3F818B1664B9B69EE
:10C7800003B198474FF6FF73238002B070BD502A63
:10C79000FBD1614DC188EA899142F6D1028A022A11
:10C7A000F3D15C4C828826889642EED1123000F09C
:10C7B000DFF9002800F09880637A002B40F09B801E
:10C7C000D5E90113324667E090F80FC0BCF1010FC4
:10C7D000DBD1504C21884FF6FF7291427DD14F4DF5
:10C7E000828822800021217203CDC4F80A00C4F897
:10C7F0000E10598A6089884260D8A08988425DD32A
:10C80000E1899B8A40F2F315A94294BF481A481B5C
:10C81000984253D82944994250D33F4D84F809C0D7
:10C82000EB89002BB1D16B69002BAED001218DF8C3
:10C830000410ADF8062001A89847A6E7354C828879
:10C8400021889142A1D14089658985421FD8A58957
:10C8500085421CD3E0899B8940F2F31C604594BF5C
:10C86000051AA0EB0C059D4211D8604498420ED3E6
:10C87000294B5B694FF480722281002B85D0012205
:10C880008DF80420ADF8061001A898477DE7224DE9
:10C89000002363726968AB68207A002818BF1946C4
:10C8A0006068FBF7F1FF00283FF46FAFAB69002B26
:10C8B0003FF46BAF02B0BDE870401847164DEB89EE
:10C8C00000216172002B7FF460AF69686068FBF73C
:10C8D000DBFF00283FF459AFE8E70F4B9B69002BC3
:10C8E0003FF453AF0420E5E76068FCF729F800281F
:10C8F0003FF44BAFDAE76B6900222272002B3FF462
:10C9000044AF01228DF80420ADF8066001A89847D5
:10C910003BE700BF203C0020043C0020343C0020CA
:10C9200070B3F8B586460768164E174D0446BEE844
:10C930000F00B446ACE80F009EE8070035608CE8B5
:10C940000700BFB13846FFF7C1FE90B923681868E9
:10C95000596803C50D4B0E490E4A18464FF6FF7431
:10C9600040F8041F1C800021FBF776FF002818BF49
:10C970000320F8BD2846FFF7ABFE0028EAD0F8BD3B
:10C980000E207047043C0020343C0020203C002056
:10C99000403C0020D5C602002DE9F04F0388B0F8D6
:10C9A0000490103B99B007460A2B12D8DFE803F039
:10C9B00028711111111111111178140046484946BE
:10C9C000FCF7A6FA45484946FCF7A2FAFB7B022B86
:10C9D0007CD019B0BDE8F08F037A41483F2B4FEA75
:10C9E0001314494665D9FCF793FA3E484946FCF7CB
:10C9F0008FFA3D48494619B0BDE8F04FFCF788BAB8
:10CA00003A4A9368DB43009351686846FCF7B8FAEA
:10CA1000009B0193019B9BB34FF0000844462146C5
:10CA200001A8FCF78DFA30B118AB03EB480308F10D
:10CA3000010823F8284C0134142CF0D1CDF83480AF
:10CA40000DAD0FCD02AC0FC40FCD0FC495E807009C
:10CA500084E80700B8F1000F12D0254E0DF10A0B43
:10CA60004FF0000A3BF8025F1C4C20462946043474
:10CA7000FCF75AFAA642F8D10AF1010AC245F1D1EF
:10CA8000B9F1130F9AD90420FBF776FC19B0BDE871
:10CA9000F08F1148494619B0BDE8F04FFCF744BA91
:10CAA000037A002B95D1437A0D481B074946F2D5EE
:10CAB000A1E7FCF739FA032C97D00A484946FCF75E
:10CAC00033FA022C95D008484946E4E7094849461C
:10CAD000FCF71EFA7DE700BF683C0020643C0020A4
