:020000022000DC
:1070000000000420BD720200E5720200E772020077
:10701000E9720200EB720200ED7202000000000053
:10702000000000000000000000000000EF720200FD
:10703000F172020000000000F3720200F57202001B
:10704000857E0200F7720200D1870200F77202000B
:10705000F7720200F7720200C1820200F7720200AA
:10706000F7720200F7720200F7720200F772020074
:10707000F772020005890200F7720200F77202003F
:10708000F7720200E9A30200F7720200F772020031
:10709000F7720200F772020065F50200F772020053
:1070A000F7720200F7720200F7720200F772020034
:1070B000F7720200F77202000000000000000000FA
:1070C000F7720200F7720200F7720200F772020014
:1070D000F7720200F7720200F7720200F772020004
:1070E000F7720200F772020005A40300000000001E
:1070F00000000000F772020000000000F7720200BA
:10710000000000000000000000000000000000007F
:10711000000000000000000000000000000000006F
:10712000000000000000000000000000000000005F
:10713000000000000000000000000000000000004F
:10714000000000000000000000000000000000003F
:10715000000000000000000000000000000000002F
:10716000000000000000000000000000000000001F
:10717000000000000000000000000000000000000F
:1071800000000000000000000000000000000000FF
:1071900000000000000000000000000000000000EF
:1071A00000000000000000000000000000000000DF
:1071B00000000000000000000000000000000000CF
:1071C00000000000000000000000000000000000BF
:1071D00000000000000000000000000000000000AF
:1071E000000000000000000000000000000000009F
:1071F000000000000000000000000000000000008F
:1072000010B5054C237833B9044B13B10448AFF3E0
:1072100000800123237010BD5832002000000000C0
:10722000843D040008B5034B1BB103490348AFF389
:10723000008008BD000000005C320020843D040096
:10724000A3F5803A704700BF174B002B08BF134BC4
:107250009D46FFF7F5FF00218B460F461348144A61
:10726000121A16F0CFFF0E4B002B00D098470D4B93
:10727000002B00D098470020002104000D000D488D
:10728000002802D00C48AFF3008016F05FFF20000A
:10729000290007F0E1FE16F045FF00BF00000800DE
:1072A0000000000000000000000004205832002010
:1072B000DC6D002000000000000000000649074AC5
:1072C000074B9B1A03DD043BC858D050FBDC02F08F
:1072D000D9F8FFF7B9FF0000A43F0400282B0020D5
:1072E00058320020FEE7FEE7FEE7FEE7FEE7FEE796
:1072F000FEE7FEE7FEE7FEE7022000F0B5BB00BFB9
:107300002DE9F04706460D4600F0DCFB032805D8C2
:10731000012D04461AD0022D27D00DB1BDE8F0870B
:107320001B4802F085FE1B4B1B4A04EB44010B4437
:10733000125D9D78AA42F1D1002DEFD0174B1B684A
:10734000002BEBD02846BDE8F0471847114F00EB63
:107350004003FA18FD5C53784FEA40085BB9A0443B
:1073600047440D4BBA781A55E6E70A4B00EB400448
:107370001C446578E0E7DFF8289005484A464FF45A
:10738000804102F0F9FD0028E9D189F80060E6E7C4
:10739000482B002078320020943200208C320020CC
:1073A0007432002010B5007800F08CFB03280BD855
:1073B000064B00EB40001844407828B1044B1B6892
:1073C00013B1BDE81040184710BD00BF783200204F
:1073D0008C32002038B5BA4D2B7804466BB1B94BCE
:1073E0001B7800202870002B4DD000F0FFFA012000
:1073F00000F0FCFA032000F0F9FA172C00F25E818D
:10740000DFE814F0EB00630063009F00AC00B900FC
:10741000CB00970050004400500044007A00180050
:107420001800180018001800D90018018100000188
:107430005C005C00A44802F0FBFDD4F11104054699
:1074400000F02681002840F02381012C14D0C823AD
:1074500003FB04F429464FF400434FF47A70C4FB55
:1074600003014FF4FA62002316F0E8FE2A460146B3
:10747000954802F081FD0546022000F0A5FA914BE7
:1074800001221A701FE000F0C3FAB6E7012028704D
:1074900000F0EAFABDE838408C4800224FF4005171
:1074A00002F06ABD0120287000F0DEFABDE8384025
:1074B0008648002240F2666102F05EBD00F0BEFA2E
:1074C000834B00251C70284638BD002000F068FA68
:1074D000002840F0C38000F077FA40F6CD4141F635
:1074E0009A13022C18BF1946794B1C70BDE838401E
:1074F0007648002202F040BD00F0A0FA744B0C2246
:107500001A700025DFE76F4B1B78002B00F0D3804B
:10751000002000F06BFA012000F068FA032000F070
:1075200065FA012000F050FA694B14221A70002508
:10753000C9E7002000F048FA654B07221A700025C1
:10754000C1E7002000F02CFA002840F09B8000F0FA
:107550003BFA40F6CD415E4B0324C6E7002000F025
:107560001FFA002840F0888000F02EFA41F69A11A8
:10757000574B0424B9E7002000F012FA002877D115
:1075800000F022FA524B514805241C70BDE83840E7
:10759000002240F6CD4102F0EFBC002000F064FA7A
:1075A0004B4B4A4806241C70BDE83840002240F28C
:1075B000666102F0E1BC434B1B78002B78D00020C1
:1075C00000F014FA012000F011FA032000F00EFA86
:1075D0003F4B12221A70002575E73A4B1B78002B9F
:1075E00060D0002000F002FA012000F0FFF9032033
:1075F00000F0FCF9354802F01BFD354B0022054632
:107600001A7060E72F4B1B78002B48D0002000F049
:10761000EDF9012000F0EAF9032000F0E7F900207D
:1076200000F0D2F9012000F0CFF9294B15221A7091
:10763000002548E7234B1B78BBB3002000F0D6F9A8
:10764000012000F0D3F9032000F0D0F9002000F071
:10765000BBF91F4B13221A70002534E7002000F0FD
:10766000C5F9022C47F2333118BF4FF480313BE7A4
:10767000002000F0BBF985E7002000F0B7F94FF4D7
:10768000803175E7002000F0B1F943F2333162E751
:10769000022000F0ABF90B4B00221A7013E700F048
:1076A000B7F9BCE700F0B4F9A4E700F0B1F9CDE711
:1076B00000F0AEF98CE700F0ABF932E7002502E705
:1076C0008832002075320020282B0020682B0020F3
:1076D00090320020044B1B68DB0700D47047034B3B
:1076E0001878FFF777BE00BF843200209032002068
:1076F000032801D90020704700F0D0B9044B1B6863
:1077000013F0010301D118467047FFF763BE00BFB5
:107710008432002038B5244B244A1960810704467E
:10772000106004D410F001052CD1284638BD204B40
:1077300020480E210F221970DA7010211122997140
:107740005A72042140F2333202F048F9054630B152
:10775000E207EAD5012000F0CDF9284638BD02F055
:1077600099F905460028F3D10146134A134802F05F
:10777000EBFBE3070546D8D5012000F0BBF9002D4F
:10778000D3D102E0012000F0B5F90D4A0D480021E7
:1077900002F0DAFB05460028C7D1BDE838400A4AA6
:1077A0000A48012102F0D0BB8C3200208432002034
:1077B0007832002058E50300A57302007CE5030041
:1077C000D576020080E50300F972020078E5030037
:1077D000032806D8012A06D001291BD0022908D087
:1077E00071B107207047012911D002294FF0000222
:1077F000F6D10B4B00EB4000034400205A70704759
:10780000074B00EB4000034408469A70704700F1B4
:107810000E02D2B200EB400301490020CA54704767
:1078200078320020032801D90620704708B500F0FF
:107830005BF91F2886BF0A4B00F01F004FF0A043E2
:1078400003EB80030020D3F8002722F44032C3F872
:107850000027D3F8002742F44032C3F8002708BDC0
:107860000003005010B50388102B07D0112B04D152
:10787000254B18680138186030B110BD224C2168C2
:1078800011B30131216010BD01220221FFF7A0FFD9
:1078900040B1072806D01D4B1B68002BEDD0BDE87A
:1078A00010401847072202210120FFF791FF08B17D
:1078B0000728F0D100210A220846FFF789FF002897
:1078C000DBD00728E7D1D8E701220846FFF780FF81
:1078D00038B1072805D00D4B1B6803B198472168C4
:1078E000CFE7072202210120FFF772FF08B1072826
:1078F000F1D1042202210020FFF76AFF0028EED018
:107900000728E8D1EBE700BF9C3200209832002026
:1079100008B50020FFF786FF10B1062800D008BD8B
:107920000120FFF77FFF0028F9D0062808BF0020BC
:1079300008BD00BF184B10B5186031B101200C46CE
:10794000FFF7D6FEF8B102232370144B186808B174
:10795000002010BD01220221FFF73AFF08B10728DD
:10796000F7D1072202210120FFF732FF08B10728D3
:10797000EFD100210A220846FFF72AFF0028E7D0AE
:107980000728E5D010BDFFF7B3FE10B10B2323701D
:10799000DBE72070D9E700BF983200209C3200203E
:1079A000074B1B5C1F2B8ABF064A4FF0A04203F017
:1079B0001F03D2F80405D840C04300F0010070470F
:1079C00088E5030000030050064B1A5C1F2A86BF9F
:1079D000054902F01F024FF0A04101239340C1F876
:1079E0000C35704788E5030000030050064B1A5C15
:1079F0001F2A86BF054902F01F024FF0A041012354
:107A00009340C1F80835704788E503000003005033
:107A10004FF0A04310B44FF480404FF400544FF4A3
:107A200000414FF48032C3F80845C3F80805C3F895
:107A30000815C3F808255DF8044B70474FF0A043C4
:107A400010B44FF480404FF400544FF400414FF411
:107A50008032C3F80C45C3F80C05C3F80C15C3F805
:107A60000C255DF8044B70470A4B185C1F288ABF31
:107A700009494FF0A04100F01F00D1F80435012260
:107A8000824022EA03001340C1F80805C1F80C3512
:107A9000704700BF88E5030000030050074B1B5CE4
:107AA0001F2B8ABF064A4FF0A04203F01F03D2F8F3
:107AB0001005D840C04300F00100704784E5030082
:107AC000000300500B2809D00C2809D0182809D031
:107AD00019280CBF03204FF0FF307047002070477B
:107AE0000120704702207047014B185C704700BFAF
:107AF00084E50300C20710B40FD483070AD54FF002
:107B0000A0430C22C3F82C27C3F83027C3F8602702
:107B1000C3F864275DF8044B70474FF0A04303227D
:107B20004FF40051C3F834274FF48044C3F838278A
:107B3000C3F83C27C3F84027C3F808154FF4803238
:107B40004FF40041C3F80845C3F80815C3F80825E9
:107B5000D3E700BF10B568B90E4CA368012262706C
:107B60003BB1D3E900230020A2609847A368002B13
:107B7000F7D110BD0128FCD1064C2369A070002B61
:107B8000F7D0D3E900230120226198472369002B15
:107B9000F7D110BDA032002070B910B5074CA36812
:107BA000012262703BB1D3E900230020A260984714
:107BB000A368002BF7D110BD704700BFA032002092
:107BC00030B5012883B004D0032821D0B0B103B070
:107BD00030BD294C00230DF107008DF8073002F06D
:107BE00067FA23786BB3E3689DF80700012213441A
:107BF000E360A27002F082FA03B030BD1F4B012295
:107C0000C3F88020BFF34F8FBFF36F8F03B030BD39
:107C1000194C00F00FF900230DF107008DF8073023
:107C200002F046FAE368013BE360E3681BB9144BDA
:107C3000D3F80054C5B19DF8070002F05FFA03B015
:107C400030BD10486360A3602361E36000F0E6F894
:107C500007F082FC60B10A4A01232370D2F80024A5
:107C6000002AC0D0A370BEE700F0F6F8A570E2E7E6
:107C700000F0E0F8EFE700BFA032002000E100E0F4
:107C800000000140557B020000B585B0024600238C
:107C90000DF10F008DF807208DF80F3002F008FA73
:107CA00007F05AFC30B19DF80F0002F027FA05B03A
:107CB0005DF804FB09480DF1070105F091F907484B
:107CC00005F080F90028EED000F0FCFD9DF80F00D3
:107CD00002F014FA05B05DF804FB00BFF43D0400A7
:107CE00000B583B098B103280ED100230DF1070031
:107CF0008DF8073002F0DCF90E480378012B11D023
:107D00009DF8070002F0FAF903B05DF804FB094B97
:107D10001B78012BF8D100F0D5FD03B05DF804EB22
:107D200000F0D8BD0449013000F08AFD00F0B8FD34
:107D3000E6E700BF04330020897C020030B50A4B1F
:107D40000A4C53F8213054F82110027885B0D0E95C
:107D500001548DF80020C26801958DF80840039207
:107D60006846984705B030BD103300200833002026
:107D700030B50A4B0A4C53F8213054F821100278E0
:107D800085B0D0E901548DF80020C26801958DF8C6
:107D9000084003926846984705B030BD1033002074
:107DA00008330020F0B5184B067843F82620174B0F
:107DB0000446487F98551546154A8E46096942F88B
:107DC000261022789F5CBEE80F0089B0EC46ACE834
:107DD0000F009EE80F008CE80F0004964FB1002DB5
:107DE0000C4A694608BF2A46201D01F02DF909B04A
:107DF000F0BD002D084A694608BF2A4604F10C0070
:107E000000F07EFE09B0F0BD1033002018330020D2
:107E1000083300203D7D0200717D0200044A137981
:107E200023B9012110609180184670478520704762
:107E30001C330020074B1A68D20704D4C02283F8F1
:107E4000002301221A604FF080430122C3F8182555
:107E5000704700BF00E100E04FF0804202210023A4
:107E6000C2F8081382B0C2F80431D2F80431019389
:107E700001230199D360D2F81834DB03FBD402B09C
:107E8000704700BF10B54FF0804382B0D3F8002197
:107E900062B10021164AC3F80011D3F800115079DD
:107EA00000910121009CC3F80813A8B14FF0804352
:107EB000D3F80421CAB10022C3F80421D3F8042165
:107EC000019202210A4A0198C3F80813136801209D
:107ED00002B0BDE8104018471368517198474FF041
:107EE0008043D3F80421002AE5D102B010BD00BFC1
:107EF0001C33002030B5284C94F86A3083B0002B36
:107F000046D14FF6FF704FF0FF0C5A09012A18BFF7
:107F10004FF0FF3103F01F0208BF014621FA02F2C1
:107F2000D20748BFE21803F1010348BF82F830C00E
:107F3000302BEAD14FF0FF304FF0FF314FF0FF33DD
:107F4000C4E900010622002114482366C4E9023373
:107F5000C4E90433C4E90633C4E90833C4E90A3385
:107F600016F050F90E4BC02283F8062340221A6007
:107F70000C4B0020C3F87C01D3F87C210192012135
:107F80004FF00042019D84F86A10C3F8042300E01A
:107F9000082003B030BD00BF283300208C33002000
:107FA00000E100E000600040034B93F86A000038F5
:107FB00018BF0120704700BF2833002070B57D4BEB
:107FC00003EB000E9EF930C0BCF1000F01DB08206E
:107FD00070BD91F802C01CF0020FCCF340055DD1DA
:107FE0001C6A013400F0DF805C6A013400F0D1804B
:107FF0004FF00C0E4FF00A0C53F82C40013459D0BE
:108000000CF10104744547D253F82460013600F0A6
:10801000B8800CF1020474453ED253F82460013656
:1080200000F0AF800CF10306764535D253F82640B8
:1080300001343ED00CF1040676452DD253F826408B
:10804000013436D00CF10506764525D253F826408A
:1080500001342ED00CF1060676451DD253F8264089
:10806000013426D00CF10706764515D253F8264088
:1080700001341ED00CF1080676450DD253F8264087
:10808000013416D00CF1090CF44505D2DC6A013438
:1080900008BF4FF00B0C0DD0042070BD1C680134DC
:1080A00071D05C6801347BD04FF0080E4FF0020CA9
:1080B000A2E7B44643F82C201A184FFA8CFE82F837
:1080C00030E015B99C448CF858008A7854071CD4C9
:1080D000D50747D51F2887BF374A00F01F0404463D
:1080E0004FF0A04202EB8402D2F8004724F00204D1
:1080F000C2F80047314DC40800F0070C2E5D012284
:1081000002FA0CF232432A558A7812F002021CD08D
:108110004FEA8E0303F1804303F5C0430978D3F897
:10812000104524F44F3424F44074C3F8104502027F
:108130000904D3F8100501F4403102F47C520A43DB
:108140000243C3F81025002070BDAEF1080E43FABB
:108150008EF30C7893F86010104641EA841283F88D
:10816000602070BD1F284C7887BF134D00F01F02A0
:1081700002464FF0A04502F5E072A40045F8224007
:10818000B8E7A44696E71A6000228EF8302096469B
:108190009BE74FF0090C8EF830C05A62E64691E733
:1081A0004FF0010C86E74FF0080C8EF830C01A62D1
:1081B000E64687E728330020000300508C33002078
:1081C00030B4344C04EB000C82B09CF93030072BF7
:1081D00024DD083B44FA83F393F860309B09032BBA
:1081E00047D0012B0CBF4FF400324FF440321F2810
:1081F0008ABF294B4FF0A04300F01F0003EB800023
:10820000D0F8003723F44033C0F80037D0F80037F7
:108210001A43C0F8002702B030BC7047DAB2072A10
:10822000F9D8980000F1804003F1400200F5C04009
:1082300052B29200D0F8105592B202F1804202F58B
:10824000C04245F00105C0F81055002010601268CA
:108250000192019A0029DED09CF9302054F82220A6
:10826000002AD8D00D49012202FA03F3C1F80433E1
:10827000D1E71F288ABF084A4FF0A04200F01F0331
:10828000D2F8102598BF0346DA4002F0010202320C
:108290001204ACE7283300200003005000600040C7
:1082A0001F288ABF054B4FF0A04300F01F00D3F8F2
:1082B000103523FA00F000F0010070470003005071
:1082C0002DE9F047002384B0CDE902331C4AD2F8EF
:1082D0000011012900F030821E46194BD3F8042109
:1082E000012A00F01A82164BD3F80821012A00F067
:1082F0000582134BD3F80C21012A00F0F081104BBA
:10830000D3F81021012A00F0DB810D4BD3F81421A2
:10831000012A00F0C1810A4BD3F81821012A00F08C
:10832000AC81074BD3F81C21012A0BD0044BD3F8A6
:108330007C21012A00F0218256BB04B0BDE8F08701
:1083400000600040D3F804231206EFD50022C3F8E2
:108350001C21D3F81C110091D3F87C11009801293D
:1083600046F0800614D1C3F87C21D3F87C31019308
:108370004FF0A042019BD2F82015CF4B0291C2F8DA
:108380002015D3F820250392C3F8202546F0004697
:10839000CA4F00240125A30003F18043354203F5B1
:1083A000C0434FEA45050BD0D3F8100557F82420F9
:1083B000D3F81015C0F30520C1F3014102B1904775
:1083C0000134082CE7D1002EB7DABC4CBA4E012597
:1083D0004FF0A04794F96000431C48D0C0F3C2029C
:1083E00002F110030DEB030200F0070312F8082C52
:1083F00005FA03F31A42C1B200F03F0037D01F283C
:1084000000F22B8102464FF0A04909EB820305FAE6
:1084100002F2D3F800C7D3F800E72EF4403EC3F8C9
:1084200000E704EB000ECCF3014C9EF930E0D3F8EA
:1084300000A754F82E80BCF1020F0CBF4FF4403E51
:108440004FF4003E4EEA0A0EC3F800E7C9F82025B3
:10845000B8F1000F0BD08909032900F08281BCF12B
:10846000020F00F07B81BCF1030F00F0A68194F9AC
:108470006100411C48D0C0F3C20202F110030DEBB1
:10848000030200F0070312F8082C05FA03F31A425E
:10849000C1B200F03F0037D01F2800F2E280024650
:1084A0004FF0A04909EB820305FA02F2D3F800C7A6
:1084B000D3F800E72EF4403EC3F800E704EB000ECB
:1084C000CCF3014C9EF930E0D3F800A754F82E808D
:1084D000BCF1020F0CBF4FF4403E4FF4003E4EEA99
:1084E0000A0EC3F800E7C9F82025B8F1000F0BD039
:1084F0008909032900F03A81BCF1020F00F03381B1
:10850000BCF1030F00F05D8194F96200421C48D079
:10851000C0F3C20202F110030DEB030200F00703E7
:1085200012F8082C05FA03F31A42C1B200F03F001A
:1085300037D01F2800F2998002464FF0A04909EB7E
:10854000820305FA02F2D3F800C7D3F800E72EF44D
:10855000403EC3F800E704EB000ECCF3014C9EF95B
:1085600030E0D3F800A754F82E80BCF1020F0CBF06
:108570004FF4403E4FF4003E4EEA0A0EC3F800E7C7
:10858000C9F82025B8F1000F0BD08909032900F0A4
:10859000F280BCF1020F00F0EB80BCF1030F00F0A1
:1085A000088194F96300431C47D0C0F3C20202F172
:1085B00010030DEB030200F0070312F8082C05FA74
:1085C00003F31A42C1B200F03F0036D01F2850D842
:1085D00002464FF0A04909EB820305FA02F2D3F8F4
:1085E00000C7D3F800E72EF4403EC3F800E704EBE1
:1085F000000ECCF3014C9EF930E0D3F800A754F8FC
:108600002E80BCF1020F0CBF4FF4403E4FF4003EF1
:108610004EEA0A0EC3F800E7C9F82025B8F1000FAA
:108620000BD08909032900F09780BCF1020F00F0FC
:108630009080BCF1030F00F0B880D7F8202502929B
:10864000C7F82025D6F820350393C6F82035134304
:108650007FF4C0AE04B0BDE8F08701F01F02B14660
:10866000D3E601F01F02B1461CE701F01F02B1463C
:1086700065E701F01F02B146ADE7D3F804235106C8
:108680007FF54FAE0022C3F81821D3F818310093BC
:10869000009B46F0400644E6D3F8042390067FF59D
:1086A0003AAE0022C3F81421D3F814310093009B92
:1086B00046F020062FE600BF0003005028330020BC
:1086C000D3F80423D4067FF520AE0022C3F810218E
:1086D000D3F810310093009B46F0100615E6D3F84E
:1086E000042315077FF50BAE0022C3F80C21D3F845
:1086F0000C310093009B46F0080600E6D3F80423F3
:1087000057077FF5F6AD0022C3F80821D3F80831EA
:108710000093009B46F00406EBE5D3F80423920790
:108720007FF5E1AD0022C3F80421D3F804310093B2
:10873000009B46F00206D6E5D2F8046316F0010667
:108740003FF4CBADC2F80031D2F800310093009B6A
:10875000C3E501297FF471AFC0476EE701297FF4BB
:1087600086AEC04783E601297FF4CEAEC047CBE694
:1087700001297FF416AFC04713E70022C3F87C211C
:10878000D3F87C3101934FF0A042019BD2F8201521
:108790000E4B0291C2F82015D3F820250392C3F89E
:1087A0002025002E3FF411AEF0E502297FF445AFFD
:1087B000D2E702297FF4F5AEDDE702297FF457AE58
:1087C000CFE702297FF4A0AED0E700BF000300503E
:1087D000014B1B68184700BF94330020104B984290
:1087E0001BD130B583B000230DF107008DF80730A1
:1087F0000D4601F05DFC0B4B9DF807001C793CB960
:1088000001221D601A7101F079FC204603B030BDD1
:1088100001F074FC112003B030BD0020704700BF90
:108820000020004094330020034B984203D1034BB7
:1088300000221A601A717047002000409433002013
:10884000134A137813BB10B40378124CDB07216072
:1088500006D51149D1F8043543F00103C1F80435B8
:108860000D4C0E49D4F8003223F00103C4F8003255
:1088700043785B01DBB281F80D334FF400530B609A
:108880000123137000205DF8044B7047852070476A
:10889000A03300209C33002000D0004000E100E025
:1088A000074B0022C3F8002182B0D3F800210192C7
:1088B00001990122C3F804231A6002B0704700BF77
:1088C00000D00040024B0122C3F808235A607047D1
:1088D00000D00040084B094901224FF40050C3F872
:1088E00008235A60C1F88000BFF34F8FBFF36F8F2A
:1088F000034B00221A70704700D0004000E100E0F6
:10890000A0330020074B0022C3F8002182B0D3F827
:1089100000210192019A044AD3F808051368C0B2F5
:1089200002B0184700D000409C3300200000000037
:1089300010B5714AD2F8043399058AB068D5D2F8D7
:108940002431002B64D00023C2F82431D2F8243122
:1089500001934FF40171694B0198C2F8081393F821
:10896000291009B901215160634902228DF81820AC
:10897000D1F88024C1F880249FED5D7B9969D86887
:10898000CDE9081283ED067BD3E90012079006A813
:108990009047594AD2F81C31C3B1584B5869196AEB
:1089A00088426AD993F8281001F0FF00002964D1A9
:1089B000C2F81C01D2F81C11039103999C68186A33
:1089C000196A205C01311962C2F81C054A4AD2F8C2
:1089D0004431DBB10021494BC2F84411D2F84401C3
:1089E00093F829100090009809B1012111609A694B
:1089F00062B1D8685C6A00210122CDE9070499615F
:108A00008DF8182006A8D3E9001290470AB010BDCF
:108A1000394AD2F804335B07BBD5D2F80831002BB2
:108A2000B7D0364B996900293ED00021C2F8081111
:108A3000D2F8081104910499D868596AD2F8182517
:108A400042545A6A996901325A625A6A8A42A0D1DA
:108A5000DA69002A31D09A611A69D8685C6ADA60EA
:108A6000002101220894D961596207905C68196855
:108A70008DF8182006A8A0478BE71F4A0020C2F8EF
:108A80001C01D2F81C210292029A5A69002A9DD038
:108A9000D3E901215C698DF81800CDE9071458610C
:108AA000196806A8904791E7C2F80811D2F80801A2
:108AB00005900598D2F81825C7E793F8292012B930
:108AC0000D4A012151600C4A4FF40171C2F808139C
:108AD000D8685C6A0021012299618DF81820D3E9D9
:108AE0000012CDE9070406A8904752E7AFF30080D3
:108AF000000000000000000000200040A83300201B
:108B00002DE9F041734E90F804802C2303FB086399
:108B100082B093F82A30002B40F09C8005460C462A
:108B200000686D491746FFF759FE002840F08E8017
:108B30002368591C19D01F2B4FF001028ABF6749C7
:108B40004FF0A04103F01F0302FA03F3C1F8083508
:108B500023681F2B86BF03F01F03604A4FF0A0421B
:108B600003F5E073032142F8231063685A1C0BD00D
:108B70001F2B86BF03F01F03584A4FF0A04203F596
:108B8000E073002142F823102B68A269C3F8242562
:108B9000227D637D13432A68C2F86C35D4E9001244
:108BA0002B68C3F81425C3F80C15237D012B5CD06A
:108BB0002C2303FB08F3F21857602269F25097B395
:108BC0002A68237F0021C2F81C11D2F81C210092D0
:108BD000009A2A68C2F84411D2F844210192019AFD
:108BE0002A683F49C2F804132A6842F30731002972
:108BF0004FEA123232DB01F160415B0101F5614164
:108C0000DBB281F800332B6843F30732002A4FEAC6
:108C1000133109DB334C5209012301F01F0103FA20
:108C200001F144F822102B680422C3F800252C23FC
:108C300003FB086601220023C6E9063386F82930C3
:108C4000736186F82A2002B0BDE8F081112002B0DD
:108C5000BDE8F081082002B0BDE8F081224902F0B1
:108C60000F025B01DBB28B54CDE7A368591C0BD01C
:108C70001F2B86BF03F01F0318494FF0A04103F5D7
:108C8000E073002241F82320E3685A1C1AD01F2BFE
:108C90008ABF12494FF0A04103F01F03012202FADC
:108CA00003F3C1F80835E3681F2B88BF03F01F03E7
:108CB00003F5E0738CBF09494FF0A041032241F84E
:108CC0002320E3682A68A168C2F80835C2F81015A5
:108CD0006EE700BFA8330020318902000003005076
:108CE0008000020000E100E014ED00E0F8B5036848
:108CF00007793D4C0022C3F800252C2303FB0743D2
:108D00005B68C3B10368394AC3F80823036843F3B7
:108D10000732002A4FEA13310EDB5209344D20325C
:108D2000012301F01F0103FA01F145F82210BFF3FE
:108D30004F8FBFF36F8F0368D3F80C65D3F81455CA
:108D4000D3F80825D3F810154FF0FF3CC3F814C52D
:108D5000C3F80CC503686645C3F808C5C3F810C559
:108D60000CD01F2E86BF06F01F06224B4FF0A043EB
:108D700006F5E0764FF0020C43F826C06E1C0BD0CF
:108D80001F2D86BF05F01F051A4B4FF0A04305F5B8
:108D9000E075022643F825604D1C0BD01F2986BFC5
:108DA00001F01F01134B4FF0A04301F5E0710225C4
:108DB00043F82150531C0BD01F2A86BF02F01F021C
:108DC0000C4B4FF0A04302F5E072022143F8221051
:108DD0000068FFF729FD2C2303FB0744002384F8D8
:108DE0002A306360F8BD00BFA8330020840202006F
:108DF00000E100E0000300502DE9F041334C90F811
:108E000004E02C2303FB0E438446586984B00028F9
:108E10004ED15A619960186283F82800DCF800206E
:108E2000C2F81C01D2F81C210292029ADCF8002040
:108E300001219160DCF800209D68C2F81C01D2F885
:108E40001C1101910199196A6E5C196A013119624C
:108E5000C2F81C655A6812B104B0BDE8F0815E69C1
:108E60001A6ADCF8001096421BD9074602E093F814
:108E700028200ABBD1F81C21002AF8D0C1F81C71A7
:108E8000D1F81C210392039A1A6A15F802801A6A13
:108E900001321A62C1F81C851A6A9642EAD8DCF8D7
:108EA0000010D1F81C31002BFBD00123CB6004E073
:108EB000112004B0BDE8F0810F202C2303FB0E44E9
:108EC0000023636104B0BDE8F08100BFA833002037
:108ED00010B55B4BD3F824218AB0002A58D0002269
:108EE000C3F82421D3F82411049102228DF818200C
:108EF0000499544AD3F88014C3F880149FED4E7B34
:108F00000991D3F83C45D06882ED067BCDE9070492
:108F1000D2E9001306A89847494BD3F8442152B12F
:108F20000021484AC3F84411D3F8440191690390E1
:108F30000398002961D1424BD3F8202162B100206F
:108F4000C3F82001D3F82021029201213D4A029C5E
:108F5000D9605169002943D1394BD3F85821AAB1BE
:108F60000020C3F85801D3F85811364A01910199ED
:108F7000516959B1D3F84C458DF81800D2E9013147
:108F80005061CDE9071406A8116898470AB010BDD2
:108F9000D3F810110029BFD0C3F81021D3F8101155
:108FA000284C05910599A169D3F83C058842B3D1B5
:108FB000E169002933D0C4E90612D3F8002222F077
:108FC0002002C3F80022E2680792012122698DF88D
:108FD0001810089063682168E26006A898479BE72C
:108FE000D3F84C458DF81800D2E901315061CDE934
:108FF000071406A811689847AEE79FED0F7BD3F8DA
:109000003C45D0684FF0010CCDE9070482ED067BAA
:10901000D2E900138DF818C006A898478BE7E268DC
:10902000A1610123CDE907208DF8183006A8D4E905
:109030000013984770E700BF000000000000000028
:1090400000200040D83300202DE9F04307797F4EFF
:1090500007EBC70306EB830387B093F82030002BA0
:1090600040F0B58004460D46006879499046FFF708
:10907000B5FB002840F0A7802B68591C4FEAC709B0
:1090800019D01F2B4FF001028ABF72494FF0A04147
:1090900003F01F0302FA03F3C1F808352B681F2BF6
:1090A00086BF03F01F036B4A4FF0A04203F5E07345
:1090B000032142F823106B685A1C0BD01F2B86BF6C
:1090C00003F01F03634A4FF0A04203F5E073002151
:1090D00042F823102368AA69C3F824252B7D6A7DF2
:1090E0001A432368C3F86C25D5E900312268C2F819
:1090F0000C35C2F814152B7D012B73D009EB070238
:1091000006EB8203C3F804802B6946F82230B8F1DD
:10911000000F47D021682B7F0022C1F81021D1F821
:109120001011019101992168C1F82021D1F8201175
:10913000029102992168C1F82421D1F824110391E8
:1091400003992168C1F84421D1F84411049104998C
:109150002168C1F85821D1F858210592059A226852
:109160003D49C2F80413226842F3073100294FEA4F
:10917000123230DB01F160415B0101F56141DBB28C
:1091800081F80033226842F30733002B4FEA123193
:1091900009DB324D5B09012201F01F0102FA01F1E6
:1091A00045F8231022684F4406EB8706012100236F
:1091B00086F820100821C2F80015C6E9063373614D
:1091C00007B0BDE8F083112007B0BDE8F0830820A8
:1091D00007B0BDE8F083224902F00F025B01DBB269
:1091E0008B54CFE7AB68591C0BD01F2B86BF03F005
:1091F0001F0318494FF0A04103F5E073002241F826
:109200002320EB685A1C1AD01F2B8ABF11494FF03C
:10921000A04103F01F03012202FA03F3C1F808354D
:10922000EB681F2B88BF03F01F0303F5E0738CBFAF
:1092300008494FF0A041032241F82320EB6822683F
:10924000A968C2F80835C2F8101557E7D8330020CE
:10925000D18E0200000300501003420000E100E044
:1092600014ED00E02DE9F0410579564C05EBC503FE
:1092700004EB830301465B68006882B0EE00C3B173
:10928000514BC0F808330B6843F30732002A4FEA0A
:1092900013330EDB5209DFF838C12032012703F007
:1092A0001F0307FA03F34CF82230BFF34F8FBFF3CD
:1092B0006F8F731904EB83039A69D0F8003223F09F
:1092C0002003C0F8003242B10023C0F84431D0F886
:1092D00044310093009B012343600023C0F85831C0
:1092E000D0F858310193019B7319012204EB8303D9
:1092F000C2609A69D0F85831002BFBD01AB1D0F86F
:109300004431002BF6D00023C0F800350B684FF035
:10931000FF38D3F80CE5D3F814C5D3F80825D3F8F3
:109320001075C3F80C85C3F814850B68C645C3F8DF
:109330000885C3F810850CD0BEF11F0F86BF0EF054
:109340001F0E22494FF0A0410EF5E07E022341F8A6
:109350002E30BCF1FF3F0CD0BCF11F0F86BF0CF0CC
:109360001F0C1A494FF0A0410CF5E07C022341F894
:109370002C30791C0BD01F2F86BF07F01F07134915
:109380004FF0A04107F5E077022341F82730531C46
:109390000BD01F2A86BF02F01F020C494FF0A041DC
:1093A00002F5E072022341F82230FFF73DFA35441E
:1093B00004EB8504002384F82030636002B0BDE82C
:1093C000F08100BFD833002010034200000300509A
:1093D00000E100E001F0604CBCF1005F30D170B5FD
:1093E00090F804E0264C0EEBCE0C04EB8C0C0346FC
:1093F000DCF8140082B04FEACE0500283BD1CCF84F
:109400001420CCF808101A68C2F82001D2F82021E4
:109410000192019A1A68C2F85801D2F858210092B4
:10942000009A1A68DCF81460C2F84415C2F848655E
:109430001A6801219160DCF804201AB102B070BDF5
:10944000102070471A6800E0C0B9D2F82011D2F895
:1094500058010029F8D088B90121D1601B68D3F8E0
:109460005821002AFBD005EB0E0304EB83030022F6
:109470005A6102B070BD112002B070BD0F20F2E73A
:10948000D833002010B44FF08053D3F83021082A8D
:1094900023D0844AD2F8883043F47003C2F888306D
:1094A000BFF34F8FBFF36F8F4FF08053D3F830214E
:1094B000082A00F0B3804FF01023D3F80022002ACE
:1094C000C0F2BF80D3F80432002BC0F2BA80764BD2
:1094D000764A1A605DF8044B70474FF080410020D7
:1094E000C1F80C01724AC1F81001C1F83805D3F86F
:1094F0000414C2F82015D3F80814C2F82415D3F8C0
:109500000C14C2F82815D3F81014C2F82C15D3F88F
:109510001414C2F83015D3F81814C2F83415D3F85F
:109520001C14C2F84015D3F82014C2F84415D3F81F
:109530002414C2F84815D3F82814C2F84C15D3F8EF
:109540002C14C2F85015D3F83014C2F85415D3F8BF
:109550003414C2F86015D3F83814C2F86415D3F87F
:109560003C14C2F86815D3F84014C2F86C15D3F84F
:109570003411D3F84434C2F87035052942D84D4B24
:109580005B5C1BB14C4B4D4AC3F88C264C4B5B5C6F
:1095900073B14FF080534B49D3F83021FB20C1F811
:1095A0001805082AD3F834117FF473AF052929D898
:1095B000454B5B5CBBB14FF080524FF08040D2F81E
:1095C0005832D0F8E41ED2F8304121F00F0103F0F8
:1095D0000F030B43C0F8E43E082CD2F834117FF49B
:1095E00058AF05290ED8394B5B5C5BB14FF0805307
:1095F000374AD3F830314FF40071082BC2F84016C7
:109600007FF447AF4FF08043D3F80024D2077FF5B3
:1096100040AF6FF00102C3F800243AE7D3F83431C9
:10962000052B08D94FF010224FF08043D2F80822C2
:10963000C3F858253FE7274AD35C002B3FF43BAFE4
:10964000F0E7254A0123C2F80435D2F80034002B94
:10965000FBD04FF0102312211F4AC3F80012D2F89A
:109660000034002BFBD04FF0102312211A4AC3F80C
:109670000412D2F80034002BFBD000231649C2F8A4
:109680000435D1F80034002BFBD0BFF34F8F0549D0
:10969000124BCA6802F4E0621343CB60BFF34F8FF2
:1096A00000BFFDE700ED00E0882B00200090D00314
:1096B00000C00040C8E5030000500040488103009E
:1096C000C8E5030000F00040C8E50300C8E503005A
:1096D00000900240C0E5030000E001400400FA05EC
:1096E00038B5174B1D783DB3164A1168C0B2002338
:1096F0000C4604E00133AB4204F108041CD011F81D
:1097000033209042F6D1FEF7CBFD6378A3F101033D
:10971000B3FA83F35B09834200D038BD0A4BD3E927
:1097200000231343F9D1094B094819680022BDE809
:109730003840490800F020BC00231B78FFDE00BF42
:10974000FC33002030340020083400200034002096
:10975000902B00202DE9F04FDFF8788298F8003048
:1097600083B0002B00F02B81DFF86C92954F964E62
:1097700000254FF0010AD7F800B01BF83500FEF7BE
:109780008FFD1BF835400BEBC50361085B7816F8BD
:1097900001C014F0010EA3F10103B3FA83F314BF67
:1097A0004FEA1C120CF00F025B09042A00F2EA8057
:1097B000DFE802F0725F33200300834240F09F80B5
:1097C000BEF1000F0CBFF0230F230CEA030C0CBFFB
:1097D0000323302343EA0C03735498F80020013527
:1097E0009542C8DBD9E90023134340F0DE8003B083
:1097F000BDE8F08F834200F0C580BEF1000F0CBFC2
:10980000F0230F230CEA030C0CBF0423402343EA8C
:109810000C03735498F80020E1E7834240F0B580D0
:10982000BEF1000F0CBFF0230F230CEA030C98F8D5
:1098300000200CBF0323302343EA0C037354002A97
:10984000D0D0D7F800C00023614603E0934201F175
:109850000801C4D01CF83300A04203F10103F5D184
:109860004B68002BBBD020460121984798F8002078
:10987000B5E7834219BF00231A4620230222BEF116
:10988000000F16BF1A46F0230F230CEA03031A43F6
:10989000725498F80020A2E7834273D14FF000037E
:1098A000BEF1000F8DF8073014BF0F23F0230CEA30
:1098B000030C14BF1023012343EA0C030DF107002E
:1098C000735400F0F5FBA4F12003C4F120022AFA3E
:1098D00002F20AFA03F31343D9F800209DF80700B7
:1098E0000AFA04F42243C9F80020D9F804201343EB
:1098F000C9F8043000F002FC98F800206FE7BEF1D0
:10990000000F14BF0F23F0230CEA030398F800C0E4
:109910007354BCF1000F12D038680023024603E0F4
:10992000634502F108020AD010F83310A14203F196
:109930000103F5D1536813B10021204698474FF039
:1099400000030DF107008DF8073000F0B1FBA4F122
:109950002003C4F120022AFA02F20AFA03F31343A5
:10996000D9F800209DF807000AFA04F422EA04025C
:10997000C9F80020D9F8042022EA0303C9F804300A
:1099800000F0BCFB98F8002029E7BEF1000F0CBFE7
:10999000F0230F230CEA030C0CBF0123102343EA2E
:1099A0000C03735498F8002019E7084B084819680D
:1099B0000022490803B0BDE8F04F00F0DDBADFF83F
:1099C00018900FE7303400201034002000340020BD
:1099D000902B0020FC33002008340020092A3FD9B6
:1099E000F0B583B0144605460E46FEF7DDFA88B39F
:1099F000204B214A1E70214B1560002120481C601D
:109A0000202214F0FFFB1F4B00200021741EC3E92D
:109A10000001E4B236B31C4F05EBC404032602E098
:109A2000A5421FD01C469DF8063094F802C020784D
:109A30008DF8046023F007033A4601A98DF806303B
:109A40008DF805C0FEF7BAFAA4F108030028E7D0A4
:109A500003B0F0BDFEF74EFA0028C9D003B0F0BD48
:109A600007207047094A0A48002103B0BDE8F040CA
:109A700000F06ABAFC3300203034002000340020AB
:109A80001034002008340020E196020055970200AF
:109A9000DCE5030070B5084D2B785BB1074E002460
:109AA0003368012113F83400FEF78AFB2B78013468
:109AB000A342F5D8002070BDFC33002030340020D4
:109AC00000B585B00346002101AA44F20100CDE9AA
:109AD0000111039300F004F805B05DF804FB00BF2A
:109AE00010B572B604F0F4FB03F040FD0028FBD182
:109AF000104B114C1149E41AE408240444F001000D
:109B000004F0E2FA0E4BD3F8F030DB0700D500BECC
:109B10000C4944F0020004F0D7FABFF34F8F084914
:109B2000094BCA6802F4E0621343CB60BFF34F8F66
:109B300000BFFDE71C3E04004C3E0400E0E50300CE
:109B400000ED00E0ECE503000400FA0530B48D6898
:109B50008468C368CA68A54272EB03032CBF012066
:109B6000002030BC704700BF10B5044682B000230F
:109B70000DF107008DF8073000F09AFA23692BB930
:109B80004FF0FF324FF0FF33C4E902239DF8070086
:109B900000F0B4FAD4E90530984700230DF107002E
:109BA0008DF8073000F084FA2369BBB1D4E90212C2
:109BB000B2F1FF3F08BFB1F1FF3F0FD05B1842F198
:109BC0000002C4E902329DF8070000F097FA074846
:109BD000214603F011FB012002B010BD9DF80700E3
:109BE00000F08CFA002002B010BD00BF0CE60300AC
:109BF0002DE9F04F2DED028B83B008EE100A00F036
:109C0000B1FB40B1AC4AD2E9003113F1807341F1AC
:109C10000001C2E9003118EE100A002100F0BEFB7D
:109C2000A64D60B32B6853B3A54B2C681B7823B3A8
:109C30001CB3A44800F0C2FB9F4BA34A19685B68A1
:109C40004018D2E9001243F10003884273EB02028C
:109C500003D210F1807043F10003D4E9021288426C
:109C6000934180F02581B2F1FF3F08BFB1F1FF3F82
:109C700003D09648214603F0BFFA00232B6018EE6C
:109C8000100A012100F08AFB002840F0F180904882
:109C900001A901F043FF00283AD08D4C4FF0FF3866
:109CA0004FF0FF3909E033B301A9204601F068FF06
:109CB00001A9204601F032FF50B30378012B11D0E7
:109CC000022BF0D1814E304603F0AAFA30B1C0E940
:109CD0000289304603F0A4FA0028F8D1784B01221B
:109CE0001A70E1E72B684168994200F0B580774827
:109CF00003F0A0FAD8E74168D1E90223B3F1FF3FAE
:109D000008BFB2F1FF3FCFD0704803F075FACBE740
:109D10006E4FDFF8B081DFF8A091384603F086FA85
:109D2000002852D0D0E90223B3F1FF3F08BFB2F1BF
:109D3000FF3F00F08D80296891B12968D1E90201C7
:109D400082428B4144D22B68D3E90223B3F1FF3F17
:109D500008BFB2F1FF3F03D02968384603F04CFA40
:109D6000384603F05DFA04464046574ED4E902BA3D
:109D700000F024FBD9E900133268401843F10003D6
:109D80009042726873EB020203D210F1807043F1CB
:109D90000003BBEB00006AEB0303012873F100032F
:109DA00024DBB0F5350F4DD25A464FF4960300210F
:109DB000404600F051FA80B10D281BD000233846F0
:109DC0002B6003F033FA0028ACD12B68002B66D04F
:109DD00003B0BDEC028BBDE8F08F2B68002B3ED0AA
:109DE0002C6003B0BDEC028BBDE8F08F0021404633
:109DF00000F0C8FA324B1B78002BDFD0404600F051
:109E0000DDFAD9F80030D6E90012C018D9F80430CC
:109E100043F10003884273EB020203D210F1807019
:109E200043F10003D4E90212884293411CD2B2F1FB
:109E3000FF3F08BFB1F1FF3FC0D02146384603F0D5
:109E4000DBF9BBE7404600F0B9FA224A0244ACE72E
:109E5000384603F0E5F960E700232B6024E718EEAD
:109E6000100A00F0C7F9BBE72046FFF77DFEA5E723
:109E70001448154E00F0A2FA0F4B1A685B68801860
:109E8000D6E9001243F10003884273EB020203D2C9
:109E900010F1807043F10003C6E90003F7E618EE05
:109EA000100A03B0BDEC028BBDE8F04F00F0A6B97C
:109EB0002046FFF759FEE0E638340020B834002091
:109EC00040340020B02B0020B03400200CE603000A
:109ED0009C340020FFFFB40010B5134B13491C68DD
:109EE000134882B008235822019401F09BFD0446D8
:109EF00010B1204602B010BD0E4A0F4801A900F073
:109F000015F904460028F4D10B48012100F020FA8D
:109F100001231946094A084800F074F9084B012248
:109F200020461A7002B010BD08E603004434002039
:109F30009C340020F19B0200B02B0020FFFF7F002B
:109F400040340020000000006AB19FED097BA1F1C0
:109F500001010368B1FA81F1490983ED027BC3E98C
:109F60000412002070470720704700BFAFF3008045
:109F7000FFFFFFFFFFFFFFFFF0B583B004460025A2
:109F800001A817460E468DF8045000F091F8D4E968
:109F90000223B3F1FF3F08BFB2F1FF3F06D09DF8A7
:109FA000040000F0ABF8284603B0F0BD1C4800F0F8
:109FB00005FA1C4B1C4A19685B684018D2E900126C
:109FC00043F10003884273EB020224D3301843F1BB
:109FD0000003A060E3609DF8040000F08FF823699F
:109FE000A76103B12661114801A901F055FD03469F
:109FF00070B100250D481D705C6001A901F07EFD67
:10A000000028D1D0064800F0DDF9284603B0F0BDA5
:10A01000042003B0F0BD10F1807043F10003D5E7D8
:10A02000B02B002038340020B03400209C340020B5
:10A0300030B583B00446002501A88DF8045000F027
:10A0400037F8D4E90223B3F1FF3F08BFB2F1FF3F75
:10A050001CD04FF0FF334FF0FF32C4E902239DF8CC
:10A06000040000F04BF8104801A901F015FD03466B
:10A0700048B10122027001A90B485C6001F03EFD6D
:10A0800058B903B030BD042003B030BD9DF80400C2
:10A0900000F034F8284603B030BD044800F092F9CF
:10A0A000284603B030BD00BF9C340020B02B0020F8
:10A0B00070B4EFF3108472B60D4B9A68AAB90121FF
:10A0C00099600C490C4ED1F8805035401D60C1F8A4
:10A0D0008060D1F884505D604FF0FF33C1F8843068
:10A0E000027004B962B670BC704701230370F8E7D0
:10A0F000BC34002000E100E0FC06FFBD094B9A687B
:10A100007AB170B910B4EFF3108172B6064A1C68C8
:10A1100014605C685460986001B962B65DF8044BE5
:10A1200070477047BC34002000E100E010B5294CB6
:10A13000437944F82320284C04EBC3031B79002BFC
:10A140003BD103680A88C3F8082590F904308A785F
:10A15000002B2ADB03F16043520103F56143D2B2C5
:10A1600083F8002390F90430002B09DB1B494FEAE8
:10A17000531C012203F01F0302FA03F341F82C30B1
:10A180004279174B44F832001648181A04EBC20102
:10A19000C0084FF0010C000481F804C040F0030037
:10A1A000114903F091FF002010BD104903F00F0387
:10A1B00052011944D2B20A76D4E70A4B08480C4936
:10A1C000C01AC008000440F0020003F07DFF082020
:10A1D00010BD00BFD0340020C834002000E100E0F2
:10A1E0005C3E04001C3E04003CE60300FCEC00E086
:10A1F00018E60300036801221A6070470368012211
:10A200005A60704770B405684FF480348C40C5F8CC
:10A210000843056801F1500CC5F848434FEA8C0C1F
:10A2200005681FFA8CFC002645F80C6083B055F8D1
:10A230000C500195019D056801F5A87122F07F423F
:10A2400045F821200268C2F8444313B10368C3F8FB
:10A25000044303B070BC70472DE9F0474FF48036DB
:10A2600022F07F4702688E40C2F848630268C2F855
:10A270000863026802EB810C044601F15005D2F834
:10A280000405DCF84025CCF84005AD00ADB2121A4B
:10A2900020684FF0000840F8058082B040590090D7
:10A2A00022F07F42012A00988A46994641D02268CE
:10A2B000D2F80455C2F844637A1B22F07F42012A87
:10A2C0000AF5A87125D0236843F821702068D0F8DA
:10A2D00004557B1BC9F1FF12013B02F57F4223F0BD
:10A2E0007F439A4211D343B1C0F8446323680020EE
:10A2F000C3F8046302B0BDE8F087013740F821706D
:10A300002068D0F804359D42EED00D2002B0BDE8A3
:10A31000F0872368013743F821700C4B4FF48060BD
:10A3200043F0010398472068D0F804359D42DBD004
:10A33000EBE7064A4FF4806042F001029047226842
:10A3400042F8058052590192019AB0E750E60300A5
:10A3500002680223C2F8443311B10268C2F8043320
:10A36000704700BF0368D3F8040100B970470022AA
:10A3700082B0C3F80421D3F804310193019B01207A
:10A3800002B0704702684FF4803303FA01F1C2F85B
:10A3900048130368C3F80813704700BF50318900A1
:10A3A000036889B2585800B9704700225A5082B0E9
:10A3B0005B580193019B012002B070470368D3F8FA
:10A3C0000405704790F90430002B09DB5A09054851
:10A3D00003F01F030121403201FA03F340F8223059
:10A3E000704700BF00E100E0024A034B10681B68A1
:10A3F000184700BFC8340020D03400200223F0B535
:10A400000B8000F5805E083082B32A4D4FF6FF7452
:10A410000126036801331FD0478807F1030C00EBC6
:10A420008C0CE6451CD38388A34216D00388A3B1C5
:10A430008368B3F1FF3F10D0D5F800C09C4501D22E
:10A440002B6047880B8803333B440B8043880333DE
:10A4500000EB83008645DCD8F0BD16704788F1E735
:10A46000012313704FF480630B80F0BD114D4FF644
:10A47000FF7403680133EFD04388DA1C00EB8202DB
:10A480009645EFD38288A24209D002883AB1826809
:10A49000561C04D02E68B24284BF2A6043880A88C2
:10A4A000033213440B804388033300EB830086455B
:10A4B000DFD8F0BD0C3500202DE9F0414368884617
:10A4C0001BB1334AD468A3423CD2324E0023A8F8D1
:10A4D00000307268012702F5805C4FF6FF75083284
:10A4E00094450DD8022FA8F8007006F114064CD040
:10A4F000726802F5805C083294454FF00207F1D98A
:10A5000013680133EED05388033302EB83039C4579
:10A51000E8D3B2F804E0AE4509D014883CB19468A1
:10A52000611C04D00168A14205D01A46D8E79C45B9
:10A53000D8D91A46E4E7184B42601B8903810120F1
:10A54000BDE8F08112699342BFD813F00305BCD176
:10A55000114A048912899442B7D104689A689442D6
:10A56000B3D10C484268934203D902F5805293421A
:10A5700007D38269934208D902F58052934204D2EC
:10A580000125A8F800500120DAE70020D8E700BF35
:10A590004032002014350020F83400202DE9F04F1F
:10A5A0009B4F8BB004464FF6FF783E68002E00F0BC
:10A5B000BA803278531E052B00F26E82DFE803F07A
:10A5C00058212103033E002C40F0B4803379012B45
:10A5D00000F0B682022B00F0C580002B00F08E82C6
:10A5E00005AD0594C5E902442C6148F20E64069459
:10A5F0003378023B042B49D8DFE803F089756962A0
:10A600004500B6F814A0002C40F05682814D0AEBAC
:10A610008A0305EB83034FEA8A091C895B6803EB15
:10A620008404B37D062B00F22C84DFE813F079015B
:10A6300066019901880145012E010901002C79D19B
:10A64000DFF8F0C19CF80C30002B00F0AA809CF8D9
:10A6500000308CF80C40013B062B00F21D82DFE835
:10A6600013F01903D502C201AE011B0205039A01C2
:10A67000002C40F01A823379032B00F28780DFE848
:10A6800003F0BA63789F05238DF81430624C04F10F
:10A69000100654F8043B284603B19847A642F8D167
:10A6A0005E495F4800243C6001F06AFA5D48012180
:10A6B00001F02EFB00287FF478AF0BB0BDE8F08FDF
:10A6C00004238DF81430F388ADF82030DEE703233F
:10A6D0008DF81430F388ADF820303389ADF822308E
:10A6E000F3680793D2E702238DF814303389ADF86D
:10A6F0002030B388ADF82230F3680793B37DA3F11F
:10A700000603B3FA83F35B098DF82430BEE7012317
:10A710008DF814303389ADF82030B388ADF822308D
:10A72000F3680793B2E73D493D4801F0F7F9064663
:10A7300038603EE74FF4064405AD0023C5E9003319
:10A74000C5E902332B6152E7324D2B78022B00F022
:10A750007C832B7D022B00F08883334B01221A70FF
:10A7600000225A6005AD00240594C5E902442C611D
:10A770003DE72E4A2E480221002333719180116853
:10A78000012201F0AFFF002897D03E68264A05ADB0
:10A79000002305935360C5E902332B6148F20D6431
:10A7A00025E79CF80030072B00F2A282DFE813F0C7
:10A7B000B602A002A002D102ED02F300F3009A0259
:10A7C0001A4C1C4B21681A480022327100925D8895
:10A7D00005EB85030F4D05F8232005EB8305A388C2
:10A7E0002B816B6823600223A380134A69600823CE
:10A7F00001F0E6FEC7E701230C4933710023096825
:10A800000E4A00930A48082301F0DAFEBBE700BFB6
:10A810001035002014350020E034002008350020D9
:10A82000C8350020D8350020F0340020DC35002069
:10A8300040320020F83400205CE6030064E60300A8
:10A84000324641F61D5409EB0A0105EB8101F388FC
:10A850000889033303440B81D144F38805EB890550
:10A860001646C3F57F436A89FD3313446B8105ADFA
:10A8700041F61D5200239442059308BF1C46C5E9CA
:10A8800002332B613FF4B3AEC0E2A54BA54A596831
:10A89000A54BA6481C880623B37500230093042308
:10A8A00001F08EFE10BB04EB840305EB830501234E
:10A8B0002B740BB0BDE8F08F9948B3699A490360D7
:10A8C0004FF0000BC0F804B0FFF7F6FD002800F0D1
:10A8D000AF820223B37504239448CDF800B021461B
:10A8E000F21801F06DFE00283FF4E7AEB37D3A6840
:10A8F000022B48F20D64AFD9A5E7032A0CBF05234C
:10A900000623B375002300938848211D042306F114
:10A91000080201F055FE0028E8D10BB0BDE8F08F29
:10A920000223B37500230093042380482146F218C4
:10A9300001F046FE0028D9D10BB0BDE8F08FF388B6
:10A9400032690120B0750020009004F10C017748B5
:10A950009B0001F035FE0028C8D10BB0BDE8F08F98
:10A9600033697248002B14BF03230123B3750023FE
:10A97000009304F10801042306F10C0201F020FE0B
:10A9800000283FF49AAEB37D3A68022B48F20D647A
:10A990007FF662AF57E7664A6448116800230722D2
:10A9A0008CF800200093634ACCF80430082301F0AF
:10A9B00007FE0446002C3FF480AE3E6857E7BCF823
:10A9C00002305D4D03EB830305EB8305EB68002B41
:10A9D00054D16968554804228CF80020012201F006
:10A9E00081FE0446E6E7DCF8042051485388848859
:10A9F0000168033301EB8401002003249BB2009023
:10AA00009B008CF80040494801F0DAFD0446D1E78C
:10AA100001200346ACF8023000EB800305EB830312
:10AA2000DCF8042059684FEA800E01F58056002AB0
:10AA300000F01D825388033302EB8302964217D93C
:10AA40001368013314D05388033302EB83039E420F
:10AA50000ED39488444505D014881CB19468013401
:10AA600040F001819E4203D91A4613680133EAD1AE
:10AA7000704405EB8005EB68002BABD02C4A2B48CB
:10AA80000523022191808CF80030116800230122F7
:10AA900001F028FE04468DE705AD0023059348F23A
:10AAA0000E64C5E902332B61A1E5244B00225A60F4
:10AAB0004FF4064405AD40E6B37D1F4D022B08D987
:10AAC0000AEB8A0205EB8202F388118903330B44F7
:10AAD00013814FEA8A09D144F38805EB8905C3F550
:10AAE0007F436A89FD3313446B8105AD00230593D1
:10AAF0004FF40644C5E902332B6178E50223337134
:10AB0000CDE9064405ADF36805930DF11201284621
:10AB1000FFF7D2FC002840F04D8148F209640CE6B2
:10AB2000D434002058E60300E835002040320020ED
:10AB3000DC35002064E6030014350020F0340020EA
:10AB4000B44B1B78002B00F05581DFF8D0E2BEF843
:10AB50000490B9F1010F11D8AF4D039409EB8902AC
:10AB600005EB8202137883B109F101091FFA89F319
:10AB7000012BAEF8049002F11402F3D9A748082281
:10AB8000002113F03FFB3E68ECE55368DEF800104F
:10AB900003F5805C03F1080A002900F029814B8845
:10ABA000033301EB83018C4506D8039BCEF80030BC
:10ABB000DAE79C45F9D919460B680133F5D04B8883
:10ABC000033301EB83039C45EFD38C884445F0D0DD
:10ABD000B1F800B0BBF1000FEBD088680130E8D0CD
:10ABE000F388CEF80010A342D6D1002300938C4AFC
:10ABF0008C48042301F0E4FC002840F03B8109EB81
:10AC0000890905EB890501232B7456E5BCF8020080
:10AC1000814DDCF8042000EB800305EB83034FEA51
:10AC2000800E596801F58056002A40F0A98001F194
:10AC30000802B242BFF41CAF136801333FF418AFEF
:10AC40005388033302EB8303B3423FF611AF94887A
:10AC5000444500F0C8801488002C00F0C48094683B
:10AC6000013400F0C080CCF80420BEE6BCF802201D
:10AC7000694D9300134405EB83050624002369689E
:10AC8000694A009367488CF80040082301F098FC5B
:10AC900004468FE69CF80A304BB15F4DE86800230C
:10ACA0008CF80A3018B92B7C002B40F0E8809CF817
:10ACB0000B3053B1584D00238CF80B302B6A23B95D
:10ACC00095F82430002B7FF4A3AE05AD0023059347
:10ACD0008CF80030C5E90233ACF80230CCF804300F
:10ACE0002B6184E401238CF800309CF80A30D3E710
:10ACF000013B062B3FF6D0AE01A252F823F000BF75
:10AD000095AC02000DAC0200E7A90200BFA9020049
:10AD100099AA02006DAC020097A902003E4DBCF852
:10AD200008302A7D0133ACF80830B2FA82F22B7871
:10AD30005209B3FA83F38CF80B2000225B09ACF8BC
:10AD400002208CF80C2001228CF80A308CF80020AC
:10AD5000A2E7BCF80200304D344CDCF8042000EBD4
:10AD6000800305EB830356885968A3880333334473
:10AD7000A38002238CF8003000FA03FE01F5805610
:10AD80005388033302EB830253E7BCF80220224DC1
:10AD9000264902EB820305EB8303888818815868F3
:10ADA0000C6808600220888000215C60197402FA37
:10ADB00000F35FE706991A4A8B88F3800B8833818A
:10ADC000184800940423BDF8124001F0F9FB002854
:10ADD00037D1114B04EB840403EB84040123237467
:10ADE0000BB0BDE8F08FB342BFF442AE1A4623E782
:10ADF0005146D8E605AD21460848082213F002FA6C
:10AE00000594C5E902442C6148F201643E68FFF7ED
:10AE1000EEBB00BFF034002014350020EC350020DC
:10AE200058E60300403200205CE60300DC350020D9
:10AE300005AD059048F20964C5E902002861FFF7F5
:10AE4000D6BB3E6848F20D6477E4002303EB83032E
:10AE500005EB83020D485168002205F8232000927B
:10AE600008230B4A01F0ACFB8DE40123EEE701F16E
:10AE70000802E3E53E6848F20D6405AD5DE4034673
:10AE8000C8E5324648F20E64DDE400BF40320020DF
:10AE90005CE603004068FFF781BB00BF094A116808
:10AEA00004290BD038B5084C15680346012110461B
:10AEB00044F8253000F020FF002038BD48F20B6038
:10AEC000704700BFE4350020E03400202DE9F04F4A
:10AED000974D89B02A780023CDE90333CDE90533B6
:10AEE000079372B1934C04F1100554F8043B03A886
:10AEF00003B19847A542F8D10024204609B0BDE827
:10AF0000F08F281D02F0FF0800F00EFF0028F3D19B
:10AF1000D8F8F83F5C1C42D04FF08052116952695A
:10AF2000DFF838928449C9F810300022A3F5405365
:10AF30004846C9F80C3001F00BFB04460028DCD170
:10AF40007E497F48DFF818A21C238C2200F06AFD9E
:10AF500026464FF0030B2746D9F80C30F018F3586B
:10AF600000F0DD80774A934225D14368764A9342C8
:10AF700073D00132934220D1B8F1000F40F0968097
:10AF8000724B7349186000220193FFF737FA019B57
:10AF90009B88022B0CBF042308231C4326E04FF0A0
:10AFA00010234FF080525B6911695269581C08BF29
:10AFB00002FB01F3B4E701330AD1031D00F5805110
:10AFC00001E099425FD01A68013203F10403F8D01E
:10AFD00007EB87030AEB83020BF1FF3B5060032270
:10AFE00001370AF823201FFA8BFBBFB206F5805603
:10AFF000B6F5405FB0D1BBF1010F40F28A80E4B2F8
:10B00000062C0ED14B4C012200232A706B6004F1F8
:10B01000100554F8043B03A803B19847A542F8D1A2
:10B020006AE702D814F0FD0F73D002A9444800F07B
:10B0300033FD1C220546002113F0E4F8002D62D0F8
:10B040000123013C2B700A2C48D8DFE804F0454767
:10B05000454759475947565F560007EB87030AEBA8
:10B0600083029900506001F1100208314FF0000C8A
:10B070005244514401370AF823C044F00204FFF758
:10B08000BDF9BFB2B2E7314B1A68FAB1314A07EBEA
:10B0900087010AEB81035780022201370AF8212039
:10B0A0005860BFB21A8144F001049FE707EB870C98
:10B0B0000AEB8C020221254B0AF82C10118125493C
:10B0C0004F80196851600137BFB25AE702221860F9
:10B0D0009A804FF00108E6E700232B7102A9184877
:10B0E00000F00CFD1C48012100F0FAFD0446002888
:10B0F0007FF402AFFFF752FAFFE603232B71EDE76F
:10B1000001232B71EAE748F20764F6E602232B716C
:10B11000E4E700232B7048F20A646B60EDE65A1CEA
:10B120003FF44BAF074A93423FF447AF50E700BFAD
:10B13000F0340020E034002084E803003C35002097
:10B14000C8350020DEC0ADDEFE011EF1DC3500207A
:10B15000E0350020F8340020D835002040320020AF
:10B160001435002030B370B50D4682B0F1B10DF149
:10B1700006010446FFF7A0F918B948F2096002B0C9
:10B1800070BDBDF806000D4B666800EB800003EB58
:10B19000800001210C3000F0AFFD2E6063680122B9
:10B1A0000C3300206B60A27202B070BD48F20460E4
:10B1B00002B070BD48F20460704700BF1435002033
:10B1C00010B310B582B00DF106010446FFF774F913
:10B1D000B0B1BDF806300E4A03EB830302EB8303E4
:10B1E000DA684AB1A27A3AB1DA680021013A08462F
:10B1F000DA60A17202B010BD48F2056002B010BD65
:10B2000048F2096002B010BD48F20460704700BF08
:10B21000143500202DE9F047514B1B7882B083B3E1
:10B220000C46002945D00A884FF6FF739A4222D077
:10B230004B8803B34D6815F0030534D1B1F808907D
:10B2400009F103039BB240F2FE32934234D8454ADF
:10B250001178074639B9508911890144194489B2D6
:10B26000B1F5806F2BD9117D89B148F2066528466A
:10B2700002B0BDE8F08748F20365284602B0BDE899
:10B28000F08748F20165284602B0BDE8F087D08B10
:10B29000918B0144194489B2B1F5806FE5D84FF024
:10B2A0000108C2460DE048F20265284602B0BDE83A
:10B2B000F08748F20465DAE748F20865D7E7A84660
:10B2C000AA460AEB8A0A02EB8A0A034401A9264825
:10B2D000AAF80A3000F0E0FB1C220646002112F01A
:10B2E00091FF002E2FD0A6F8148002234FF0000803
:10B2F00086F8168033706368336101211B4800F0C3
:10B30000FBFCF0602388338163881748B38001A970
:10B31000A6F80690A6F80A8000F0F0FB47B1C7F83F
:10B320000480F268124B3A601B8987F80A803B81DF
:10B330001048012100F0D4FC0446002897D1FFF703
:10B340002DF9254693E7BAF80A30C9F57F4909F186
:10B35000FD099944AAF80A9048F2076587E700BFFB
:10B36000F034002014350020C83500200C350020B2
:10B37000F8340020D83500202DE9F04782B068B3BA
:10B38000524B1B78002B41D00C4639B30A884FF63C
:10B39000FF739A4234D04B8893B34E6816F003067D
:10B3A0003AD1B1F808A00AF103039BB240F2FE3291
:10B3B000934234D8464A1178054639B951891089E3
:10B3C0000844184480B2B0F5806F2BD9117D59B173
:10B3D00048F20666304602B0BDE8F08748F20466DF
:10B3E000304602B0BDE8F087D18B908B08441844FA
:10B3F00080B2B0F5806FEBD84FF00109C84613E07A
:10B4000048F20366304602B0BDE8F08748F20166B4
:10B41000304602B0BDE8F08748F20266DAE748F24B
:10B420000866D7E7B146B04608EB880802EB880803
:10B430000B442848A8F80A3001A900F02DFB1C2273
:10B440000746002112F0DEFE002F32D04FF0000838
:10B450000323A7F8149087F816803B7063683B615C
:10B4600001211D4800F048FCF86023883B81638877
:10B47000BB800423A7F806A0BB752B68BB6101A99C
:10B480001448A7F80A8000F039FBC5F80480FA6870
:10B49000124B2A601B89124885F80A802B810121F2
:10B4A00000F01EFC0446002894D1FFF777F82646EA
:10B4B00090E7B8F80A30CAF57F4A0AF1FD0A9A44C3
:10B4C000A8F80AA048F2076684E700BFF03400201D
:10B4D00014350020C83500200C350020F834002039
:10B4E000D835002070B51D4B1B7882B00BB34FF6DA
:10B4F000FF739842044626D001A9194800F0CCFAFF
:10B500001C220546002112F07DFEBDB10523012657
:10B510002B70EC8001A912482E7100F0EFFA11484F
:10B52000314600F0DDFB044690B10024204602B015
:10B5300070BD48F20164204602B070BD48F2076455
:10B54000204602B070BD48F20364204602B070BDD0
:10B55000FFF724F8204602B070BD00BFF034002091
:10B56000C8350020D835002010B5194B1B7882B0A3
:10B57000F3B101A9174800F08FFA1C2204460021FC
:10B5800012F040FEF4B106232370124801A900F026
:10B59000B5FA114B1A780AB101221A730F4801212A
:10B5A00000F09EFB044640B10024204602B010BDCE
:10B5B00048F20164204602B010BDFEF7EFFF2046BE
:10B5C00002B010BD48F20764204602B010BD00BFB3
:10B5D000F0340020C8350020F8340020D835002091
:10B5E0002DE9F047374C2478002C5FD0002A61D039
:10B5F000002B5FD09C88012C60D8334D661C04EB77
:10B60000840405EB84058A462C78B6B24FF6FF77A2
:10B610004FF0000844B1022E9E8005F114054DD074
:10B620002C780226002CF6D11C68D5F804C00CF545
:10B63000805E002C37D0B4F802C00CF1030C04EB90
:10B640008C04744505D3C3F80080E4E7E645FAD9D5
:10B65000644621680131F6D0B4F802C00CF1030C45
:10B6600004EB8C0CE645EED3B4F80490B945EDD06C
:10B67000B4F80090B9F1000FE8D0A1680131E5D02D
:10B680001C60B4F804C08445CFD1B4F800C0D445E0
:10B69000CBD1A168116019680C4B51601B891381D3
:10B6A0000020BDE8F0870CF10804CAE748F2016009
:10B6B000BDE8F08748F20460BDE8F08748F2096011
:10B6C000EFE700BFF034002014350020F8340020EC
:10B6D000364B1B78002B60D0002961D0002A5FD048
:10B6E0002DE9F043B2F804E0BEF1010F5BD8304B16
:10B6F0000EF101050EEB8E0E03EB8E0EADB29EF831
:10B7000000304FF6FF764FF000094BB1022D9580C7
:10B710000EF1140E47D09EF800300225002BF5D113
:10B720001368DEF804C00CF58054002B32D0B3F857
:10B7300002C00CF1030C03EB8C03A34205D3C2F847
:10B740000090E3E76445FAD963461F680137F6D0F5
:10B75000B3F802C00CF1030C03EB8C0C6445EED380
:10B76000B3F80480B045EDD0B3F80080B8F1000F15
:10B77000E8D09F680137E5D013601C888442D0D19F
:10B780009B680B6012680B4B4A601B890B81002081
:10B79000BDE8F0830CF10803CFE748F20160704781
:10B7A00048F20460704748F20960F1E7F034002085
:10B7B00014350020F8340020364B1B78002B60D065
:10B7C000002961D0002A5FD02DE9F043B2F804E0EF
:10B7D000BEF1010F5BD8304B0EF101050EEB8E0E62
:10B7E00003EB8E0EADB29EF800304FF6FF764FF0B1
:10B7F00000094BB1022D95800EF1140E47D09EF832
:10B8000000300225002BF5D11368DEF804C00CF5DA
:10B810008054002B32D0B3F802C00CF1030C03EBC0
:10B820008C03A34205D3C2F80090E3E76445FAD93C
:10B8300063461F680137F6D0B3F802C00CF1030C61
:10B8400003EB8C0C6445EED3B3F80480B045EDD027
:10B85000B3F80080B8F1000FE8D09F680137E5D059
:10B8600013609C888442D0D19B680B6012680B4B9C
:10B870004A601B890B810020BDE8F0830CF10803AE
:10B88000CFE748F20160704748F20460704748F221
:10B890000960F1E7F034002014350020F83400206E
:10B8A00020B119B103680B600020704748F20460B2
:10B8B000704700BF2DE9F84F574B1B78002B00F065
:10B8C000A3800446002800F0A3801222002112F079
:10B8D00099FCDFF84C8160882189B4F80AC0A789F7
:10B8E0004E4A0323238000254FF6FF7E5389B2F88A
:10B8F0000890994453681FFA89F9002B56D01E68A6
:10B90000464553D15B6803F16E6303F5FF330233A1
:10B91000012B4BD8414ECC44C9F5806305EB85091A
:10B9200006EB89099BB2D9F80C90484480B260803C
:10B93000B2F80A904944BB421FFA8CFC89B288BF16
:10B94000A3812181A4F80AC0D2F8049088BF1F46C1
:10B9500009F1080309F580591E68013621D0B3F8B2
:10B9600002A00AF1030A03EB8A0AD14538D3B3F8DF
:10B9700004A0F2451ED0B3F800A0BAF1000F19D010
:10B980009E68013616D0B4F804A00AF1010AA4F8A2
:10B9900004A0B3F802A00AF1030A03EB8A03994555
:10B9A000DAD8143275B30020BDE8F88F2388013B44
:10B9B0002380AFE7B4F806B0B4F80EA00BF1010B8A
:10B9C000A4F806B0B3F802B00AF1030ADA44A4F806
:10B9D0000EA0B3F802A00AF1030A03EB8A03DEE724
:10B9E000A9EB03094FF00103B4F806A02374E3891F
:10B9F0000AF1010A03EBA903A4F806A0E3811432BB
:10BA0000002DD0D1012571E748F20160BDE8F88F23
:10BA100048F20460BDE8F88FF034002014350020AF
:10BA2000DEC0ADDE99B110B4B2FBF3F403FB142415
:10BA3000A4B244B9C0E9001484608281C381204665
:10BA40005DF8044B704709205DF8044B70470E20E9
:10BA5000704700BF82B050E8022FC188B2EB324F6E
:10BA60004FF0000317BF92B241EA014142EA01419F
:10BA700004E04268B2EB324F08BF012340E80212F3
:10BA8000002AE8D18DF807309DF80730002B0CBF55
:10BA90001120002002B0704710B483B050E8013F7D
:10BAA0001FFA83FCC489A4448489A44528BFACEB55
:10BAB000040C0489A44502BFBFF32F8F002207E0C6
:10BAC000CCEA030C40E801C4002CE7D14FF001029E
:10BAD0008DF803200193019C9DF803200C6032B186
:10BAE000006810FA84F003B05DF8044B704702F070
:10BAF000FF03184603B05DF8044B70470A884B8873
:10BB00009A4201D00020704750E8012FC2EA024259
:10BB100040E80123002BF7D10120704710B483B017
:10BB200050E8023F1FFAA3FCC488A44502BFBFF33C
:10BB30002F8F00220EE0C489A4448489A44528BF25
:10BB4000ACEB040CC3EA0C4C40E802C4002CE7D177
:10BB50004FF001028DF803200193019C9DF8032012
:10BB60000C6032B1006800EB144003B05DF8044B88
:10BB7000704702F0FF03184603B05DF8044B7047AE
:10BB80000A884B889A4201D00020704750E8022F63
:10BB9000C2EA224240E80223002BF7D1012070477D
:10BBA0004B0901F01F024FF0010C0CFA02F100EBFF
:10BBB000830000F07DB800BF4B0910B501F01F04F1
:10BBC0000121A14000EB830000F066F8E04000F0A6
:10BBD000010010BD01F01F02012303FA02F24B091C
:10BBE00000EB8300D14300F06FB800BF4B0901F0B8
:10BBF0001F0150F82300C84000F00100704700BF4B
:10BC00002DE9F04F01F1FF3B83B04FEA5B130F4684
:10BC10000546019300264FF0010A55F8264005EB32
:10BC20008608E44394FAA4F4FCB1B4FA84F404EB77
:10BC300046144FEA4619A74217D904F01F036009BA
:10BC40000AFA03F105EB80009B4600F025F820FA84
:10BC50000BF0C30711D5D8F80030DB4393FAA3F3F8
:10BC6000B3FA83F44C44002BE5D1019AB24206F1B9
:10BC7000010301D01E46D0E73C46204603B0BDE894
:10BC8000F08F00BF034653E8000F0A4643E8002C3C
:10BC90009CF0000FF7D17047034653E8000F40EACD
:10BCA000010243E8002C9CF0000FF6D1704700BF62
:10BCB000034653E8002F42EA010043E8000C9CF0E1
:10BCC000000FF6D1704700BF034653E8002F02EA89
:10BCD000010043E8000C9CF0000FF6D1704700BF54
:10BCE000034653E8000F00EB010243E8002C9CF0F0
:10BCF000000FF6D1704700BF034653E8002F02EB58
:10BD0000010043E8000C9CF0000FF6D1704700BF23
:10BD1000034653E8002FA2EB010043E8000C9CF01F
:10BD2000000FF6D1704700BF0346012253E8000F11
:10BD300040EA020143E8001C9CF0000FF6D1704776
:10BD40000346012253E8001F41EA020043E8000CC9
:10BD50009CF0000FF6D170470346002253E8000F15
:10BD600000EA020143E8001C9CF0000FF6D1704786
:10BD7000D0B110B4D0E90112521A0468D2B2531EE5
:10BD80002160DBB252B101680A6803F1FF3C541C28
:10BD90000C6013705FFA8CF3FF2BF4D10368002062
:10BDA00018715DF8044B70470E20704730B583B0B2
:10BDB000044600250DF107008DF80750FEF778F9CD
:10BDC000D4E900311A688A4210D9511E19602168DD
:10BDD000A3680D6812F8012C208A5B1BE56800FB44
:10BDE00002550A79DBB29A4238BF0B719DF8070001
:10BDF000FEF784F9284603B030BD00BF30B50546D4
:10BE000083B00DF1070000230C468DF80730FEF7D4
:10BE10004FF92A681368591C1160E9682A8A641A64
:10BE2000B4FBF2F41C709DF80700FEF767F903B04D
:10BE300030BD00BF826842B110B504464369016855
:10BE4000006998470023A36010BD70470EB400B589
:10BE500082B0039921B104AB01AA019300F0B6F8B6
:10BE600002B05DF804EB03B0704700BF2DE9F04F5E
:10BE7000154683B0A942DDF830900D9A0F4606466C
:10BE80009A46C0F09E800B464FF00108B3FBF5F3D5
:10BE90009D4208F10108F9D9D04538BFD04612F0CB
:10BEA0000103019302D1B9F1000F67D1B268BAF171
:10BEB000010F4FF0010406D90AF1FF3ABAF1010F60
:10BEC00005FB04F4F8D8B7FBF4F39D4205D805FB55
:10BED00004F4B7FBF4F39D42F9D9DFF8ECA007E0D6
:10BEE000AC42B4FBF5F31AD3B2681C46B7FBF3F3CC
:10BEF0001AF803B0BBF10A0F04FB137728D033689C
:10BF0000511CB16003F802B0D6E901329A42E7D37E
:10BF10003046FFF78FFFB4FBF5F3AC42E4D2019B50
:10BF20009BB1B9F1000F10D02024C84509F1FF39A9
:10BF30000BD2B3683268591CB160D454D6E90132CF
:10BF40009A4214D2B9F1000FEFD103B0BDE8F08FDF
:10BF5000511C3368B1604FF00D019954D6E901329C
:10BF60009A42CCD33046FFF765FFB268C7E7304648
:10BF7000FFF760FFB9F1000FD7D1E6E793071AD4B6
:10BF80002024B268C84502F1010190D23368B16043
:10BF90009C54D6E901329A4209F1FF3903D2B9F132
:10BFA000000FEFD183E73046FFF744FFB268B9F1E5
:10BFB000000FE7D17BE7BAF1000F0CBF302420243B
:10BFC000DFE74FF0010867E778E60300002900F09B
:10BFD0005C822DE9F04FDFF870950D7885B006464C
:10BFE00090460C464FF00D0A0FE00A2DB36800F0A2
:10BFF0008E803268591CB160D554D6E901329A421C
:10C0000080F081802578002D69D00134002D66D024
:10C01000252DEAD10027234614F8012B2D2A6CD0B8
:10C02000302A6DD02B2A61D02A2A7FD0A2F130018C
:10C0300009294FF000050BD805EB850502EB4505F6
:10C0400013F8012FA2F130010929A5F13005F3D928
:10C050002E2A1C4675D0002301E014F8012F02F0AF
:10C06000FB016829F9D0252A00F08681583AD1B21F
:10C07000202930D8202A2ED8DFE812F021002D0008
:10C080002D002D002D002D002D002D002D002D0048
:10C090002D00FE0079002D002D002D002D007900CF
:10C0A0002D002D002D002D002D002D00BD002D0098
:10C0B0002D001A012D0016012D002D002100D8F8A9
:10C0C00000101022081DC8F8000009683046CDE9AC
:10C0D0000057FFF7CBFE01342578002D95D1337B37
:10C0E000002B40F0438105B0BDE8F08F234614F8E3
:10C0F000012B2D2A47F0040792D147F001078AE768
:10C1000047F0020787E73046FFF794FE7AE7326888
:10C11000591CB16002F803A0D6E901239342FFF451
:10C1200068AF3046FFF786FEB36862E7D8F80020B4
:10C13000111DC8F8001015685A782E2A03F1010461
:10C1400089D16278A2F13003092B04F101044FF088
:10C15000000384D803EB830302EB430314F8012F9D
:10C16000A2F130010929A3F13003F3D977E7D8F818
:10C170000020111DC8F80010D2F800B08BEAEB7255
:10C18000A2EBEB72092A40F3DB81DFF8C0C3012088
:10C1900011466329ACFB02E200F101004FEAD20232
:10C1A000F6DC9842024638BF1A460292002D00F093
:10C1B0001E81BBF1000FC0F22E817A0700F12B81A6
:10C1C000B80740F12A81002B40F02781BBF1000F16
:10C1D000C0F27D817A0700F18D8107F00302022A07
:10C1E00000F05D81CDE9005759460A223046FFF73D
:10C1F0003DFE013470E7D8F800301A1DC8F8002061
:10C200001F68B3683268581C3021B060D154D6E939
:10C210000123934280F0FA80591C3268B160782182
:10C22000D154D6E901329A4280F0EB800F2F03D926
:10C230003B461B090F2BFCD84FF0805506E00F2D15
:10C240004FEA15137FF647AFB2681D46B7FBF5F30B
:10C2500019F803B0BBF10A0F05FB137777D03368E9
:10C26000511CB16003F802B0D6E901329A42E6D31C
:10C270003046FFF7DFFDE2E7D8F800301A1DC8F8B6
:10C2800000201D78B3680A2D00F03A813268591CED
:10C29000B160D554D6E901329A42FFF41CAF304662
:10C2A000FFF7C8FD013417E7D8F800100A2209E7A4
:10C2B000D8F800301A1DC8F8002017F00107D3F88D
:10C2C00000B064D1BBF1000F03D0584611F0ACFFB1
:10C2D0000746BD4215D9202201E0BD4211D0B16808
:10C2E0003368481CB0605A54D6E90130984205F1D1
:10C2F000FF35F2D33046FFF79DFDBD424FF02002DF
:10C30000EDD19BF80050002D3FF4E5AE0A2DB0684A
:10C310000FD03368421CB2601D54D6E901309842F8
:10C3200080F0B4801BF8015F002D3FF4D4AE0A2DDD
:10C33000EFD13368421CB26003F800A0D6E90130A7
:10C340009842E6D33046FFF775FDB068E1E7336801
:10C35000511CB16003F802A0D6E901329A42FFF401
:10C360007EAF3046FFF766FDB26878E7304605B02D
:10C37000BDE8F04FFFF75EBDB3683168581CB06090
:10C38000CA54D6E901329A4289D20134A4E69BF814
:10C390000030002B00F0D680B0685F46CBF1010280
:10C3A0000A2B02EB070B5ED0411CB16031680B54C5
:10C3B000D6E90130984248D217F8013F002BEFD15F
:10C3C0005D457FF688AE202702E05D453FF483AEF1
:10C3D000B2683368511CB1609F54D6E901329A4269
:10C3E00005F1FF35F1D33046FFF724FDEDE7B8073F
:10C3F00005D5002B3FF4EAAEF9073FF5E7AE00257F
:10C40000E4E63046FFF716FDB2680FE73046FFF767
:10C4100011FDB36800E7013DD2E6F9073FF5D6AE5E
:10C42000002DECD020220299A942BFF4CFAEB16812
:10C43000481CB06030684254D6E90101814205F1E0
:10C44000FF356CD2002DEED1D9E730460292FFF7CE
:10C45000F1FC17F8013F002BB2D0029AB0680A2B0A
:10C4600002EB070BA0D1411CB160316801F800A0BC
:10C47000D6E90110884297D33046CDE90232FFF762
:10C48000D9FCDDE90232B0688EE770473046FFF72D
:10C49000D1FC1BF8015F002D7FF438AF1BE6002BA9
:10C4A0007FF4A0AE8DB1302202998D427FF69AAE14
:10C4B000B168481CB06030684254D6E9010181423D
:10C4C00005F1FF3535D2002DEED100258AE6B168A1
:10C4D0003268481CB060CBF1000B2D205054D6E9D7
:10C4E00001219142FFF479AE30460393FFF7A2FC9D
:10C4F000039B72E6B1683268481CB0602B20EDE700
:10C500003268591CB16002F803A0D6E901239342B6
:10C51000FFF4BCAE3046FFF78DFCB368B6E630469C
:10C520000393FFF787FC039B2022002D7FF47BAF52
:10C5300065E730460393FFF77DFC039B3022C2E79B
:10C5400001202EE69B463BE778E60300CDCCCCCC21
:10C5500010B582B038B1B9B101600B68114602B0B4
:10C56000BDE810401847104B1048114A1149C01A35
:10C57000C0080E240004104B009440F0010001F0AC
:10C5800001FB0E2002B010BD074B08480B4A0949B9
:10C59000C01AC0080E240004074B009440F00100AC
:10C5A00001F0F0FAEDE700BF1C3E0400AC3E0400D1
:10C5B00088E6030090E6030064E80300BCE603009D
:10C5C0002DE9F04182B0002859D01546002A5FD0ED
:10C5D0000768002F65D01C466BB34668D6F8048008
:10C5E000B3FBF8F608FB163676BB11F0030F34D117
:10C5F000AD073BD1C568A94211D22E4B2E482F4A18
:10C60000C01A1024C0082E4BA0402E49009440F0C0
:10C61000010001F0B7FA204602B0BDE8F0810569DB
:10C6200001F1FF3E7444AC42E7D8FC68A44602B076
:10C63000BDE8F04160471F4B1F48234AC01AC0089D
:10C640001F4B09240004E0E71A4B1B481F4AC01A7D
:10C65000C0081B4B09240004D7E7164B16481C4A98
:10C66000C01A1024C008164BA040CEE7114B124848
:10C67000184AC01A1024C008114BA040C5E70D4B42
:10C680000D48154AC01AC0080D4B0E240004BCE723
:10C69000084B0948114AC01AC008094B0E2400046F
:10C6A000B3E7044B04480E4AC01AC008044B0824E0
:10C6B0000004AAE71C3E0400AC3E04008CE7030023
:10C6C00050E8030090E60300D8E6030024E70300E7
:10C6D00050E7030068E7030088E603001CE7030057
:10C6E000C4E60300F0B583B000283AD00668002EF7
:10C6F00040D022B3446827687C1E0C4228D1C4680D
:10C70000A14210D2204B2148214AC01A1024C0084F
:10C71000204BA0402049009440F0010001F032FA83
:10C72000204603B0F0BD4C1E07FB024E0469A6452F
:10C73000E8D83469A44603B0BDE8F0406047124B26
:10C740001248164AC01AC008124B09240004E1E737
:10C750000D4B0E48124AC01A1024C0080D4BA040C1
:10C76000D8E7094B09480F4AC01AC008094B0E24E4
:10C770000004CFE7044B05480B4AC01AC008054B1C
:10C7800008240004C6E700BF1C3E0400AC3E0400C1
:10C79000DCE703003CE8030090E60300D8E6030072
:10C7A000B4E7030088E60300C4E6030018B1036899
:10C7B0000BB1DB69184770B50B4B0C4C0C4E1B1BB7
:10C7C000A6FB0326132B4FEA161688BF002509D9AE
:10C7D000236820460135143413B1DB69984710B93A
:10C7E000B542F5D3002070BD543200204032002005
:10C7F000CDCCCCCC29DF704728DF70470846704786
:10C8000000207047024B187A003818BF012070478B
:10C8100090360020034B187A0122B0FA80F05A7447
:10C82000400970479036002008B510461A4611F0AE
:10C83000C1FC002008BD00BF08B514220021044837
:10C8400011F0E0FC0348FFF705F9002008BD00BF28
:10C85000903600208036002010B50A4C0A4B436009
:10C860002046FFF761FA08B1002010BD02F074FE07
:10C8700002462274054906481C238C22FFF7D2F891
:10C88000002010BD9036002078E80300F435002029
:10C890008036002030B53B4D2B7A87B0002B3AD044
:10C8A000394B1C6802232B722379002B3ED0012BBD
:10C8B00025D022689368C3B10023CDE902330093E9
:10C8C000049303230193A36805932379002B4BD092
:10C8D000012B07D102238DF80030E36861690491D0
:10C8E0001B03029393686846984728492848002309
:10C8F0002B726B6007B0BDE83040FFF741B9D4E957
:10C9000003031844FFF778FF20B31128D1D1012386
:10C910002B7207B030BD1D491D48FFF7FFF81A4BB9
:10C92000044618600028BDD16860F2E7D4E9052309
:10C93000D21AB2F5805F28BF4FF480529208E168A6
:10C940002069012A38BF012219441844FFF752FF19
:10C950000028DAD12B7C002BDBD10146022007B066
:10C96000BDE8304000F016B801238DF8003023698F
:10C970000293E1686369CDE90313684693689847B9
:10C98000B3E700BF90360020A8360020A436002070
:10C9900080360020831E012B42D810B5354C237AF7
:10C9A00086B0002B3AD0022B31D103283ED0324B37
:10C9B00000221B68E2601A79002A44D0012A26D19D
:10C9C000D3E9042101328A421A6120D10020207269
:10C9D00019688A68BAB10022CDE902220092049255
:10C9E0009A68019005921A79002A39D0012A07D154
:10C9F00002228DF80020DA6858690490120302922E
:10CA00008B68684698471D491D48FFF7B9F8637C55
:10CA10003BB906B0BDE81040FFF73CBF06B010BD03
:10CA2000704706B0BDE8104002F086BDE3680133F0
:10CA3000082B01D8E360EAE70F4B00221B68E26095
:10CA400022720D20C4E7D3E90512881AB0F5805F81
:10CA500094BF121802F5805291429A61D7D1B5E77E
:10CA600001228DF800201A690292DA685B69CDE92B
:10CA70000323C5E790360020A8360020A436002006
:10CA8000803600202DE9F04184B0074688461848DA
:10CA900003A916461D46FEF7FFFF20B304461C22DD
:10CAA000002111F0AFFB0A9B27606561114F104810
:10CAB000A360002503A9C4F81080E6602571FFF784
:10CAC0001DF8381DFFF730F918B1284604B0BDE84D
:10CAD000F0817B7C002BF9D10190FFF7DBFE019800
