:020000022000DC
:1070000000000420BD720200E5720200E772020077
:10701000E9720200EB720200ED7202000000000053
:10702000000000000000000000000000EF720200FD
:10703000F172020000000000F3720200F57202001B
:10704000FDA90200F772020049B30200F7720200C4
:10705000F7720200F772020039AE0200F772020006
:10706000F7720200F7720200F7720200F772020074
:10707000F7720200F7720200F7720200F772020064
:10708000F77202009D930200F7720200F77202008D
:10709000F7720200F772020019EE0200F7720200A6
:1070A000F7720200F7720200F7720200F772020034
:1070B000F7720200F77202000000000000000000FA
:1070C000F7720200F7720200F7720200F772020014
:1070D000F7720200F7720200F7720200F772020004
:1070E000F7720200F7720200F7720200000000005F
:1070F00000000000F772020000000000F7720200BA
:10710000000000000000000000000000000000007F
:10711000000000000000000000000000000000006F
:10712000000000000000000000000000000000005F
:10713000000000000000000000000000000000004F
:10714000000000000000000000000000000000003F
:10715000000000000000000000000000000000002F
:10716000000000000000000000000000000000001F
:10717000000000000000000000000000000000000F
:1071800000000000000000000000000000000000FF
:1071900000000000000000000000000000000000EF
:1071A00000000000000000000000000000000000DF
:1071B00000000000000000000000000000000000CF
:1071C00000000000000000000000000000000000BF
:1071D00000000000000000000000000000000000AF
:1071E000000000000000000000000000000000009F
:1071F000000000000000000000000000000000008F
:1072000010B5054C237833B9044B13B10448AFF3E0
:1072100000800123237010BD3831002000000000E1
:107220009417030008B5034B1BB103490348AFF3A0
:10723000008008BD000000003C31002094170300CE
:10724000A3F5803A704700BF174B002B08BF134BC4
:107250009D46FFF7F5FF00218B460F461348144A61
:10726000121A07F0DBFF0E4B002B00D098470D4B96
:10727000002B00D098470020002104000D000D488D
:10728000002802D00C48AFF3008007F085FF2000F3
:10729000290005F013FC07F06BFF00BF0000080099
:1072A0000000000000000000000004203831002031
:1072B0002841002000000000000000000649074AA5
:1072C000074B9B1A03DD043BC858D050FBDC03F08E
:1072D0004FF8FFF7B9FF0000E0180300382A00203C
:1072E00038310020FEE7FEE7FEE7FEE7FEE7FEE7B7
:1072F000FEE7FEE7FEE7FEE7704700BF00B583B09C
:10730000044B0093044A402300F036F803B05DF8C4
:1073100004FB00BF1D7302005831002002B32DE9A9
:10732000F843114B114E88461446032743F00109D8
:107330000025224608EB0501002005F0B5FC0346B8
:10734000E41A4FF47A401D4423B9337833B1C84767
:10735000013F06D001233370002CEAD1BDE8F88349
:1073600070473770BDE8F883900503005431002062
:10737000704700BF05F06EBDF0B595B0084600241B
:107380000E4617461D4602F043FD1A9A0D922346FB
:10739000082205A93046CDE9095408978DF82C40FC
:1073A0000C9402F099FDDDE906219DF814308DF86A
:1073B0001140CDE9021203F00302012A28D0022A6B
:1073C00004D0304602F028FD15B0F0BDBDF81650CF
:1073D000C3F3C203C5F389158DF810300827082DB3
:1073E0002C4628BF08243B4622460EA9304602F010
:1073F00073FD2D1B08AB02AA21460EA8274400F0FE
:1074000021FF002DEBD1304602F006FD15B0F0BD96
:10741000BDF814100598C1F38312C3F3C203C0F37F
:107420009525C1F383148DF810300EA930469200D3
:10743000082302F051FD08AB0093224602AB0EA9CF
:10744000284600F089FE304602F0E6FC15B0F0BD9B
:1074500008B5FFF78FFF0448042100F0F9FD034B46
:1074600001225A7108BD00BFC8180300382A002045
:10747000064B074810B500221A7002F05FFC044664
:1074800010B9044802F0E6FE204610BD6832002024
:107490003C180300CC05030030B499B10D490E4DE2
:1074A000491BC90813D00D4C002302E00133994257
:1074B0000AD034F823208242F8D1184655F830001B
:1074C00030BC7047044DF9E7002030BC70470846D7
:1074D000F6E700BF3C180300A41703003431002076
:1074E000094B013903EBC00003290BD8DFE801F099
:1074F0000402080604207047022070474079704754
:107500000079704700207047A4170300704700BF40
:107510002DE9F043904CD4E901239A4285B060D024
:107520000023C4F81834BFF34F8FA568EAB2D31C08
:1075300004EB830114F82330580718D566680B78DC
:1075400003F00303012B42D0022B03D14B880235F9
:1075500005EB9315EAB2D4F81804D31C04EB8301AD
:1075600028B9AE4239D914F823305B07E7D404EBCD
:1075700082026B1CDBB2D26804EB830302F00301CE
:10758000DB680229CDE9012305F102062DD001298E
:1075900000F09280D4F810543DB12B6828469B68C7
:1075A0009847EB681D68002DF7D16C486C4B6D490E
:1075B000C01AC008000440F0020000F073FCD4E9D7
:1075C0000130C01A18BF012005B0BDE8F0830B8858
:1075D0000235C3F383131D44BCE7A66005B0BDE8C4
:1075E000F083002005B0BDE8F083BDF806305E48AA
:1075F000C3F389184546502D28BF502505F10801D1
:1076000065F38F13C1F30901ADF8063002F098FB62
:1076100007460028BED002F0FBFB0023082201A988
:10762000384602F025FCF343DBB20133B5EB830FA0
:107630004FEA83027ED9F1B25FFA82F9033104EB9B
:10764000810138460823A5EB090502F011FCEDB2D3
:1076500009F10803454903F0FC032A46384602F0C5
:1076600007FC08F1030806EB9806D4F81834002B41
:107670006ED1D4F8105465B1EB685A792846394672
:10768000002A61D02B681B689847EB681D68002DA5
:10769000F2D1384602F0C0FB00230DF103008DF853
:1076A000033001F0DFFCD4F8183403B9A6609DF86C
:1076B000030001F0FDFC82E7BDF804202A48C2F374
:1076C0008313062B28BF062363F38912023303F0CA
:1076D0000F018900ADF8042002F032FB07460028B4
:1076E0003FF458AF02F094FB0023082201A938466A
:1076F00002F0BEFBBDF8043013F4707FB5D06FF01C
:1077000001094FF00808A9EB0509F1B2033143461E
:10771000042204EB8101384602F0AAFBBDF80430D4
:107720000136C3F3831309EB0602934208F1040800
:10773000EBD89AE7F1B203312A4604EB8101082322
:10774000384602F095FB8CE71D68002D94D1A0E728
:10775000384602F061FB32E768320020CC170300A4
:10776000A4170300B40503003C1803007432002082
:107770002DE9F04F89B0DFF8E4B10393064600230A
:107780000DF113008DF81330CDE9011201F06AFC00
:10779000DBF80830DBF8047003F58073DB1B072B84
:1077A0007AD80BF21C450BF583680BF214441BE0EE
:1077B000BDF81630C3F3891303334FEA11490AEBBE
:1077C000930A204601F0BEFE08B1CBF808A0494656
:1077D000284601F093FEDBF80830DBF8042003F5BF
:1077E00080739B1A072B58D80121284601F086FE8A
:1077F000404601F09BFE204601F098FEDBF8083081
:10780000DAB2D11C0BEB810C1BF8211001F0040043
:10781000490721D40BEB8202591CD2680592C9B2E8
:1078200002F003020BEB8101012AC96803F1020A8D
:107830002AD0022ABCD04FF00009C2E7BCF80230BF
:107840000EEB9313DAB2D11C0BEB810C1BF8210069
:1078500000F004000028DDD09CF8001001F00301C6
:1078600001290AD0022903F1020E02F10301E5D039
:107870000BEB810C0028EFD1CCE7BCF800200233E1
:10788000C2F383121344DDE7BDF81430C3F383134E
:107890004FEA11499A4494E73A46D3B20333083287
:1078A00040F285119DF813004BF82310CBF804200B
:1078B00001F0FEFBBB1CDBB20BEB8303029ADA6028
:1078C000FB1CDBB20BEB8303039ADA603B1DDBB2DC
:1078D0000BEB8303129ADA607B1DDBB20BEB8303A5
:1078E000139ADA60BB1DDBB20BEB8303149ADA60E8
:1078F000FB1DDBB20BEB8303159ADA6000211648FF
:1079000001F0F2FD80F31001F30003F03803019A57
:1079100043F4C07343F00103781C43EA8222C0B2EF
:10792000FBB2033309040BEB800041EA1641C1604E
:107930004BF823209BF8003023B9FFF7E7FD09B08F
:10794000BDE8F08FFFF7E4FD0028F6D0FFF7E0FD7B
:107950000028F7D1F1E700BF84360020683200200C
:107960002DE9F04F89B0DFF8B4B103930646002348
:107970000DF113008DF81330CDE9011201F072FB07
:10798000DBF80830DBF8047003F58073DB1B042B95
:1079900078D80BF21C450BF583680BF2144419E000
:1079A000BDF81630C3F3891303334FEA114A09EBCC
:1079B0009309204601F0C6FD514608B1CBF8089066
:1079C000284601F09BFDDBE9012303F580739B1A38
:1079D000042B58D80121284601F090FD404601F0C3
:1079E000A5FD204601F0A2FDDBF80830DAB2D11C7B
:1079F0000BEB810C1BF8211001F00400490721D486
:107A00000BEB820203F10209D26805920133DBB26B
:107A10000BEB830302F00302012AD9682AD0022A61
:107A2000BED04FF0000AC4E7BCF802300EEB93134F
:107A3000DAB2D11C0BEB810C1BF8210000F0040022
:107A40000028DDD09CF8001001F0030101290AD0C4
:107A5000022903F1020E02F10301E5D00BEB810CC8
:107A60000028EFD1CCE7BCF800200233C2F3831228
:107A70001344DDE7BDF81430C3F383134FEA114A12
:107A8000994496E73A46D3B203330532C5219DF8AF
:107A900013004BF82310CBF8042001F009FBBB1CAA
:107AA000DBB20BEB8303029ADA60FB1CDBB20BEB5D
:107AB0008303039ADA603B1DDBB20BEB8303129A5C
:107AC000DA600021144801F00FFD80F31001F2008C
:107AD000019B02F0380242F0C102781C42EA832284
:107AE000C0B2FBB2033309040BEB800041EA16413C
:107AF000C1604BF823209BF8003023B9FFF706FD47
:107B000009B0BDE8F08FFFF703FD0028F6D0FFF7BE
:107B1000FFFC0028F7D1F1E784360020683200200E
:107B20002DE9F04FDFF8BCB189B0002406460DF115
:107B300013000393CDE901128DF8134001F092FA7E
:107B4000DBF80830DBF8047003F58073DB1B032BD4
:107B500000F281800BF21C450BF583680BF2144494
:107B60001AE0BDF81630C3F3891303334FEA114905
:107B70000AEB930A204601F0E5FC494600283AD07A
:107B80002846CBF808A001F0B9FCDBE9012303F596
:107B900080739B1A032B5FD80121284601F0AEFCAD
:107BA000404601F0C3FC204601F0C0FCDBF8083081
:107BB000DAB2D11C0BEB810C1BF8211001F0040090
:107BC000490728D40BEB82015A1CC9680591D2B22F
:107BD00001F003000BEB82020128D16803F1020AD5
:107BE00031D00228BDD0204601F0ACFC4FF0000996
:107BF00049460028C4D12846C5E7BCF802300EEB40
:107C00009313DAB2D11C0BEB810C1BF8210000F0AE
:107C100004000028D6D09CF8001001F003010129CF
:107C20000AD0022903F1020E02F10301E5D00BEBA9
:107C3000810C0028EFD1C5E7BCF800200233C2F365
:107C400083121344DDE7BDF81430C3F383134FEA06
:107C500011499A448EE73A46D3B203330432852160
:107C60009DF813004BF82310CBF8042001F020FA04
:107C7000BB1CDBB20BEB8303029ADA60FB1CDBB2AA
:107C80000BEB8303039ADA600021154801F02CFC0A
:107C900080F31001F300019A03F0380343F08103ED
:107CA000781C43EA8223C0B2FAB209040BEB8000CD
:107CB000033241EA1641C1604BF822309BF8003094
:107CC00023B9FFF723FC09B0BDE8F08FFFF720FCD4
:107CD0000028F6D0FFF71CFC0028F7D1F1E700BF21
:107CE00084360020683200202DE9F04FDFF8B0B173
:107CF00087B0002306460DF10B008DF80B30CDE95F
:107D0000001201F0AFF9DBE9018303F58073A3EB07
:107D10000803022B00F281800BF21C450BF58367F0
:107D20000BF214441AE0BDF80E20C2F3891203329C
:107D30004FEA114A09EB9209204601F003FC514633
:107D400000283AD02846CBF8089001F0D7FBDBE9B1
:107D5000012303F580739B1A022B5FD8012128466B
:107D600001F0CCFB384601F0E1FB204601F0DEFBE0
:107D7000DBF80830DAB2D11C0BEB810C1BF82110B8
:107D800001F00400490728D40BEB82015A1CC96892
:107D90000391D2B201F003000BEB82020128D168FB
:107DA00003F1020931D00228BDD0204601F0CAFB00
:107DB0004FF0000A51460028C4D12846C5E7BCF858
:107DC00002300EEB9313DAB2D11C0BEB810C1BF8D3
:107DD000211001F004000028D6D09CF8001001F01A
:107DE000030101290AD0022903F1020E02F1030165
:107DF000E5D00BEB810C0028EFD1C5E7BCF80020E3
:107E00000233C2F383121344DDE7BDF80C20C2F342
:107E100083124FEA114A91448EE74246D3B20333AC
:107E2000033245219DF80B004BF82310CBF80420BA
:107E300001F03EF908F10203DBB20BEB8303019A78
:107E4000DA600021154801F04FFB80F31001F300C8
:107E5000009A03F0380343F0410308F1010043EABC
:107E60008223C0B25FFA88F209040BEB8000033270
:107E700041EA1641C1604BF822309BF8003023B92B
:107E8000FFF744FB07B0BDE8F08FFFF741FB002888
:107E9000F6D0FFF73DFB0028F7D1F1E7843600204C
:107EA000683200202DE9F04FDFF8A0A187B0002351
:107EB00006460DF10B008DF80B30019101F0D2F860
:107EC000DAE9018303F58073A3EB0803012B00F2C9
:107ED00081800AF21C450AF583670AF214441AE00D
:107EE000BDF80E30C3F3891303334FEA11490BEB8E
:107EF000930B204601F026FB494600283AD028463D
:107F0000CAF808B001F0FAFADAE9012303F5807340
:107F10009B1A012B5FD80121284601F0EFFA384661
:107F200001F004FB204601F001FBDAF80830DAB278
:107F3000D11C0AEB810C1AF8211001F0040049074A
:107F400028D40AEB82015A1CC9680391D2B201F00D
:107F500003000AEB82020128D16803F1020B31D041
:107F60000228BDD0204601F0EDFA4FF00009494645
:107F70000028C4D12846C5E7BCF802300EEB9313A5
:107F8000DAB2D11C0AEB810C1AF8211001F00400BE
:107F90000028D6D09CF8001001F0030101290AD076
:107FA000022903F1020E02F10301E5D00AEB810C74
:107FB0000028EFD1C5E7BCF800200233C2F38312DA
:107FC0001344DDE7BDF80C30C3F383134FEA1149C6
:107FD0009B448EE74246D3B20333023205219DF81B
:107FE0000B004AF82310CAF8042001F061F80021C0
:107FF000154801F079FA80F31001F300019A03F0BB
:10800000380343F0010308F1010043EA8223C0B2C0
:108010005FFA88F209040AEB8000033241EA164154
:10802000C1604AF822309AF8003023B9FFF76EFA9F
:1080300007B0BDE8F08FFFF76BFA0028F6D0FFF726
:1080400067FA0028F7D1F1E7843600206832002073
:1080500030B4154DD5F810140446002071B10B460C
:1080600001E01B6853B1DB681A798242F9D1013013
:108070000A28F3D14FF0FF3030BC7047E368187125
:10808000D5F810344BB1DA68E36812681A60D5F895
:108090001034DB681C6030BC7047C5F81044E268DF
:1080A000136030BC704700BF6832002038B5084B01
:1080B000D3F8104401251D704CB1E3685D7123684D
:1080C00020465B689847E3681C68002CF5D138BDF2
:1080D0006832002030B5C38885B004460D4623BB06
:1080E000237A052B1FD0627A82B9144AA08852F8ED
:1080F000232003920021FFF7CFF9039A104903468A
:10810000284605B0BDE8304001F096BA1946A0886F
:10811000FFF7E6F90B4B0C4953F82020284601F0F5
:108120008BFA237AE1E705B030BD08490091084A8F
:108130000849284601F080FAD2E700BFA4060300F0
:10814000040603008006030000060300F805030090
:10815000D8050300E00503002DE9F04385B01D4676
:108160000C9C002394F80C90237380460E4617460F
:1081700021462846FFF7AEFF062F09D8DFE807F0B3
:10818000042E343B444F1F004146204601F054FA70
:108190002B7A052B05D06B7A5BB92749204601F075
:1081A0004BFA204601F03CFA84F80C9005B0BDE88B
:1081B000F083224A2249204601F03EFAEDE7736936
:1081C000039333690293F3680193B3680093D6E98C
:1081D00000234146204601F02FFAD9E73268414694
:1081E000204601F029FAD3E7D6E90023414620468C
:1081F00001F022FACCE7B3680093D6E900234146A8
:10820000204601F019FAC3E7F3680193B3680093BD
:10821000D6E900234146204601F00EFAB8E733695B
:108220000293F3680193B3680093D6E900234146B3
:10823000204601F001FAABE710060300F805030041
:1082400000060300082900D970472DE9F04F1D46AC
:1082500083B000241B7B2C730E460746294610462C
:1082600090460193DFF8D0B0DFF8D0A0FFF732FFDF
:1082700005E03A5D013401F0DFF9082C09D0A6428F
:1082800051462846F5D85946013401F0D5F9082C55
:10829000F5D12449DFF8A8B0234CDFF8A8A0284680
:1082A00001F0CAF94FF0000917E017F80910481C4F
:1082B0007E294FF02E02C0B206D810F80A2012F024
:1082C000970F14BF0A462E222146284609F10109BC
:1082D00001F0B2F9B9F1080F0AD04E45E5D8594678
:1082E000284609F1010901F0A7F9B9F1080FF4D105
:1082F00098F80830052B02D098F809305BB90B4983
:10830000284601F099F9284601F08AF9019B2B7360
:1083100003B0BDE8F08F064A0649284601F08CF903
:10832000EDE700BF2006030024060300100603004B
:10833000F8050300000603001C06030014060300F2
:108340000C060300F815030038B5174B1D783DB334
:10835000164A1168C0B200230C4604E00133AB4258
:1083600004F108041CD011F833209042F6D102F039
:1083700053FD6378A3F10103B3FA83F35B098342EE
:1083800000D038BD0A4BD3E900231343F9D1094B80
:10839000094819680022BDE83840490800F05CBC73
:1083A00000231B78FFDE00BF20370020503700205D
:1083B0002837002024370020402A00202DE9F04FE4
:1083C000DFF8788298F8003083B0002B00F02B8122
:1083D000DFF86C92954F964E00254FF0010AD7F8C2
:1083E00000B01BF8350002F017FD1BF835400BEB11
:1083F000C50361085B7816F801C014F0010EA3F103
:108400000103B3FA83F314BF4FEA1C120CF00F02FE
:108410005B09042A00F2EA80DFE802F0725F332091
:108420000300834240F09F80BEF1000F0CBFF02399
:108430000F230CEA030C0CBF0323302343EA0C0385
:10844000735498F8002001359542C8DBD9E9002320
:10845000134340F0DE8003B0BDE8F08F834200F0AC
:10846000C580BEF1000F0CBFF0230F230CEA030CF4
:108470000CBF0423402343EA0C03735498F80020F4
:10848000E1E7834240F0B580BEF1000F0CBFF0235E
:108490000F230CEA030C98F800200CBF03233023B1
:1084A00043EA0C037354002AD0D0D7F800C000234D
:1084B000614603E0934201F10801C4D01CF8330087
:1084C000A04203F10103F5D14B68002BBBD020463D
:1084D0000121984798F80020B5E7834219BF00238F
:1084E0001A4620230222BEF1000F16BF1A46F023BF
:1084F0000F230CEA03031A43725498F80020A2E7F2
:10850000834273D14FF00003BEF1000F8DF80730A6
:1085100014BF0F23F0230CEA030C14BF1023012314
:1085200043EA0C030DF10700735400F09BFDA4F126
:108530002003C4F120022AFA02F20AFA03F31343D9
:10854000D9F800209DF807000AFA04F42243C9F87C
:108550000020D9F804201343C9F8043000F0A8FD26
:1085600098F800206FE7BEF1000F14BF0F23F0232F
:108570000CEA030398F800C07354BCF1000F12D04A
:1085800038680023024603E0634502F108020AD07E
:1085900010F83310A14203F10103F5D1536813B170
:1085A0000021204698474FF000030DF107008DF899
:1085B000073000F057FDA4F12003C4F120022AFA8D
:1085C00002F20AFA03F31343D9F800209DF80700DA
:1085D0000AFA04F422EA0402C9F80020D9F80420B7
:1085E00022EA0303C9F8043000F062FD98F8002085
:1085F00029E7BEF1000F0CBFF0230F230CEA030C98
:108600000CBF0123102343EA0C03735498F8002095
:1086100019E7084B084819680022490803B0BDE86B
:10862000F04F00F019BBDFF818900FE7503700202B
:108630003037002024370020402A00202037002037
:1086400028370020092A3FD9F0B583B014460546E3
:108650000E4602F065FA88B3204B214A1E70214B6A
:108660001560002120481C60202206F0D7FD1F4B1A
:1086700000200021741EC3E90001E4B236B31C4F90
:1086800005EBC404032602E0A5421FD01C469DF85A
:10869000063094F802C020788DF8046023F00703B8
:1086A0003A4601A98DF806308DF805C002F042FA6D
:1086B000A4F108030028E7D003B0F0BD02F0D6F91A
:1086C0000028C9D003B0F0BD07207047094A0A4806
:1086D000002103B0BDE8F04000F0A6BA203700202A
:1086E0005037002024370020303700202837002062
:1086F00049830200BD830200C406030070B5084D23
:108700002B785BB1074E00243368012113F8340045
:1087100002F012FB2B780134A342F5D8002070BD83
:10872000203700205037002000B585B003460021D7
:1087300001AA44F20100CDE90111039300F004F80D
:1087400005B05DF804FB00BF10B572B6FFF7AEFCD4
:10875000FEF7DEFE0028FBD1104B114C1149E41A44
:10876000E408240444F00100FFF79CFB0E4BD3F80F
:10877000F030DB0700D500BE0C4944F00200FFF7E3
:1087800091FBBFF34F8F0849094BCA6802F4E062BE
:108790001343CB60BFF34F8F00BFFDE7A417030067
:1087A000CC170300C806030000ED00E0D406030068
:1087B0000400FA0559B142B1531E1A4005D1826036
:1087C00001608380C26010467047092070470E2008
:1087D000704700BF10B48468C26803468088121BCB
:1087E000904203D204205DF8044B7047DC681A689D
:1087F00020401154DA680132DA6000205DF8044B41
:10880000704700BF03468068DA6890420DD010B40C
:108810009C689A8818682240825C0A709A680132C3
:108820009A6000205DF8044B70470520704700BF38
:1088300030B48D688468C368CA68A54272EB0303CC
:108840002CBF0120002030BC704700BF10B504468B
:1088500082B000230DF107008DF8073000F002FC14
:1088600023692BB94FF0FF324FF0FF33C4E90223E5
:108870009DF8070000F01CFCD4E905309847002360
:108880000DF107008DF8073000F0ECFB2369BBB158
:10889000D4E90212B2F1FF3F08BFB1F1FF3F0FD0A0
:1088A0005B1842F10002C4E902329DF8070000F0B3
:1088B000FFFB0748214601F0F1FC012002B010BD8A
:1088C0009DF8070000F0F4FB002002B010BD00BFCF
:1088D000F40603002DE9F04F2DED028B83B008EE76
:1088E000100A00F019FD40B1AC4AD2E9003113F191
:1088F000807341F10001C2E9003118EE100A002135
:1089000000F026FDA64D60B32B6853B3A54B2C6831
:108910001B7823B31CB3A44800F02AFD9F4BA34A45
:1089200019685B684018D2E9001243F100038842DD
:1089300073EB020203D210F1807043F10003D4E91B
:1089400002128842934180F02581B2F1FF3F08BFB7
:10895000B1F1FF3F03D09648214601F09FFC002370
:108960002B6018EE100A012100F0F2FC002840F004
:10897000F180904801A900F075FD00283AD08D4C97
:108980004FF0FF384FF0FF3909E033B301A920461B
:1089900000F09AFD01A9204600F064FD50B3037871
:1089A000012B11D0022BF0D1814E304601F08AFC10
:1089B00030B1C0E90289304601F084FC0028F8D1CA
:1089C000784B01221A70E1E72B684168994200F068
:1089D000B580774801F080FCD8E74168D1E90223EF
:1089E000B3F1FF3F08BFB2F1FF3FCFD0704801F0B5
:1089F00055FCCBE76E4FDFF8B081DFF8A091384629
:108A000001F066FC002852D0D0E90223B3F1FF3F09
:108A100008BFB2F1FF3F00F08D80296891B129684D
:108A2000D1E9020182428B4144D22B68D3E902236F
:108A3000B3F1FF3F08BFB2F1FF3F03D029683846CA
:108A400001F02CFC384601F03DFC04464046574EF0
:108A5000D4E902BA00F08CFCD9E90013326840185E
:108A600043F100039042726873EB020203D210F1EB
:108A7000807043F10003BBEB00006AEB03030128A5
:108A800073F1000324DBB0F5350F4DD25A464FF495
:108A900096030021404600F0B9FB80B10D281BD0A1
:108AA000002338462B6001F013FC0028ACD12B6862
:108AB000002B66D003B0BDEC028BBDE8F08F2B68B5
:108AC000002B3ED02C6003B0BDEC028BBDE8F08FD4
:108AD0000021404600F030FC324B1B78002BDFD0E9
:108AE000404600F045FCD9F80030D6E90012C01825
:108AF000D9F8043043F10003884273EB020203D239
:108B000010F1807043F10003D4E9021288429341CE
:108B10001CD2B2F1FF3F08BFB1F1FF3FC0D02146E8
:108B2000384601F0BBFBBBE7404600F021FC224A7F
:108B30000244ACE7384601F0C5FB60E700232B6038
:108B400024E718EE100A00F02FFBBBE72046FFF7E2
:108B50007DFEA5E71448154E00F00AFC0F4B1A687D
:108B60005B688018D6E9001243F10003884273EB7A
:108B7000020203D210F1807043F10003C6E9000342
:108B8000F7E618EE100A03B0BDEC028BBDE8F04F1B
:108B900000F00EBB2046FFF759FEE0E658370020F4
:108BA000D837002060370020602A0020D03700200E
:108BB000F4060300BC370020FFFFB40010B5134BD0
:108BC00013491C68134882B008235822019400F00E
:108BD000EFFB044610B1204602B010BD0E4A0F480C
:108BE00001A900F07DFA04460028F4D10B480121C8
:108BF00000F088FB01231946094A084800F0DCFA16
:108C0000084B012220461A7002B010BDF006030086
:108C100064370020BC370020D5880200602A00207D
:108C2000FFFF7F00603700206AB19FED097BA1F153
:108C300001010368B1FA81F1490983ED027BC3E9BF
:108C40000412002070470720704700BFAFF3008078
:108C5000FFFFFFFFFFFFFFFFF0B583B004460025D5
:108C600001A817460E468DF8045000F0FBF9D4E930
:108C70000223B3F1FF3F08BFB2F1FF3F06D09DF8DA
:108C8000040000F015FA284603B0F0BD1C4800F0BF
:108C90006FFB1C4B1C4A19685B684018D2E9001234
:108CA00043F10003884273EB020224D3301843F1EE
:108CB0000003A060E3609DF8040000F0F9F9236967
:108CC000A76103B12661114801A900F089FB0346A1
:108CD00070B100250D481D705C6001A900F0B2FB69
:108CE0000028D1D0064800F047FB284603B0F0BD6D
:108CF000042003B0F0BD10F1807043F10003D5E70C
:108D0000602A002058370020D0370020BC370020D0
:108D100030B583B00446002501A88DF8045000F05A
:108D2000A1F9D4E90223B3F1FF3F08BFB2F1FF3F3D
:108D30001CD04FF0FF334FF0FF32C4E902239DF8FF
:108D4000040000F0B5F9104801A900F049FB034602
:108D500048B10122027001A90B485C6000F072FB6F
:108D600058B903B030BD042003B030BD9DF80400F5
:108D700000F09EF9284603B030BD044800F0FCFA2C
:108D8000284603B030BD00BFBC370020602A002059
:108D900030B50478012C83B004D0022C2DD0ECB176
:108DA00003B030BD037A002B3CD04368364D1978B0
:108DB0002846FFF70FFD002855D0344B01901B6863
:108DC0008DF8004068469847A968EB68AA885B1A46
:108DD0009A4227D22E4B01221A70E1E72D492E48E4
:108DE000FFF710FD00282DD0284B03221B688DF8BB
:108DF00000206846984703B030BD284B284D1A78AC
:108E0000C168AA5C01918DF800402649AAB90122E7
:108E100003F10C0002F01AFD1C4B68461B689847D2
:108E200003B030BD1D4B1E4A1B781E49D35C012286
:108E3000ABB11D4802F0E8FFB2E70122181D02F0B5
:108E4000E3FFE9E71548164A03781249D35C01228B
:108E5000A3B1043003B0BDE8304002F06FBF134847
:108E600002F0F4FC9CE7AA68EB689A42ACD0074B8E
:108E70008DF800001B6868469847A5E70C3003B0E2
:108E8000BDE8304002F06ABCE0370020DC3700204B
:108E9000F037002008380020F4370020682A00202E
:108EA00058380020043800206C2A0020742A002042
:108EB0002DE9F0412F4E88B03260002951D08A88C8
:108EC00004460E462C4809681D46FFF773FC10B196
:108ED00008B0BDE8F081B289B1682848FFF76AFCA4
:108EE0000028F5D194F810E0637C254E254FBEF1A3
:108EF000000E18BF4FF0010E002B0FCEEC46ACE871
:108F00000F006368009323680193E3680293A368EA
:108F1000039396E80F0018BF4FF00E088CE80F007F
:108F200008BF4FF000086369174A06936946384640
:108F30008DF814E08DF81C508DF8158001F0EEFCD2
:108F40000028C5D12368114A01331070C0D0104ADF
:108F50003B781049D35C01223BB1381D02F054FF2D
:108F6000B6E7072008B0BDE8F08107F10C0002F079
:108F70006DFCADE7DC370020E0370020F43700203F
:108F800000070300682A0020918D0200F0370020BE
:108F9000583800200438002070B5104D01461048A4
:108FA0002E78FFF72FFC04460EB9204670BD0D4801
:108FB0000D490378CB5C0D4900222A70012243B190
:108FC000043002F021FF0028EFD0FFF7ADFB204670
:108FD00070BD0C3002F03AFCF5E700BFF03700201E
:108FE000E0370020682A002058380020043800208C
:108FF00070B501461548FFF7EDFB044608B1204661
:1090000070BD134D134E2B78F35CA3B1281D02F0F5
:10901000EDFE0028F3D110490C48FFF7F3FB0028C0
:10902000EDD12B780C49F35C53B1BDE870400B488F
:10903000012202F083BE05F10C0002F0FBFBE8E721
:10904000BDE870400648012202F088BBF4370020DA
:10905000682A002058380020083800206C2A002098
:10906000742A002070B4EFF3108472B60D4B9A6826
:10907000AAB9012199600C490C4ED1F880503540B5
:109080001D60C1F88060D1F884505D604FF0FF33FF
:10909000C1F88430027004B962B670BC7047012315
:1090A0000370F8E70C38002000E100E0FC06FFBD8B
:1090B000094B9A687AB170B910B4EFF3108172B6A7
:1090C000064A1C6814605C685460986001B962B616
:1090D0005DF8044B704770470C38002000E100E059
:1090E00010B5294C437944F82320284C04EBC303E2
:1090F0001B79002B3BD103680A88C3F8082590F937
:1091000004308A78002B2ADB03F16043520103F517
:109110006143D2B283F8002390F90430002B09DBBD
:109120001B494FEA531C012203F01F0302FA03F309
:1091300041F82C304279174B44F832001648181A7F
:1091400004EBC201C0084FF0010C000481F804C018
:1091500040F003001149FEF7A5FE002010BD1049A4
:1091600003F00F0352011944D2B20A76D4E70A4B36
:1091700008480C49C01AC008000440F00200FEF77D
:1091800091FE082010BD00BF2038002018380020B4
:1091900000E100E0DC170300A4170300440703000C
:1091A000FCEC00E020070300036801221A6070470E
:1091B000036801225A60704770B405684FF4803428
:1091C0008C40C5F80843056801F1500CC5F84843C8
:1091D0004FEA8C0C05681FFA8CFC002645F80C60E1
:1091E00083B055F80C500195019D056801F5A871F3
:1091F00022F07F4245F821200268C2F8444313B1AF
:109200000368C3F8044303B070BC70472DE9F0470E
:109210004FF4803622F07F4702688E40C2F84863E0
:109220000268C2F80863026802EB810C044601F18F
:109230005005D2F80405DCF84025CCF84005AD0017
:10924000ADB2121A20684FF0000840F8058082B0D5
:109250004059009022F07F42012A00988A469946A0
:1092600041D02268D2F80455C2F844637A1B22F038
:109270007F42012A0AF5A87125D0236843F821709E
:109280002068D0F804557B1BC9F1FF12013B02F5A1
:109290007F4223F07F439A4211D343B1C0F8446325
:1092A00023680020C3F8046302B0BDE8F0870137EB
:1092B00040F821702068D0F804359D42EED00D2092
:1092C00002B0BDE8F0872368013743F821700C4BEA
:1092D0004FF4806043F0010398472068D0F80435CC
:1092E0009D42DBD0EBE7064A4FF4806042F001027A
:1092F0009047226842F8058052590192019AB0E7DE
:109300006007030002680223C2F8443311B1026807
:10931000C2F80433704700BF0368D3F8040100B9F2
:109320007047002282B0C3F80421D3F804310193BE
:10933000019B012002B0704702684FF4803303FAAA
:1093400001F1C2F848130368C3F80813704700BF5F
:1093500050318900036889B2585800B9704700221B
:109360005A5082B05B580193019B012002B07047B4
:109370000368D3F80405704790F90430002B09DB2B
:109380005A09054803F01F030121403201FA03F393
:1093900040F82230704700BF00E100E0024A034B72
:1093A00010681B68184700BF1838002020380020BC
:1093B00099B110B4B2FBF3F403FB1424A4B244B982
:1093C000C0E9001484608281C38120465DF8044BAB
:1093D000704709205DF8044B70470E20704700BFAE
:1093E00010B483B050E8013F1FFA83FCC489A44441
:1093F0008489A44528BFACEB040C0489A44502BFB2
:10940000BFF32F8F002207E0CCEA030C40E801C431
:10941000002CE7D14FF001028DF803200193019C4D
:109420009DF803200C6032B1006810FA84F003B09C
:109430005DF8044B704702F0FF03184603B05DF877
:10944000044B70470A884B889A4201D0002070472D
:1094500050E8012FC2EA024240E80123002BF7D175
:109460000120704710B483B050E8023F1FFAA3FCFC
:10947000C488A44502BFBFF32F8F00220EE0C48929
:10948000A4448489A44528BFACEB040CC3EA0C4C6B
:1094900040E802C4002CE7D14FF001028DF8032010
:1094A0000193019C9DF803200C6032B1006800EB31
:1094B000144003B05DF8044B704702F0FF031846F8
:1094C00003B05DF8044B70470A884B889A4201D07C
:1094D0000020704750E8022FC2EA224240E80223EF
:1094E000002BF7D101207047034653E8000F0A46CE
:1094F00043E8002C9CF0000FF7D17047034653E877
:10950000002F02EB010043E8000C9CF0000FF6D1A5
:10951000704700BF034653E8002FA2EB010043E869
:10952000000C9CF0000FF6D1704700BF03460122EB
:1095300053E8001F41EA020043E8000C9CF0000FD2
:10954000F6D170470346002253E8000F00EA0201FB
:1095500043E8001C9CF0000FF6D17047D0B110B466
:10956000D0E90112521A0468D2B2531E2160DBB254
:1095700052B101680A6803F1FF3C541C0C6013707F
:109580005FFA8CF3FF2BF4D10368002018715DF8AB
:10959000044B70470E20704730B583B00446002559
:1095A0000DF107008DF80750FFF75CFDD4E900319D
:1095B0001A688A4210D9511E19602168A3680D6883
:1095C00012F8012C208A5B1BE56800FB02550A7922
:1095D000DBB29A4238BF0B719DF80700FFF768FDB8
:1095E000284603B030BD00BF30B5054683B00DF14D
:1095F000070000230C468DF80730FFF733FD2A687B
:109600001368591C1160E9682A8A641AB4FBF2F4E1
:109610001C709DF80700FFF74BFD03B030BD00BF85
:10962000826842B110B504464369016800699847F1
:109630000023A36010BD70470EB400B582B003993B
:1096400021B104AB01AA019300F0B6F802B05DF8B5
:1096500004EB03B0704700BF2DE9F04F154683B00F
:10966000A942DDF830900D9A0F4606469A46C0F0A2
:109670009E800B464FF00108B3FBF5F39D4208F1C5
:109680000108F9D9D04538BFD04612F00103019343
:1096900002D1B9F1000F67D1B268BAF1010F4FF0F2
:1096A000010406D90AF1FF3ABAF1010F05FB04F4EF
:1096B000F8D8B7FBF4F39D4205D805FB04F4B7FBDB
:1096C000F4F39D42F9D9DFF8ECA007E0AC42B4FB1B
:1096D000F5F31AD3B2681C46B7FBF3F31AF803B0DC
:1096E000BBF10A0F04FB137728D03368511CB1601B
:1096F00003F802B0D6E901329A42E7D33046FFF7C9
:109700008FFFB4FBF5F3AC42E4D2019B9BB1B9F1FE
:10971000000F10D02024C84509F1FF390BD2B368DF
:109720003268591CB160D454D6E901329A4214D23D
:10973000B9F1000FEFD103B0BDE8F08F511C3368D1
:10974000B1604FF00D019954D6E901329A42CCD361
:109750003046FFF765FFB268C7E73046FFF760FFA6
:10976000B9F1000FD7D1E6E793071AD42024B268E5
:10977000C84502F1010190D23368B1609C54D6E92A
:1097800001329A4209F1FF3903D2B9F1000FEFD14A
:1097900083E73046FFF744FFB268B9F1000FE7D125
:1097A0007BE7BAF1000F0CBF30242024DFE74FF035
:1097B000010867E768070300002900F05C822DE9D3
:1097C000F04FDFF870950D7885B0064690460C4650
:1097D0004FF00D0A0FE00A2DB36800F08E8032685A
:1097E000591CB160D554D6E901329A4280F081808B
:1097F0002578002D69D00134002D66D0252DEAD1C1
:109800000027234614F8012B2D2A6CD0302A6DD066
:109810002B2A61D02A2A7FD0A2F1300109294FF0EA
:1098200000050BD805EB850502EB450513F8012F64
:10983000A2F130010929A5F13005F3D92E2A1C46E1
:1098400075D0002301E014F8012F02F0FB01682914
:10985000F9D0252A00F08681583AD1B2202930D893
:10986000202A2ED8DFE812F021002D002D002D0037
:109870002D002D002D002D002D002D002D00FE00AF
:1098800079002D002D002D002D0079002D002D00D8
:109890002D002D002D002D00BD002D002D001A01E2
:1098A0002D0016012D002D002100D8F800101022E7
:1098B000081DC8F8000009683046CDE90057FFF7D9
:1098C000CBFE01342578002D95D1337B002B40F061
:1098D000438105B0BDE8F08F234614F8012B2D2AF3
:1098E00047F0040792D147F001078AE747F00207E3
:1098F00087E73046FFF794FE7AE73268591CB1607B
:1099000002F803A0D6E901239342FFF468AF304682
:10991000FFF786FEB36862E7D8F80020111DC8F88B
:10992000001015685A782E2A03F1010489D1627853
:10993000A2F13003092B04F101044FF0000384D895
:1099400003EB830302EB430314F8012FA2F1300170
:109950000929A3F13003F3D977E7D8F80020111DC6
:10996000C8F80010D2F800B08BEAEB72A2EBEB72F1
:10997000092A40F3DB81DFF8C0C3012011466329C7
:10998000ACFB02E200F101004FEAD202F6DC9842A1
:10999000024638BF1A460292002D00F01E81BBF12C
:1099A000000FC0F22E817A0700F12B81B80740F139
:1099B0002A81002B40F02781BBF1000FC0F27D818E
:1099C0007A0700F18D8107F00302022A00F05D8121
:1099D000CDE9005759460A223046FFF73DFE0134D3
:1099E00070E7D8F800301A1DC8F800201F68B36867
:1099F0003268581C3021B060D154D6E9012393421B
:109A000080F0FA80591C3268B1607821D154D6E9CF
:109A100001329A4280F0EB800F2F03D93B461B099D
:109A20000F2BFCD84FF0805506E00F2D4FEA151391
:109A30007FF647AFB2681D46B7FBF5F319F803B0E0
:109A4000BBF10A0F05FB137777D03368511CB16067
:109A500003F802B0D6E901329A42E6D33046FFF766
:109A6000DFFDE2E7D8F800301A1DC8F800201D78A5
:109A7000B3680A2D00F03A813268591CB160D554A0
:109A8000D6E901329A42FFF41CAF3046FFF7C8FD19
:109A9000013417E7D8F800100A2209E7D8F8003097
:109AA0001A1DC8F8002017F00107D3F800B064D1E0
:109AB000BBF1000F03D0584605F0D8FB0746BD4266
:109AC00015D9202201E0BD4211D0B1683368481C8D
:109AD000B0605A54D6E90130984205F1FF35F2D30F
:109AE0003046FFF79DFDBD424FF02002EDD19BF8BF
:109AF0000050002D3FF4E5AE0A2DB0680FD033685A
:109B0000421CB2601D54D6E90130984280F0B48006
:109B10001BF8015F002D3FF4D4AE0A2DEFD133685E
:109B2000421CB26003F800A0D6E901309842E6D3A7
:109B30003046FFF775FDB068E1E73368511CB1604E
:109B400003F802A0D6E901329A42FFF47EAF304614
:109B5000FFF766FDB26878E7304605B0BDE8F04F24
:109B6000FFF75EBDB3683168581CB060CA54D6E9CF
:109B700001329A4289D20134A4E69BF80030002BCE
:109B800000F0D680B0685F46CBF101020A2B02EBF1
:109B9000070B5ED0411CB16031680B54D6E901302F
:109BA000984248D217F8013F002BEFD15D457FF670
:109BB00088AE202702E05D453FF483AEB26833688B
:109BC000511CB1609F54D6E901329A4205F1FF352C
:109BD000F1D33046FFF724FDEDE7B80705D5002B9C
:109BE0003FF4EAAEF9073FF5E7AE0025E4E630467C
:109BF000FFF716FDB2680FE73046FFF711FDB368B7
:109C000000E7013DD2E6F9073FF5D6AE002DECD0D6
:109C100020220299A942BFF4CFAEB168481CB060BF
:109C200030684254D6E90101814205F1FF356CD21A
:109C3000002DEED1D9E730460292FFF7F1FC17F87C
:109C4000013F002BB2D0029AB0680A2B02EB070B3F
:109C5000A0D1411CB160316801F800A0D6E9011023
:109C6000884297D33046CDE90232FFF7D9FCDDE9CF
:109C70000232B0688EE770473046FFF7D1FC1BF820
:109C8000015F002D7FF438AF1BE6002B7FF4A0AE00
:109C90008DB1302202998D427FF69AAEB168481C90
:109CA000B06030684254D6E90101814205F1FF35C8
:109CB00035D2002DEED100258AE6B1683268481C05
:109CC000B060CBF1000B2D205054D6E90121914218
:109CD000FFF479AE30460393FFF7A2FC039B72E6D4
:109CE000B1683268481CB0602B20EDE73268591C1F
:109CF000B16002F803A0D6E901239342FFF4BCAEA1
:109D00003046FFF78DFCB368B6E630460393FFF7A5
:109D100087FC039B2022002D7FF47BAF65E7304654
:109D20000393FFF77DFC039B3022C2E701202EE660
:109D30009B463BE768070300CDCCCCCCFFF70EBCBD
:109D40002DE9F041058A0331043D4E198046B6FBEA
:109D5000F5F6FFF721FCA0B3F6B24FF48073013E95
:109D600004468380C580C0F800802BD003460025C0
:109D700008E06279AE4202F1010262713860C0F817
:109D800000801FD040461F46FFF706FC0135034602
:109D90000028EED16779791E17D022460133994207
:109DA0001268FBD1D2F800805FB12668002501E07F
:109DB00034463668214640460135FFF715FCAF4270
:109DC000F6D800242046BDE8F08120682146FFF740
:109DD0000BFCF6E7F8B546790146701E13D00A462B
:109DE0000023013398421268FBD1176856B10D6801
:109DF000002401E029462D6838460134FFF7F4FBC2
:109E0000A642F7D8F8BDBDE8F8400868FFF7ECBBFC
:109E100001210430FFF772BB2DE9F0410121044616
:109E20000430FFF777FB10F0FF0301D0BDE8F081AD
:109E30006779791E16D02246013399421268FBD108
:109E4000D2F80080002FF1D02668002501E03446CA
:109E50003668214640460135FFF7C6FBAF42F6D8CB
:109E6000BDE8F08120682146BDE8F041FFF7BCBBAA
:109E70002DE9F8438846C788417907FB01F1043989
:109E800002EB030C1E1D6145154638BFCD1AB742C3
:109E90000446B6FBF7F207FB126002D8013A2468C9
:109EA000FCD13E1AAE4228BF2E469DB14FF00009AC
:109EB0000430AD1B324608EB0901204405F0A0F93F
:109EC000AF42B14424683E464FF0000028BF2E4602
:109ED000002DEDD1BDE8F8832DE9F8430446C7888D
:109EE000407907FB00F0043802EB030C1E1D6045AF
:109EF000154638BFC51AB7428846B6FBF7F107FBCF
:109F0000116202D801392468FCD1BE1AAE4228BFC2
:109F10002E469DB14FF00009111DAD1B3246214464
:109F200008EB090005F06CF9AF42B14424683E46E5
:109F30004FF0000228BF2E46002DEDD1BDE8F8837A
:109F400033DF704741DF7047064A074B10B50024E6
:109F500014701C60BFF35F8F0449054800F088F956
:109F6000204610BD2D380020303800208407030023
:109F70002438002000B583B000230DF107008DF8D0
:109F80000730FFF76FF8F1EE103A23F09F03E1EE90
:109F9000103ABFF35F8F0B4B4022C3F884219DF82A
:109FA0000700FFF785F804F031FF28B920BF40BF54
:109FB00020BF03B05DF804FB03B05DF804EBFFF7CE
:109FC000C1BF00BF00E100E070B5284E044601218A
:109FD0003046FFF789FABFF35F8FD0B9042C40D029
:109FE000234B1A7862BB234D01222C701A70224C2D
:109FF000636823B90EE000F045F9636853B11B684C
:10A000002878984703462046002BF4D1BFF35F8F92
:10A01000336070BDFEF74AF8FDF77AFA0028FBD1ED
:10A020002B78023B012B0FD904F0F0FED8B94FF08A
:10A0300080430122C3F80025BFF34F8F20BFFDE707
:10A04000BFF35F8F306070BDBFF34F8F0B490C4B78
:10A05000CA6802F4E0621343CB60BFF34F8F00BFC6
:10A06000FDE7044DC3E7FFF76BFFE0E73038002062
:10A070002D3800202C3800202438002000ED00E08E
:10A080000400FA0570B5044682B000250DF1070002
:10A090000E468DF80750FEF7E5FF2368A2681868A2
:10A0A0005968914238BF4D1CA84212D0586859686F
:10A0B0008A420BD800225A60E268531E072B19D837
:10A0C000DFE803F04540183B181818330131596098
:10A0D000F2E7217C002941D158685D68AA423AD84C
:10A0E00059602268A16813688B4234BF0133002392
:10A0F0001360E1E76368314600FB023005F080F849
:10A100002268136851688B4282BFA0680130091829
:10A11000CB1A91689DF80700994238BF9360FEF70B
:10A12000C7FF0024204602B070BD636896ED007B37
:10A1300003EBC00080ED007BE2E76368326843F820
:10A140002020DDE76368328823F81020D8E76368B1
:10A1500032781A54D4E701355D60C2E79DF80700F4
:10A16000FEF7A6FF0424204602B070BD70B5044679
:10A1700082B000230DF107000D468DF8073016461A
:10A18000FEF770FF236818685968884211D0196873
:10A190002EB91A68A068824238BF561C1E60E26859
:10A1A000531E072B0DD8DFE803F0411A0C260C0CC8
:10A1B0000C329DF80700FEF77BFF0524204602B015
:10A1C00070BD6368284601FB023105F019F89DF85F
:10A1D0000700FEF76DFF0024204602B070BD6368E3
:10A1E0009DF8070033F811302B80FEF761FF002443
:10A1F000204602B070BD63689DF8070053F8213017
:10A200002B60FEF755FF0024204602B070BD636846
:10A210009DF8070003EBC101D1E90023C5E9002344
:10A22000FEF746FF0024204602B070BD63689DF82B
:10A2300007005B5C2B70FEF73BFF0024204602B05A
:10A2400070BD00BF036818685B68C01AB0FA80F080
:10A2500040097047826800239360826813618268B6
:10A2600053618268D360826853608268136070476C
:10A2700001600B6843604A68934204BF0023436057
:10A28000704700BF436843B1026891680B44436064
:10A290005268934204BF00234360704770B544681E
:10A2A000064620680D4618B908E02468206828B1E1
:10A2B000B368294698470028F7D1206828602560B0
:10A2C00070BD00BF4368186808B102681A60704723
:10A2D00043681868704700BF4368186818B908E0F9
:10A2E0000346006828B18142FAD10A681A60012049
:10A2F000704770471049A1F5947205E052F8333069
:10A30000984238BF61460CD2A1EB020C4FEADC73D5
:10A3100003EBEC035B10914202EBC30CEED8074851
:10A32000704702D90CF10802EEE7DCF80400034B99
:10A33000002808BF18467047C40C0300880B0300B0
:10A3400070B5161E07DD0C468D1914F8010BFEF7CB
:10A350004FFEA542F9D1304670BD00BF10B50C4686
:10A360002046FEF719FE0528FAD0012010BD00BFD7
:10A3700010B44FF08053D3F83021082A23D0844AF8
:10A38000D2F8883043F47003C2F88830BFF34F8F9F
:10A39000BFF36F8F4FF08053D3F83021082A00F0BD
:10A3A000B3804FF01023D3F80022002AC0F2BF8000
:10A3B000D3F80432002BC0F2BA80764B764A1A608A
:10A3C0005DF8044B70474FF080410020C1F80C014C
:10A3D000724AC1F81001C1F83805D3F80414C2F864
:10A3E0002015D3F80814C2F82415D3F80C14C2F8B9
:10A3F0002815D3F81014C2F82C15D3F81414C2F889
:10A400003015D3F81814C2F83415D3F81C14C2F858
:10A410004015D3F82014C2F84415D3F82414C2F818
:10A420004815D3F82814C2F84C15D3F82C14C2F8E8
:10A430005015D3F83014C2F85415D3F83414C2F8B8
:10A440006015D3F83814C2F86415D3F83C14C2F878
:10A450006815D3F84014C2F86C15D3F83411D3F84A
:10A460004434C2F87035052942D84D4B5B5C1BB1B2
:10A470004C4B4D4AC3F88C264C4B5B5C73B14FF090
:10A4800080534B49D3F83021FB20C1F81805082A26
:10A49000D3F834117FF473AF052929D8454B5B5CA1
:10A4A000BBB14FF080524FF08040D2F85832D0F814
:10A4B000E41ED2F8304121F00F0103F00F030B43EB
:10A4C000C0F8E43E082CD2F834117FF458AF0529C7
:10A4D0000ED8394B5B5C5BB14FF08053374AD3F8F1
:10A4E00030314FF40071082BC2F840167FF447AFAB
:10A4F0004FF08043D3F80024D2077FF540AF6FF0D0
:10A500000102C3F800243AE7D3F83431052B08D907
:10A510004FF010224FF08043D2F80822C3F858259C
:10A520003FE7274AD35C002B3FF43BAFF0E7254AD7
:10A530000123C2F80435D2F80034002BFBD04FF0D1
:10A54000102312211F4AC3F80012D2F80034002B46
:10A55000FBD04FF0102312211A4AC3F80412D2F88C
:10A560000034002BFBD000231649C2F80435D1F883
:10A570000034002BFBD0BFF34F8F0549124BCA6844
:10A5800002F4E0621343CB60BFF34F8F00BFFDE7DF
:10A5900000ED00E07C2A00200090D00300C00040C5
:10A5A000CC0C03000050004048810300CC0C030099
:10A5B00000F00040CC0C0300CC0C030000900240E3
:10A5C000C40C030000E001400400FA05074B1B5CCB
:10A5D0001F2B8ABF064A4FF0A04203F01F03D2F898
:10A5E0000405D840C04300F001007047D80C0300B8
:10A5F00000030050064B1A5C1F2A86BF054902F073
:10A600001F024FF0A04101239340C1F80C35704761
:10A61000D80C030000030050064B1A5C1F2A86BFAB
:10A62000054902F01F024FF0A04101239340C1F8F9
:10A6300008357047D80C0300000300504FF0A043CA
:10A6400010B44FF480404FF400544FF400414FF4E5
:10A650008032C3F80845C3F80805C3F80815C3F8E5
:10A6600008255DF8044B70474FF0A04310B44FF439
:10A6700080404FF400544FF400414FF48032C3F84F
:10A680000C45C3F80C05C3F80C15C3F80C255DF890
:10A69000044B70470A4B185C1F288ABF09494FF0CA
:10A6A000A04100F01F00D1F804350122824022EAC7
:10A6B00003001340C1F80805C1F80C35704700BF0E
:10A6C000D80C030000030050074B1B5C1F2B8ABFF4
:10A6D000064A4FF0A04203F01F03D2F81005D840FD
:10A6E000C04300F001007047D40C03000003005089
:10A6F0000B2809D00C2809D0182809D019280CBF1C
:10A7000003204FF0FF307047002070470120704752
:10A7100002207047014B185C704700BFD40C030047
:10A72000C20710B40FD483070AD54FF0A0430C2200
:10A73000C3F82C27C3F83027C3F86027C3F8642771
:10A740005DF8044B70474FF0A04303224FF40051D3
:10A75000C3F834274FF48044C3F83827C3F83C27A4
:10A76000C3F84027C3F808154FF480324FF4004176
:10A77000C3F80845C3F80815C3F80825D3E700BF98
:10A7800010B568B90E4CA368012262703BB1D3E9E1
:10A7900000230020A2609847A368002BF7D110BDCA
:10A7A0000128FCD1064C2369A070002BF7D0D3E917
:10A7B00000230120226198472369002BF7D110BDA7
:10A7C0003438002070B910B5074CA36801226270BC
:10A7D0003BB1D3E900230020A2609847A368002B77
:10A7E000F7D110BD704700BF3438002030B50128C4
:10A7F00083B004D0032821D0B0B103B030BD294CC0
:10A8000000230DF107008DF80730FEF72BFC2378AD
:10A810006BB3E3689DF8070001221344E360A27064
:10A82000FEF746FC03B030BD1F4B0122C3F8802069
:10A83000BFF34F8FBFF36F8F03B030BD194C00F0E3
:10A84000B5F800230DF107008DF80730FEF70AFC7C
:10A85000E368013BE360E3681BB9144BD3F8005491
:10A86000C5B19DF80700FEF723FC03B030BD1048CA
:10A870006360A3602361E36000F08CF804F0C6FA23
:10A8800060B10A4A01232370D2F80024002AC0D004
:10A89000A370BEE700F09CF8A570E2E700F086F830
:10A8A000EFE700BF3438002000E100E00000014085
:10A8B00081A7020030B50A4B0A4C53F8213054F8F6
:10A8C0002110027885B0D0E901548DF80020C268CB
:10A8D00001958DF8084003926846984705B030BD51
:10A8E000503800204838002030B50A4B0A4C53F845
:10A8F000213054F82110027885B0D0E901548DF848
:10A900000020C26801958DF8084003926846984778
:10A9100005B030BD5038002048380020F0B5184B45
:10A92000067843F82620174B0446487F985515466D
:10A93000154A8E46096942F8261022789F5CBEE8C7
:10A940000F0089B0EC46ACE80F009EE80F008CE8E1
:10A950000F0004964FB1002D0C4A694608BF2A46E5
:10A96000201D01F0DDF809B0F0BD002D084A694650
:10A9700008BF2A4604F10C0000F0FAFD09B0F0BD52
:10A98000503800205838002048380020B5A8020070
:10A99000E9A80200044A137923B9012110609180CB
:10A9A00018467047852070475C380020074B1A68AE
:10A9B000D20704D4C02283F8002301221A604FF08A
:10A9C00080430122C3F81825704700BF00E100E072
:10A9D0004FF0804202210023C2F8081382B0C2F86F
:10A9E0000431D2F80431019301230199D360D2F8E4
:10A9F0001834DB03FBD402B0704700BF10B54FF032
:10AA0000804382B0D3F8002162B10021164AC3F816
:10AA10000011D3F80011507900910121009CC3F876
:10AA20000813A8B14FF08043D3F80421CAB1002223
:10AA3000C3F80421D3F80421019202210A4A0198A3
:10AA4000C3F808131368012002B0BDE8104018478E
:10AA50001368517198474FF08043D3F80421002ABE
:10AA6000E5D102B010BD00BF5C38002030B5284CE5
:10AA700094F86A3083B0002B46D14FF6FF704FF048
:10AA8000FF0C5A09012A18BF4FF0FF3103F01F02D3
:10AA900008BF014621FA02F2D20748BFE21803F1CB
:10AAA000010348BF82F830C0302BEAD14FF0FF30AD
:10AAB0004FF0FF314FF0FF33C4E9000106220021BF
:10AAC00014482366C4E90233C4E90433C4E90633F5
:10AAD000C4E90833C4E90A3304F0A0FB0E4BC022DA
:10AAE00083F8062340221A600C4B0020C3F87C0137
:10AAF000D3F87C21019201214FF00042019D84F89E
:10AB00006A10C3F8042300E0082003B030BD00BF82
:10AB100068380020CC38002000E100E000600040F0
:10AB2000034B93F86A00003818BF0120704700BF3C
:10AB30006838002070B57D4B03EB000E9EF930C0E5
:10AB4000BCF1000F01DB082070BD91F802C01CF0C1
:10AB5000020FCCF340055DD11C6A013400F0DF80A8
:10AB60005C6A013400F0D1804FF00C0E4FF00A0CFB
:10AB700053F82C40013459D00CF10104744547D2EC
:10AB800053F82460013600F0B8800CF102047445DB
:10AB90003ED253F82460013600F0AF800CF103067A
:10ABA000764535D253F8264001343ED00CF10406E8
:10ABB00076452DD253F82640013436D00CF10506E7
:10ABC000764525D253F8264001342ED00CF10606E6
:10ABD00076451DD253F82640013426D00CF10706E5
:10ABE000764515D253F8264001341ED00CF10806E4
:10ABF00076450DD253F82640013416D00CF1090CDD
:10AC0000F44505D2DC6A013408BF4FF00B0C0DD0BF
:10AC1000042070BD1C68013471D05C6801347BD0A5
:10AC20004FF0080E4FF0020CA2E7B44643F82C2078
:10AC30001A184FFA8CFE82F830E015B99C448CF853
:10AC400058008A7854071CD4D50747D51F2887BFDA
:10AC5000374A00F01F0404464FF0A04202EB840282
:10AC6000D2F8004724F00204C2F80047314DC4086E
:10AC700000F0070C2E5D012202FA0CF232432A5535
:10AC80008A7812F002021CD04FEA8E0303F180434F
:10AC900003F5C0430978D3F8104524F44F3424F465
:10ACA0004074C3F8104502020904D3F8100501F4FA
:10ACB000403102F47C520A430243C3F810250020BD
:10ACC00070BDAEF1080E43FA8EF30C7893F8601065
:10ACD000104641EA841283F8602070BD1F284C782A
:10ACE00087BF134D00F01F0202464FF0A04502F54A
:10ACF000E072A40045F82240B8E7A44696E71A603F
:10AD000000228EF8302096469BE74FF0090C8EF813
:10AD100030C05A62E64691E74FF0010C86E74FF0EB
:10AD2000080C8EF830C01A62E64687E768380020C3
:10AD300000030050CC38002030B4344C04EB000C3D
:10AD400082B09CF93030072B24DD083B44FA83F3B2
:10AD500093F860309B09032B47D0012B0CBF4FF4B5
:10AD600000324FF440321F288ABF294B4FF0A043D6
:10AD700000F01F0003EB8000D0F8003723F44033CD
:10AD8000C0F80037D0F800371A43C0F8002702B0E7
:10AD900030BC7047DAB2072AF9D8980000F1804039
:10ADA00003F1400200F5C04052B29200D0F81055B5
:10ADB00092B202F1804202F5C04245F00105C0F8AE
:10ADC00010550020106012680192019A0029DED00F
:10ADD0009CF9302054F82220002AD8D00D490122B5
:10ADE00002FA03F3C1F80433D1E71F288ABF084AE7
:10ADF0004FF0A04200F01F03D2F8102598BF034681
:10AE0000DA4002F0010202321204ACE76838002096
:10AE100000030050006000401F288ABF054B4FF020
:10AE2000A04300F01F00D3F8103523FA00F000F023
:10AE300001007047000300502DE9F047002384B063
:10AE4000CDE902331C4AD2F80011012900F030820A
:10AE50001E46194BD3F80421012A00F01A82164B22
:10AE6000D3F80821012A00F00582134BD3F80C21F6
:10AE7000012A00F0F081104BD3F81021012A00F0D4
:10AE8000DB810D4BD3F81421012A00F0C1810A4B5C
:10AE9000D3F81821012A00F0AC81074BD3F81C210C
:10AEA000012A0BD0044BD3F87C21012A00F0218227
:10AEB00056BB04B0BDE8F08700600040D3F804231F
:10AEC0001206EFD50022C3F81C21D3F81C11009103
:10AED000D3F87C110098012946F0800614D1C3F8FC
:10AEE0007C21D3F87C3101934FF0A042019BD2F832
:10AEF0002015CF4B0291C2F82015D3F820250392DC
:10AF0000C3F8202546F00046CA4F00240125A300BF
:10AF100003F18043354203F5C0434FEA45050BD0AA
:10AF2000D3F8100557F82420D3F81015C0F30520E6
:10AF3000C1F3014102B190470134082CE7D1002E42
:10AF4000B7DABC4CBA4E01254FF0A04794F9600027
:10AF5000431C48D0C0F3C20202F110030DEB030200
:10AF600000F0070312F8082C05FA03F31A42C1B2E5
:10AF700000F03F0037D01F2800F22B8102464FF02F
:10AF8000A04909EB820305FA02F2D3F800C7D3F80F
:10AF900000E72EF4403EC3F800E704EB000ECCF3CC
:10AFA000014C9EF930E0D3F800A754F82E80BCF194
:10AFB000020F0CBF4FF4403E4FF4003E4EEA0A0E23
:10AFC000C3F800E7C9F82025B8F1000F0BD08909B4
:10AFD000032900F08281BCF1020F00F07B81BCF1FB
:10AFE000030F00F0A68194F96100411C48D0C0F322
:10AFF000C20202F110030DEB030200F0070312F886
:10B00000082C05FA03F31A42C1B200F03F0037D012
:10B010001F2800F2E28002464FF0A04909EB8203AC
:10B0200005FA02F2D3F800C7D3F800E72EF4403E49
:10B03000C3F800E704EB000ECCF3014C9EF930E0BE
:10B04000D3F800A754F82E80BCF1020F0CBF4FF4C8
:10B05000403E4FF4003E4EEA0A0EC3F800E7C9F83E
:10B060002025B8F1000F0BD08909032900F03A819F
:10B07000BCF1020F00F03381BCF1030F00F05D81E1
:10B0800094F96200421C48D0C0F3C20202F11003DE
:10B090000DEB030200F0070312F8082C05FA03F386
:10B0A0001A42C1B200F03F0037D01F2800F2998049
:10B0B00002464FF0A04909EB820305FA02F2D3F8E9
:10B0C00000C7D3F800E72EF4403EC3F800E704EBD6
:10B0D000000ECCF3014C9EF930E0D3F800A754F8F1
:10B0E0002E80BCF1020F0CBF4FF4403E4FF4003EE7
:10B0F0004EEA0A0EC3F800E7C9F82025B8F1000FA0
:10B100000BD08909032900F0F280BCF1020F00F096
:10B11000EB80BCF1030F00F0088194F96300431C3D
:10B1200047D0C0F3C20202F110030DEB030200F09E
:10B13000070312F8082C05FA03F31A42C1B200F013
:10B140003F0036D01F2850D802464FF0A04909EBE7
:10B15000820305FA02F2D3F800C7D3F800E72EF411
:10B16000403EC3F800E704EB000ECCF3014C9EF91F
:10B1700030E0D3F800A754F82E80BCF1020F0CBFCA
:10B180004FF4403E4FF4003E4EEA0A0EC3F800E78B
:10B19000C9F82025B8F1000F0BD08909032900F068
:10B1A0009780BCF1020F00F09080BCF1030F00F01B
:10B1B000B880D7F820250292C7F82025D6F8203588
:10B1C0000393C6F8203513437FF4C0AE04B0BDE846
:10B1D000F08701F01F02B146D3E601F01F02B1462D
:10B1E0001CE701F01F02B14665E701F01F02B146FE
:10B1F000ADE7D3F8042351067FF54FAE0022C3F824
:10B200001821D3F818310093009B46F0400644E61D
:10B21000D3F8042390067FF53AAE0022C3F8142138
:10B22000D3F814310093009B46F020062FE600BFB0
:10B230000003005068380020D3F80423D4067FF5BB
:10B2400020AE0022C3F81021D3F810310093009BE8
:10B2500046F0100615E6D3F8042315077FF50BAE6C
:10B260000022C3F80C21D3F80C310093009B46F068
:10B27000080600E6D3F8042357077FF5F6AD002251
:10B28000C3F80821D3F808310093009B46F0040668
:10B29000EBE5D3F8042392077FF5E1AD0022C3F874
:10B2A0000421D3F804310093009B46F00206D6E552
:10B2B000D2F8046316F001063FF4CBADC2F80031BA
:10B2C000D2F800310093009BC3E501297FF471AFF0
:10B2D000C0476EE701297FF486AEC04783E60129A7
:10B2E0007FF4CEAEC047CBE601297FF416AFC0474E
:10B2F00013E70022C3F87C21D3F87C3101934FF08F
:10B30000A042019BD2F820150E4B0291C2F82015E5
:10B31000D3F820250392C3F82025002E3FF411AE68
:10B32000F0E502297FF445AFD2E702297FF4F5AEBC
:10B33000DDE702297FF457AECFE702297FF4A0AE04
:10B34000D0E700BF00030050014B1B68184700BF47
:10B35000D4380020104B98421BD130B583B0002365
:10B360000DF107008DF807300D46FDF77BFE0B4B06
:10B370009DF807001C793CB901221D601A71FDF788
:10B3800097FE204603B030BDFDF792FE112003B0BA
:10B3900030BD0020704700BF00200040D43800209E
:10B3A00010B5714AD2F8043399058AB068D5D2F83D
:10B3B0002431002B64D00023C2F82431D2F8243188
:10B3C00001934FF40171694B0198C2F8081393F887
:10B3D000291009B901215160634902228DF8182012
:10B3E000D1F88024C1F880249FED5D7B9969D868ED
:10B3F000CDE9081283ED067BD3E90012079006A879
:10B400009047594AD2F81C31C3B1584B5869196A50
:10B4100088426AD993F8281001F0FF00002964D10E
:10B42000C2F81C01D2F81C11039103999C68186A98
:10B43000196A205C01311962C2F81C054A4AD2F827
:10B440004431DBB10021494BC2F84411D2F8440128
:10B4500093F829100090009809B1012111609A69B0
:10B4600062B1D8685C6A00210122CDE907049961C4
:10B470008DF8182006A8D3E9001290470AB010BD35
:10B48000394AD2F804335B07BBD5D2F80831002B18
:10B49000B7D0364B996900293ED00021C2F8081177
:10B4A000D2F8081104910499D868596AD2F818257D
:10B4B00042545A6A996901325A625A6A8A42A0D140
:10B4C000DA69002A31D09A611A69D8685C6ADA6050
:10B4D000002101220894D961596207905C681968BB
:10B4E0008DF8182006A8A0478BE71F4A0020C2F855
:10B4F0001C01D2F81C210292029A5A69002A9DD09E
:10B50000D3E901215C698DF81800CDE90714586171
:10B51000196806A8904791E7C2F80811D2F8080107
:10B5200005900598D2F81825C7E793F8292012B995
:10B530000D4A012151600C4A4FF40171C2F8081301
:10B54000D8685C6A0021012299618DF81820D3E93E
:10B550000012CDE9070406A8904752E7AFF3008038
:10B56000000000000000000000200040E038002043
:10B570002DE9F041734E90F804802C2303FB0863FF
:10B5800082B093F82A30002B40F09C8005460C4690
:10B5900000686D491746FFF7DDFE002840F08E80F9
:10B5A0002368591C19D01F2B4FF001028ABF67492D
:10B5B0004FF0A04103F01F0302FA03F3C1F808356E
:10B5C00023681F2B86BF03F01F03604A4FF0A04281
:10B5D00003F5E073032142F8231063685A1C0BD073
:10B5E0001F2B86BF03F01F03584A4FF0A04203F5FC
:10B5F000E073002142F823102B68A269C3F82425C8
:10B60000227D637D13432A68C2F86C35D4E90012A9
:10B610002B68C3F81425C3F80C15237D012B5CD0CF
:10B620002C2303FB08F3F21857602269F25097B3FA
:10B630002A68237F0021C2F81C11D2F81C21009235
:10B64000009A2A68C2F84411D2F844210192019A62
:10B650002A683F49C2F804132A6842F307310029D7
:10B660004FEA123232DB01F160415B0101F56141C9
:10B67000DBB281F800332B6843F30732002A4FEA2C
:10B68000133109DB334C5209012301F01F0103FA86
:10B6900001F144F822102B680422C3F800252C2362
:10B6A00003FB086601220023C6E9063386F8293029
:10B6B000736186F82A2002B0BDE8F081112002B043
:10B6C000BDE8F081082002B0BDE8F081224902F017
:10B6D0000F025B01DBB28B54CDE7A368591C0BD082
:10B6E0001F2B86BF03F01F0318494FF0A04103F53D
:10B6F000E073002241F82320E3685A1C1AD01F2B64
:10B700008ABF12494FF0A04103F01F03012202FA41
:10B7100003F3C1F80835E3681F2B88BF03F01F034C
:10B7200003F5E0738CBF09494FF0A041032241F8B3
:10B730002320E3682A68A168C2F80835C2F810150A
:10B740006EE700BFE0380020A1B302000003005004
:10B750008000020000E100E014ED00E02DE9F0417E
:10B76000334C90F804E02C2303FB0E4384465869C5
:10B7700084B000284ED15A619960186283F828007D
:10B78000DCF80020C2F81C01D2F81C210292029AB7
:10B79000DCF8002001219160DCF800209D68C2F8EF
:10B7A0001C01D2F81C1101910199196A6E5C196A89
:10B7B00001311962C2F81C655A6812B104B0BDE8C3
:10B7C000F0815E691A6ADCF8001096421BD90746C0
:10B7D00002E093F828200ABBD1F81C21002AF8D0F7
:10B7E000C1F81C71D1F81C210392039A1A6A15F84A
:10B7F00002801A6A01321A62C1F81C851A6A9642DE
:10B80000EAD8DCF80010D1F81C31002BFBD0012362
:10B81000CB6004E0112004B0BDE8F0810F202C23A0
:10B8200003FB0E440023636104B0BDE8F08100BF58
:10B83000E03800200279044B2C2101FB02335869C7
:10B84000003818BF01207047E038002030B5554D52
:10B8500090F804E02C2303FB0E5387B05C68844609
:10B8600024B103684FF40170C3F808032C2303FBD1
:10B870000E53986998B1D869002840F08380196107
:10B88000DA612C2202FB0E52536853B3DCF800300D
:10B890004FF40172C3F80423002007B030BD9A6151
:10B8A000D9605862D86193F82930002BE9D1DCF8CF
:10B8B0000020C2F82431D2F824210192DCF80020C3
:10B8C0000199C2F80831D2F808310293DCF800304F
:10B8D000029901221A602C2202FB0E525368002B9F
:10B8E000D4D1DCF80010C1F84431D1F844310393CD
:10B8F000039BDCF80030D3F82411D3F80841D3F8C7
:10B90000440154B9002834D10029F4D02C2303FB7E
:10B910000E550023AB610320BFE70029F6D150BBD1
:10B920009169C3F8080181B1D3F808110491049911
:10B93000D468516AD3F818356354536A9169013356
:10B940005362536A9942D4D806E0D3F8081105919E
:10B950000599D3F81835536A2C2303FB0E550022A2
:10B9600095F82930AA61B3B1DCF8003001221A60E1
:10B9700093E70029CAD12C2303FB0E550023AB61AA
:10B980000F208AE764B1DCF800304FF40172C3F88D
:10B990000423112081E7DCF8003001225A607CE7A3
:10B9A00011207AE7E038002010B55B4BD3F8242152
:10B9B0008AB0002A58D00022C3F82421D3F82411D9
:10B9C000049102228DF818200499544AD3F8801467
:10B9D000C3F880149FED4E7B0991D3F83C45D068A5
:10B9E00082ED067BCDE90704D2E9001306A898474B
:10B9F000494BD3F8442152B10021484AC3F84411BD
:10BA0000D3F84401916903900398002961D1424B16
:10BA1000D3F8202162B10020C3F82001D3F82021FF
:10BA2000029201213D4A029CD9605169002943D10B
:10BA3000394BD3F85821AAB10020C3F85801D3F8E4
:10BA40005811364A01910199516959B1D3F84C45C1
:10BA50008DF81800D2E901315061CDE9071406A82C
:10BA6000116898470AB010BDD3F810110029BFD053
:10BA7000C3F81021D3F81011284C05910599A1693C
:10BA8000D3F83C058842B3D1E169002933D0C4E939
:10BA90000612D3F8002222F02002C3F80022E26846
:10BAA0000792012122698DF81810089063682168B7
:10BAB000E26006A898479BE7D3F84C458DF818003C
:10BAC000D2E901315061CDE9071406A81168984701
:10BAD000AEE79FED0F7BD3F83C45D0684FF0010CEB
:10BAE000CDE9070482ED067BD2E900138DF818C07A
:10BAF00006A898478BE7E268A1610123CDE90720FA
:10BB00008DF8183006A8D4E90013984770E700BFF5
:10BB1000000000000000000000200040103900205C
:10BB20002DE9F04307797F4E07EBC70306EB83034C
:10BB300087B093F82030002B40F0B58004460D46C6
:10BB4000006879499046FFF705FC002840F0A7807F
:10BB50002B68591C4FEAC70919D01F2B4FF001025F
:10BB60008ABF72494FF0A04103F01F0302FA03F3AA
:10BB7000C1F808352B681F2B86BF03F01F036B4AE3
:10BB80004FF0A04203F5E073032142F823106B68E5
:10BB90005A1C0BD01F2B86BF03F01F03634A4FF0C4
:10BBA000A04203F5E073002142F823102368AA693C
:10BBB000C3F824252B7D6A7D1A432368C3F86C25BE
:10BBC000D5E900312268C2F80C35C2F814152B7D76
:10BBD000012B73D009EB070206EB8203C3F8048044
:10BBE0002B6946F82230B8F1000F47D021682B7F2F
:10BBF0000022C1F81021D1F810110191019921689A
:10BC0000C1F82021D1F82011029102992168C1F8D0
:10BC10002421D1F82411039103992168C1F844210A
:10BC2000D1F84411049104992168C1F85821D1F840
:10BC300058210592059A22683D49C2F804132268EA
:10BC400042F3073100294FEA123230DB01F1604143
:10BC50005B0101F56141DBB281F80033226842F3F8
:10BC60000733002B4FEA123109DB324D5B09012209
:10BC700001F01F0102FA01F145F8231022684F4438
:10BC800006EB87060121002386F820100821C2F860
:10BC90000015C6E90633736107B0BDE8F0831120D3
:10BCA00007B0BDE8F083082007B0BDE8F083224963
:10BCB00002F00F025B01DBB28B54CFE7AB68591C7B
:10BCC0000BD01F2B86BF03F01F0318494FF0A04174
:10BCD00003F5E073002241F82320EB685A1C1AD0C8
:10BCE0001F2B8ABF11494FF0A04103F01F0301220F
:10BCF00002FA03F3C1F80835EB681F2B88BF03F085
:10BD00001F0303F5E0738CBF08494FF0A0410322E5
:10BD100041F82320EB682268A968C2F80835C2F808
:10BD2000101557E710390020A9B902000003005090
:10BD30001003420000E100E014ED00E001F0604C6F
:10BD4000BCF1005F30D170B590F804E0264C0EEBEA
:10BD5000CE0C04EB8C0C0346DCF8140082B04FEAE6
:10BD6000CE0500283BD1CCF81420CCF808101A6876
:10BD7000C2F82001D2F820210192019A1A68C2F873
:10BD80005801D2F858210092009A1A68DCF8146021
:10BD9000C2F84415C2F848651A6801219160DCF8C0
:10BDA00004201AB102B070BD102070471A6800E07C
:10BDB000C0B9D2F82011D2F858010029F8D088B9BA
:10BDC0000121D1601B68D3F85821002AFBD005EB74
:10BDD0000E0304EB830300225A6102B070BD1120F0
:10BDE00002B070BD0F20F2E7103900200379054A38
:10BDF00003EBC30302EB83035869003818BF01202B
:10BE0000704700BF1039002001F06043B3F1005FBC
:10BE100062D1F0B490F804C0484C0CEBCC0304EBB6
:10BE2000830382B05E684FEACC0326B105684FF405
:10BE30000477C5F80873634404EB83039D695DBB15
:10BE40009A61DD61D9600368C3F81051D3F81031ED
:10BE50000193019B0368C3F84451D3F84431009324
:10BE60000368009DC3F83415C3F838250368012220
:10BE70001A6090F804C00CEBCC0304EB83034FEA88
:10BE8000CC055B6853B303684FF40472C3F8042312
:10BE9000002002B0F0BC7047DD69002D37D1196178
:10BEA000DA610368C3F81051D3F810310193019B94
:10BEB0000368C3F84451D3F8443100930368009DEC
:10BEC000C3F83415C3F838250268D2F8003243F0BD
:10BED0002003C2F80032CCE710207047036801E06D
:10BEE000E9B910BBD3F81021D3F84411D3F82401D9
:10BEF000002AF5D0654400284FF0000304EB8504C8
:10BF000018BF03209942A36118BF0F20C1E796B163
:10BF100003684FF40472C3F804231120B9E76544A1
:10BF200004EB85040F20A261B3E7654404EB8504AC
:10BF30000320A161ADE71120ABE700BF103900205D
:10BF40000220FEF7A7BB00BF2DE9F04706460D46CD
:10BF5000FEF7CEFB032805D8012D04461AD0022D8A
:10BF600027D00DB1BDE8F0871B48FCF7D1FE1B4B75
:10BF70001B4A04EB44010B44125D9D78AA42F1D1A7
:10BF8000002DEFD0174B1B68002BEBD02846BDE8E7
:10BF9000F0471847114F00EB4003FA18FD5C537847
:10BFA0004FEA40085BB9A04447440D4BBA781A5594
:10BFB000E6E70A4B00EB40041C446578E0E7DFF855
:10BFC000289005484A464FF48041FCF745FE00287A
:10BFD000E9D189F80060E6E7A02A0020383900207E
:10BFE000543900204C3900203439002010B5007835
:10BFF000FEF77EFB03280BD8064B00EB40001844ED
:10C00000407828B1044B1B6813B1BDE810401847B5
:10C0100010BD00BF383900204C39002038B5BA4D6A
:10C020002B7804466BB1B94B1B7800202870002B8D
:10C030004DD0FEF7F1FA0120FEF7EEFA0320FEF7ED
:10C04000EBFA172C00F25E81DFE814F0EB006300DE
:10C0500063009F00AC00B900CB0097005000440083
:10C06000500044007A00180018001800180018004A
:10C07000D9001801810000015C005C00A448FCF7B5
:10C0800047FED4F11104054600F02681002840F057
:10C090002381012C14D0C82303FB04F429464FF458
:10C0A00000434FF47A70C4FB03014FF4FA6200239B
:10C0B00004F0DAF82A4601469548FCF7CDFD05461E
:10C0C0000220FEF797FA914B01221A701FE0FEF74B
:10C0D000B5FAB6E701202870FEF7DCFABDE8384073
:10C0E0008C4800224FF40051FCF7B6BD01202870A7
:10C0F000FEF7D0FABDE838408648002240F266617B
:10C10000FCF7AABDFEF7B0FA834B00251C70284649
:10C1100038BD0020FEF75AFA002840F0C380FEF731
:10C1200069FA40F6CD4141F69A13022C18BF194620
:10C13000794B1C70BDE8384076480022FCF78CBD76
:10C14000FEF792FA744B0C221A700025DFE76F4B52
:10C150001B78002B00F0D3800020FEF75DFA012051
:10C16000FEF75AFA0320FEF757FA0120FEF742FACB
:10C17000694B14221A700025C9E70020FEF73AFA2D
:10C18000654B07221A700025C1E70020FEF71EFA52
:10C19000002840F09B80FEF72DFA40F6CD415E4B23
:10C1A0000324C6E70020FEF711FA002840F088803B
:10C1B000FEF720FA41F69A11574B0424B9E7002004
:10C1C000FEF704FA002877D1FEF714FA524B5148D3
:10C1D00005241C70BDE83840002240F6CD41FCF734
:10C1E0003BBD0020FEF756FA4B4B4A4806241C7014
:10C1F000BDE83840002240F26661FCF72DBD434B9C
:10C200001B78002B78D00020FEF706FA0120FEF7FD
:10C2100003FA0320FEF700FA3F4B12221A700025A2
:10C2200075E73A4B1B78002B60D00020FEF7F4F93D
:10C230000120FEF7F1F90320FEF7EEF93548FCF78F
:10C2400067FD354B002205461A7060E72F4B1B78BF
:10C25000002B48D00020FEF7DFF90120FEF7DCF9C3
:10C260000320FEF7D9F90020FEF7C4F90120FEF7FC
:10C27000C1F9294B15221A70002548E7234B1B787A
:10C28000BBB30020FEF7C8F90120FEF7C5F9032073
:10C29000FEF7C2F90020FEF7ADF91F4B13221A700A
:10C2A000002534E70020FEF7B7F9022C47F23331BE
:10C2B00018BF4FF480313BE70020FEF7ADF985E76A
:10C2C0000020FEF7A9F94FF4803175E70020FEF752
:10C2D000A3F943F2333162E70220FEF79DF90B4BDD
:10C2E00000221A7013E7FEF7A9F9BCE7FEF7A6F9DA
:10C2F000A4E7FEF7A3F9CDE7FEF7A0F98CE7FEF778
:10C300009DF932E7002502E7483900203539002041
:10C31000802A0020C02A002050390020044B1B68CE
:10C32000DB0700D47047034B1878FFF777BE00BFD8
:10C330004439002050390020032801D900207047DB
:10C34000FEF7C2B9044B1B6813F0010301D1184674
:10C350007047FFF763BE00BF4439002038B5244B57
:10C36000244A196081070446106004D410F00105C6
:10C370002CD1284638BD204B20480E210F221970A1
:10C38000DA701021112299715A72042140F233326D
:10C39000FCF758F9054630B1E207EAD50120FEF76F
:10C3A000BFF9284638BDFCF7A9F905460028F3D1A6
:10C3B0000146134A1348FCF737FCE3070546D8D576
:10C3C0000120FEF7ADF9002DD3D102E00120FEF7E8
:10C3D000A7F90D4A0D480021FCF726FC0546002868
:10C3E000C7D1BDE838400A4A0A480121FCF71CBC05
:10C3F0004C3900204439002038390020080D030052
:10C40000EDBF02002C0D03001DC30200300D030020
:10C4100041BF0200280D0300032806D8012A06D0D8
:10C4200001291BD0022908D071B1072070470129CA
:10C4300011D002294FF00002F6D10B4B00EB400067
:10C44000034400205A707047074B00EB4000034440
:10C4500008469A70704700F10E02D2B200EB40031A
:10C4600001490020CA54704738390020032801D9F7
:10C470000620704708B5FEF74DF91F2886BF0A4B06
:10C4800000F01F004FF0A04303EB80030020D3F81F
:10C49000002722F44032C3F80027D3F8002742F4E3
:10C4A0004032C3F8002708BD0003005010B50388D0
:10C4B000102B07D0112B04D1254B186801381860B8
:10C4C00030B110BD224C216811B30131216010BD83
:10C4D00001220221FFF7A0FF40B1072806D01D4B23
:10C4E0001B68002BEDD0BDE8104018470722022141
:10C4F0000120FFF791FF08B10728F0D100210A229F
:10C500000846FFF789FF0028DBD00728E7D1D8E7E6
:10C5100001220846FFF780FF38B1072805D00D4BF0
:10C520001B6803B198472168CFE707220221012049
:10C53000FFF772FF08B10728F1D104220221002081
:10C54000FFF76AFF0028EED00728E8D1EBE700BF2D
:10C550005C3900205839002008B50020FFF786FF1D
:10C5600010B1062800D008BD0120FFF77FFF00288A
:10C57000F9D0062808BF002008BD00BF184B10B531
:10C58000186031B101200C46FFF7D6FEF8B1022346
:10C590002370144B186808B1002010BD012202213D
:10C5A000FFF73AFF08B10728F7D10722022101203F
:10C5B000FFF732FF08B10728EFD100210A22084611
:10C5C000FFF72AFF0028E7D00728E5D010BDFFF7C6
:10C5D000B3FE10B10B232370DBE72070D9E700BF57
:10C5E000583900205C39002075DF704776DF7047CE
:10C5F0007FDF70478FDF7047FCF796B80146014830
:10C6000002F032BAE43B002010B503883B2B82B025
:10C6100004461CD80F2B21D9103B2B2B1ED8DFE84A
:10C6200003F01F361D451D1D1D1D1D1D1D4E1D1D0D
:10C630001D5E1D661D1D1D1D1D1D1D1D1D1D1D1DA0
:10C640001D1D1D1D1D1D1D1D1D1D1D1D1D18562BD8
:10C6500004D1A0881321FFF7C9FF98B902B010BD1B
:10C6600081882C48002202F033FB00284ED107209D
:10C67000FFF768FE002846D1A188274800F0E4FFB4
:10C680000028EBD002B0BDE81040FCF74DB8234ABB
:10C690002348237A2349801AC008A288000440F066
:10C6A000030002B0BDE81040FBF73ABA00238088CF
:10C6B0001A468521FFF79CFF0028CFD0E2E7037AD6
:10C6C000022BCBD1154B16481749C01AC0080004DD
:10C6D00040F0030002B0BDE81040FBF7E3BB8088E8
:10C6E00004F10801FFF780FF0028B7D0CAE7002354
:10C6F0008088ADF8043001A9FFF77CFF0028ADD099
:10C70000FCF712F8AAE7FCF70FF8B5E7FCF70CF80E
:10C71000ADE700BFE43B0020F82A0020A417030087
:10C72000CC170300340D0300640D030070B50378CB
:10C73000012B044635D0022B24D003B170BD1D4C13
:10C740001D4D20882844FCF727FC2288013292B234
:10C750001544228015F8013C0A2B05D00D2B03D07F
:10C76000164B1B889342E9D8134E154D3146284687
:10C7700002F05EFA082802D0132816D0B8B90023B8
:10C78000238070BD0F48104B1049C01AC008000428
:10C7900040F00100FBF786FB6068BDE87040FBF7E6
:10C7A000C3BF0848084B0A49EFE72288DEE7FBF7DA
:10C7B000BBFFE4E7543A002060390020F62A00204D
:10C7C000E43B0020CC170300A4170300840D0300F2
:10C7D000B80D030010B504460020FFF7B3FD10B9F3
:10C7E0002CB1012010BDFBF79FFF002CF9D1FFF702
:10C7F000B3FE0028F5D0FBF797FF012010BD00BF66
:10C800000A8840F677239A4200D0704710B50D4B46
:10C810000D48C01AC00882B00C46000440F0030066
:10C820000A490190FBF73EFBA388094A0949019890
:10C83000033B9BB213801A4602B0BDE81040FBF7E1
:10C840006FB900BFA4170300CC170300E40D030069
:10C85000F62A0020000E0300042805D00A2802D181
:10C860000020FDF7B1BB704708B5064B132158886F
:10C87000FFF7BCFE30F0080300D108BDBDE808405A
:10C88000FBF752BFE43B00200378052B07D010B51F
:10C89000062B84B01ED0042B04D004B010BD406819
:10C8A000B0B97047184B19481949C01AC00800049C
:10C8B00040F00300FBF7F6FA164801F0A1FF00BBB9
:10C8C0000120FFF73FFD0028E7D004B0BDE810408D
:10C8D000FBF72ABF41680D488C798B784A7803941E
:10C8E0004C7902940C790194CC780094064C0A4956
:10C8F000001BC008000440F00300FAF739FF04B041
:10C9000010BDFBF711FFDBE7A4170300CC170300F2
:10C91000580E0300103C0020280E03002DE9F047BC
:10C920000B78012B0C4605D0022B74D0002B55D070
:10C93000BDE8F0878F89D1F80880002F00F08C8047
:10C94000474B484ADFF838A1A3EB02094FEAD9095F
:10C950004FEA0949454649F0010900262878FCF7C5
:10C9600047FB044678BB0136BE4205F10105F5D10F
:10C970007B1E18F803300D2B1AD03B4D3A4641462A
:10C98000284602F055F904460028D1D01128F5D0E8
:10C99000344B33483549C01AC0080004224640F0E1
:10C9A0000100FBF7A1F92046BDE8F047FBF7BCBE4C
:10C9B0000A20FCF71DFB1128DFD10A20FCF718FB29
:10C9C0001128F5D0D9E7112C324651464846C5D03A
:10C9D000FBF78AF92046FBF7A7FEC4E7214B204D61
:10C9E0002349ED1AED082D0445F0030506462846B7
:10C9F000FBF758FA618804F10E02304602F068F93C
:10CA000038BB304602F0E0F800BB28461949BDE8C3
:10CA1000F047FBF747BA134B11481749C01AC00833
:10CA2000000440F00300FBF73DFA144801F0E8FE73
:10CA300048B90120FFF786FC00283FF479AFBDE834
:10CA4000F047FBF771BEFBF76FFEF2E7FBF76CFEFA
:10CA5000DBE7FBF769FED4E74FF0FF3389E700BF60
:10CA6000CC170300A4170300E43B0020D40E0300FE
:10CA7000680E03007C0E0300000F0300103C002032
:10CA8000AC0E030008B50B490B4801F099FA28B920
:10CA90000948F72101F0ACFA40B908BDFBF744FEA4
:10CAA0000548F72101F0A4FA0028F6D0BDE80840B7
:10CAB000FBF73ABE01C80200FC3B002000B54FF472
:10CAC00080418BB00020FAF7D3FC002840F09A8018
:10CAD000FAF7BEFCFCF772F8002840F0C080614C09
