:1000000000000420BD020000E5020000E70200003D
:10001000E9020000EB020000ED0200000000000019
:10002000000000000000000000000000EF020000DF
:10003000F102000000000000F3020000F5020000E1
:10004000F7020000F7020000F7020000F7020000CC
:10005000F7020000F702000041050000F70200006F
:10006000F7020000ED0B0000F7020000F7020000AD
:10007000F7020000F7020000F7020000F70200009C
:10008000F70200002D050000F7020000F702000053
:10009000F7020000F7020000F7020000F70200007C
:1000A000F7020000F7020000F7020000F70200006C
:1000B000F7020000F702000000000000000000004E
:1000C000F7020000F7020000F7020000F70200004C
:1000D000F7020000F7020000F7020000F70200003C
:1000E000F7020000F7020000F70200000000000025
:1000F00000000000F702000000000000F70200000E
:1001000000000000000000000000000000000000EF
:1001100000000000000000000000000000000000DF
:1001200000000000000000000000000000000000CF
:1001300000000000000000000000000000000000BF
:1001400000000000000000000000000000000000AF
:10015000000000000000000000000000000000009F
:10016000000000000000000000000000000000008F
:10017000000000000000000000000000000000007F
:10018000000000000000000000000000000000006F
:10019000000000000000000000000000000000005F
:1001A000000000000000000000000000000000004F
:1001B000000000000000000000000000000000003F
:1001C000000000000000000000000000000000002F
:1001D000000000000000000000000000000000001F
:1001E000000000000000000000000000000000000F
:1001F00000000000000000000000000000000000FF
:1002000010B5054C237833B9044B13B10448AFF350
:1002100000800123237010BD70000020000000004A
:10022000AC11000008B5034B1BB103490348AFF301
:10023000008008BD0000000074000020AC11000028
:10024000A3F5803A704700BF174B002B08BF134B34
:100250009D46FFF7F5FF00218B460F461348144AD1
:10026000121A00F079FF0E4B002B00D098470D4B6F
:10027000002B00D098470020002104000D000D48FD
:10028000002802D00C48AFF3008000F041FF2000AE
:10029000290000F0A1FD00F027FF00BF00000800CA
:1002A000000000000000000000000420700000209A
:1002B0002C01002000000000000000000649074A51
:1002C000074B9B1A03DD043BC858D050FBDC00F001
:1002D000DDFDFFF7B9FF0000B811000000000020AD
:1002E00070000020FEE7FEE7FEE7FEE7FEE7FEE720
:1002F000FEE7FEE7FEE7FEE7064B1A5C1F2A86BF15
:10030000054902F01F024FF0A04101239340C1F8BC
:100310000C35704784110000000300504FF0A043DB
:1003200010B44FF480404FF400544FF400414FF4A8
:100330008032C3F80845C3F80805C3F80815C3F8A8
:1003400008255DF8044B70470A4B185C1F288ABFCC
:1003500009494FF0A04100F01F00D1F804350122F7
:10036000824022EA03001340C1F80805C1F80C35A9
:10037000704700BF8411000000030050C20710B492
:100380000FD483070AD54FF0A0430C22C3F82C27C3
:10039000C3F83027C3F86027C3F864275DF8044B1F
:1003A00070474FF0A04303224FF40051C3F83427A5
:1003B0004FF48044C3F83827C3F83C27C3F84027DC
:1003C000C3F808154FF480324FF40041C3F80845D4
:1003D000C3F80815C3F80825D3E700BF00B585B0FA
:1003E0000346002101AA44F20100CDE90111039363
:1003F00000F0DCFC05B05DF804FB00BFB0F5A07FA9
:1004000000D07047054B1B7813B9054B02221A70B8
:10041000044A054B10681B68184700BF8C00002079
:100420008D000020940000209000002010B5084BA3
:10043000084A094882B000246946CDE9003400F03A
:1004400007FB10B9054B01221A7002B010BD00BFA6
:1004500004000006FD030000881100008D0000204C
:10046000002945D02DE9F043012883B00446914688
:100470001E460D4623D070BB1E4F39784FF480784E
:1004800011B303292BD002292ED01B491B480C7015
:100490001B490D601B490E600121434600914A46ED
:1004A000002100F071FB3B781448022B10D000F0C3
:1004B00051FB032300203B7003B0BDE8F0830D4FD8
:1004C000397880460029DCD1082003B0BDE8F083EC
:1004D00000F04EFBEDE7072003B0BDE8F0830748CE
:1004E00000F04AFB02233B70044800F049FBCCE7D4
:1004F0000E2070478D0000208C0000208811000025
:10050000900000209400002010B5064C2378032BA7
:1005100001D0002010BD044800F02EFB0223237000
:10052000002010BD8D00002088110000024A034BFE
:1005300010681B68184700BF98000020A00000202A
:100540002DE9F047002384B0CDE902331C4AD2F8EC
:100550000011012900F030821E46194BD3F8042106
:10056000012A00F01A82164BD3F80821012A00F064
:100570000582134BD3F80C21012A00F0F081104BB7
:10058000D3F81021012A00F0DB810D4BD3F81421A0
:10059000012A00F0C1810A4BD3F81821012A00F08A
:1005A000AC81074BD3F81C21012A0BD0044BD3F8A4
:1005B0007C21012A00F0218256BB04B0BDE8F087FF
:1005C00000600040D3F804231206EFD50022C3F8E0
:1005D0001C21D3F81C110091D3F87C11009801293B
:1005E00046F0800614D1C3F87C21D3F87C31019306
:1005F0004FF0A042019BD2F82015CF4B0291C2F8D8
:100600002015D3F820250392C3F8202546F0004694
:10061000CA4F01250024A30003F18043354203F5AE
:10062000C0434FEA45050BD0D3F8100557F82420F6
:10063000D3F81015C0F30520C1F3014102B1904772
:100640000134082CE7D1002EB7DABC4CBA4E012594
:100650004FF0A04794F96000431C48D0C0F3C20299
:1006600002F110030DEB030200F0070312F8082C4F
:1006700005FA03F31A42C1B200F03F0037D01F2839
:1006800000F22B8102464FF0A04909EB820305FAE4
:1006900002F2D3F800C7D3F800E72EF4403EC3F8C7
:1006A00000E704EB000ECCF3014C9EF930E0D3F8E8
:1006B00000A754F82E80BCF1020F0CBF4FF4403E4F
:1006C0004FF4003E4EEA0A0EC3F800E7C9F82025B1
:1006D000B8F1000F0BD08909032900F08281BCF129
:1006E000020F00F07B81BCF1030F00F0A68194F9AA
:1006F0006100411C48D0C0F3C20202F110030DEBAF
:10070000030200F0070312F8082C05FA03F31A425B
:10071000C1B200F03F0037D01F2800F2E28002464D
:100720004FF0A04909EB820305FA02F2D3F800C7A3
:10073000D3F800E72EF4403EC3F800E704EB000EC8
:10074000CCF3014C9EF930E0D3F800A754F82E808A
:10075000BCF1020F0CBF4FF4403E4FF4003E4EEA96
:100760000A0EC3F800E7C9F82025B8F1000F0BD036
:100770008909032900F03A81BCF1020F00F03381AE
:10078000BCF1030F00F05D8194F96200421C48D077
:10079000C0F3C20202F110030DEB030200F00703E5
:1007A00012F8082C05FA03F31A42C1B200F03F0018
:1007B00037D01F2800F2998002464FF0A04909EB7C
:1007C000820305FA02F2D3F800C7D3F800E72EF44B
:1007D000403EC3F800E704EB000ECCF3014C9EF959
:1007E00030E0D3F800A754F82E80BCF1020F0CBF04
:1007F0004FF4403E4FF4003E4EEA0A0EC3F800E7C5
:10080000C9F82025B8F1000F0BD08909032900F0A1
:10081000F280BCF1020F00F0EB80BCF1030F00F09E
:10082000088194F96300431C47D0C0F3C20202F16F
:1008300010030DEB030200F0070312F8082C05FA71
:1008400003F31A42C1B200F03F0036D01F2850D83F
:1008500002464FF0A04909EB820305FA02F2D3F8F1
:1008600000C7D3F800E72EF4403EC3F800E704EBDE
:10087000000ECCF3014C9EF930E0D3F800A754F8F9
:100880002E80BCF1020F0CBF4FF4403E4FF4003EEF
:100890004EEA0A0EC3F800E7C9F82025B8F1000FA8
:1008A0000BD08909032900F09780BCF1020F00F0FA
:1008B0009080BCF1030F00F0B880D7F82025029299
:1008C000C7F82025D6F820350393C6F82035134302
:1008D0007FF4C0AE04B0BDE8F08701F01F02B1465E
:1008E000D3E601F01F02B1461CE701F01F02B1463A
:1008F00065E701F01F02B146ADE7D3F804235106C6
:100900007FF54FAE0022C3F81821D3F818310093B9
:10091000009B46F0400644E6D3F8042390067FF59A
:100920003AAE0022C3F81421D3F814310093009B8F
:1009300046F020062FE600BF00030050A80000206C
:10094000D3F80423D4067FF520AE0022C3F810218B
:10095000D3F810310093009B46F0100615E6D3F84B
:10096000042315077FF50BAE0022C3F80C21D3F842
:100970000C310093009B46F0080600E6D3F80423F0
:1009800057077FF5F6AD0022C3F80821D3F80831E8
:100990000093009B46F00406EBE5D3F8042392078E
:1009A0007FF5E1AD0022C3F80421D3F804310093B0
:1009B000009B46F00206D6E5D2F8046316F0010665
:1009C0003FF4CBADC2F80031D2F800310093009B68
:1009D000C3E501297FF471AFC0476EE701297FF4B9
:1009E00086AEC04783E601297FF4CEAEC047CBE692
:1009F00001297FF416AFC04713E70022C3F87C211A
:100A0000D3F87C3101934FF0A042019BD2F820151E
:100A10000E4B0291C2F82015D3F820250392C3F89B
:100A20002025002E3FF411AEF0E502297FF445AFFA
:100A3000D2E702297FF4F5AEDDE702297FF457AE55
:100A4000CFE702297FF4A0AED0E700BF000300503B
:100A50002DE9F04190F804E03B4F0EEB4E0307EB1D
:100A600083059C002B7A82B0002B68D13A514A68EA
:100A70006A6042794FEA4E0882B11A461E469B00D0
:100A8000046803F5A07C013244F80C6054F80C5063
:100A900044790195D3B29C42019DF0D80268CB788D
:100AA00042F30734002C4FEA123241DB04F1604478
:100AB0005B0104F56144DBB284F80033026842F361
:100AC0000733002B4FEA123409DB204D5B0901226A
:100AD00004F01F0402FA04F445F823400268D2F837
:100AE00004554B7825F0030503F003032B43C2F8AC
:100AF000043505688B78D5F8082503F0030322F048
:100B000003021343C5F8083500680B78D0F81025A8
:100B1000C64422F00F0203F00F0307EB8E071343C6
:100B20000124C0F8103500203C7202B0BDE8F0810D
:100B3000074C02F00F025B01DBB2A354BEE70820B2
:100B400002B0BDE8F08100BF1401002000E100E028
:100B500014ED00E00368054A01211960037903EBF5
:100B6000430302EB83030221197270471401002032
:100B7000036801221A607047036801225A607047B7
:100B800003680122DA607047F0B4056840F201148E
:100B900004FA01FCD5F8004224EA0C04C5F800422E
:100BA000056882B0D5F800729DF818604FF4803463
:100BB0003B438C40C5F800329EB18B00056803F5BD
:100BC000A0730026EE50EB5801930368019DC3F813
:100BD0000443036801F5A87143F8212002B0F0BC7A
:100BE00070470368C3F80843F3E700BF2DE9F041FD
:100BF000114D124FDFF8488082B000244FF4803648
:100C00002B6806FA04F201347BB1D7F8043305F5FA
:100C1000E0401A424FF0000180B206D029602B68F4
:100C20000193D8E90031019A9847042C05F1040595
:100C3000E6D102B0BDE8F081409100400090004054
:100C400014010020F8B5544D2B78A3B103F0FF0434
:100C5000012C0BD1514F38680138386008B3504A25
:100C60001368013B1360002B48D0F8BD2878BDE81D
:100C7000F840FFF7B3BB494E3468013C3460002CA8
:100C800048D0474B18680138186000283DD0002331
:100C900044494CF250321846FFF7E2FB0028E6D1F7
:100CA000F8BDFFF729FB2046FFF726FBFFF72CFCDA
:100CB00000286ED13C4E4FF47A7446F001064FF492
:100CC0007A40B047013CFAD12C702B7803F0FF0634
:100CD000002B39D0012EC9D13046FFF735FB304A01
:100CE000304928230A253B603046156023464CF2E4
:100CF0005032FFF7B5FB0028B9D1F8BD0A231360C5
:100D00002046BDE8F840FFF71FBB0A221A60FFF734
:100D10001BFBBCE701232B702B7803F0FF072BB3E1
:100D2000012FA3D13846FFF70FFB1D4A1D49282389
:100D30000A2533603846156023464CF25032FFF7DF
:100D40008FFB002893D1F8BD2046FFF7FDFA144A27
:100D5000144928230A253B602046156023464CF29F
:100D60005032FFF77DFB002881D1F8BD3846FFF7F0
:100D7000EBFA0B4A0B4928230A24336038461460E7
:100D80003B464CF25032FFF76BFB00287FF46FAF0D
:100D9000F8BDFFF723FB8DE7200100202401002090
:100DA00028010020450C00009011000008B5094DF5
:100DB000FFF7B4FA45F001054FF47A744FF47A4026
:100DC000A847013CFAD12046FFF7BEFA0120FFF701
:100DD000BBFAF1E79011000070B5FFF727FB08BBE5
:100DE0000120FFF7CBFA0020FFF786FA0120224D01
:100DF000FFF782FA4FF47A7445F001054FF47A4018
:100E0000A847013CFAD11D4B1C701A7802F0FF056F
:100E1000F2B1012D09D01878FFF7E0FA20BF40BFEA
:100E200020BFFBE7FFF7DAFADAE72846FFF78CFA8C
:100E3000134B144A144928200A26186016602346CA
:100E400028464CF25032FFF70BFB0028E6D0E3E7D0
:100E50002046FFF779FA0A4B0A4A0B4928200A254F
:100E600018601560234620464CF25032FFF7F8FA1E
:100E70000028D3D0D0E700BF90110000200100204F
:100E80002401002028010020450C000010B44FF080
:100E90008053D3F83021082A23D0844AD2F88830EE
:100EA00043F47003C2F88830BFF34F8FBFF36F8FE6
:100EB0004FF08053D3F83021082A00F0B3804FF070
:100EC0001023D3F80022002AC0F2BF80D3F80432E6
:100ED000002BC0F2BA80764B764A1A605DF8044B5C
:100EE00070474FF080410020C1F80C01724AC1F8F0
:100EF0001001C1F83805D3F80414C2F82015D3F84E
:100F00000814C2F82415D3F80C14C2F82815D3F825
:100F10001014C2F82C15D3F81414C2F83015D3F8F5
:100F20001814C2F83415D3F81C14C2F84015D3F8BD
:100F30002014C2F84415D3F82414C2F84815D3F885
:100F40002814C2F84C15D3F82C14C2F85015D3F855
:100F50003014C2F85415D3F83414C2F86015D3F81D
:100F60003814C2F86415D3F83C14C2F86815D3F8E5
:100F70004014C2F86C15D3F83411D3F84434C2F8D5
:100F80007035052942D84D4B5B5C1BB14C4B4D4A2B
:100F9000C3F88C264C4B5B5C73B14FF080534B49CC
:100FA000D3F83021FB20C1F81805082AD3F83411F2
:100FB0007FF473AF052929D8454B5B5CBBB14FF07B
:100FC00080524FF08040D2F85832D0F8E41ED2F868
:100FD000304121F00F0103F00F030B43C0F8E43E52
:100FE000082CD2F834117FF458AF05290ED8394BAC
:100FF0005B5C5BB14FF08053374AD3F830314FF42C
:101000000071082BC2F840167FF447AF4FF08043C1
:10101000D3F80024D2077FF540AF6FF00102C3F888
:1010200000243AE7D3F83431052B08D94FF01022C9
:101030004FF08043D2F80822C3F858253FE7274AEB
:10104000D35C002B3FF43BAFF0E7254A0123C2F805
:101050000435D2F80034002BFBD04FF010231221BE
:101060001F4AC3F80012D2F80034002BFBD04FF017
:10107000102312211A4AC3F80412D2F80034002BAC
:10108000FBD000231649C2F80435D1F80034002BF8
:10109000FBD0BFF34F8F0549124BCA6802F4E062E0
:1010A0001343CB60BFF34F8F00BFFDE700ED00E0BF
:1010B000000000200090D00300C00040A0110000FC
:1010C0000050004048810300A011000000F00040E3
:1010D000A0110000A0110000009002409811000033
:1010E00000E001400400FA0508B5074B044613B1BF
:1010F0000021AFF30080054B1868836A03B198475D
:10110000204600F031F800BF00000000A8110000E8
:1011100070B50D4D0D4C641BA4100026A64209D1DC
:101120000B4D0C4C00F022F8641BA4100026A642C4
:1011300005D170BD55F8043B98470136EEE755F8E8
:10114000043B98470136F2E7640000206400002069
:10115000640000206800002002440346934200D14E
:10116000704703F8011BF9E7FEE700BFF8B500BFC1
:10117000F8BC08BC9E467047F8B500BFF8BC08BC78
:101180009E4670470D0E0F100090004000040000B6
:101190000338FDD870470000000000000101000086
:1011A000010000000000000004000020000000001A
:0811B00090F0FF7F0100000038
:1011B8000090D003000000000000000000000000C4
:1011C8000000000000000000000000000000000017
:1011D8000000000000000000000000000000000007
:1011E80000000000000000000000000000000000F7
:1011F80000000000000000000000000000000000E7
:1012080000000000000000000000000000000000D6
:0C121800000000002502000001020000A0
:04000003000002BD3A
:00000001FF
